:100200002CC1000054C1000052C1000050C10000C8
:100210004EC100004CC100004AC1000048C10000AE
:100220000C94050B44C1000042C1000040C1000015
:100230003EC100003CC100003AC1000038C10000CE
:1002400036C1000034C1000032C1000030C10000DE
:100250002EC100000C94C60A0C94C10A0C94CB0A5F
:100260000C94FC0A24C100000C94530B20C1000024
:100270001EC100001CC100000C94FF0A0C94CE0AA1
:1002800016C1000014C1000012C100000C94F60A4F
:100290000EC100000CC100000AC1000008C100002E
:1002A00006C1000004C1000002C1000000C100003E
:1002B000FEC000000C94020B0C94F90AF8C0000078
:1002C000F6C00000F4C00000F2C00000F0C0000062
:1002D000EEC000000C94B90A0C94B40A0C94BE0A47
:1002E000E6C00000E4C00000E2C00000E0C0000082
:1002F000DEC0000005A84CCDB2D44EB93836A902F4
:100300000C50B9918688083CA6AAAA2ABE00000013
:10031000803F20656E61626C65642E0054656D706F
:1003200065726174757265206D6561737572656D56
:10033000656E742069730053656E736F72206D6112
:1003400079206E6F742062652072656C6961626CE1
:100350006500200030002C20776974682061646497
:100360007265737365732E2E2E0054656D70657201
:1003700061747572652053656E736F727320666F5A
:10038000756E64203D20002000204E6F64653A2089
:10039000002047726F75703A20003433334D487A2D
:1003A0000020467265713A200052464D3639435757
:1003B0002000656D6F6E547820563420466163745A
:1003C0006F7279205465737400005EBCE2613FDD9A
:1003D00083C29C7E20A3FD1F41009D23BE46DB659A
:1003E000F88C11AF32CA57E9742C63745F70617373
:1003F000733A002C76706173733A002C61637061FC
:1004000073733A002C70756C73653A002C54333A50
:10041000002C54323A002C54313A002C50363A0019
:100420002C50353A002C50343A002C50333A002CE2
:1004300050323A002C50313A002C56726D733A000B
:100440004D53473A0000080A400CFFC000C00000AE
:1004500002010406030003009C1011241FBECFEF0D
:10046000CDBFDFE7DEBF11E4A0E0B0E4ECEFFCE4D9
:1004700000E00BBF02C007900D92AA33B107D9F775
:1004800025E4AAE3B1E401C01D92AE39B207E1F759
:1004900012E0CDE2D2E004C02197FE010E94732653
:1004A000CC32D107C9F70E9490110C947C26A8CEBB
:1004B0000000E0917445F09175458483838187FF46
:1004C000FDCF84810895893260F590E0FC01E5520A
:1004D000FF4BE081EF3F29F18E549F4BDC018C9163
:1004E00090E0DC01AA0FBB1FA15BBF4B2D913C919B
:1004F00021153105B1F04E2F50E0440F551F240F48
:10050000351FD9016D937C93E05FA5E0880F991F9B
:10051000AA95E1F7E80FF0E0FC5F8081887F8260B8
:1005200080830895CF93DF93282F30E09FEF8932A7
:1005300020F5E901C757DF4B98819F3FE9F0F901AA
:10054000EE54FF4BA08140E2A49FD0011124BC5F78
:10055000F901E552FF4BE081E830C0F5AD01405FA5
:100560005F4FE40FF52FF11D4FB7F89412969C934F
:100570009081977F90834FBF9881909336458932C1
:1005800040F52E543F4BF9018081F4E08F9FC0016C
:10059000112480933745909338451092414510922D
:1005A0004345109242451092404510923F451092AB
:1005B0003E4510923D4510923C4510923B451092AD
:1005C0003A4510923945DF91CF910895F0E0E0E08F
:1005D000CBCF8CEF93E0DDCF90913645E09137455E
:1005E000F0913845292F209580FF15C0F89481811E
:1005F000822381838081892B808380E58A95F1F72E
:100600008181982B91837894A9E4B1E01197F1F757
:1006100000C000000895F894818182238183808145
:10062000892B8083A5E8B1E01197F1F700C00000A5
:100630008181982B91837894B8E2BA95F1F7089567
:1006400080913645E0913745F0913845F894908196
:10065000982B90832181382F30952323218398E193
:100660009A95F1F790819323908390E59A95F1F70D
:1006700092817894EDE3F1E03197F1F700C000004A
:10068000982381E009F480E00895FF920F931F936F
:10069000CF93DF93F82E062FC8E0D0E011E081E081
:1006A0009F2D912309F480E097DF110F2197B9F76F
:1006B000011116C0F894E0913745F09138459081CA
:1006C00080913645809589238083E0913745F0916C
:1006D000384591818091364580958923818378942E
:1006E000DF91CF911F910F91FF9008958091364532
:1006F000E0913745F0913845F8949081282F209566
:100700009223908378943DE7315059F190E19A9586
:10071000F1F792819823C1F3F89491819223918308
:100720009081982B90837894AFE3BBE01197F1F719
:1007300000C00000F894908192239083A3EAB1E076
:100740001197F1F700C000009281982381E009F031
:1007500080E07894EBE9F9E03197F1F700C0000010
:10076000089580E00895CF92DF92EF92FF92E0919A
:1007700007442E2F30E0A901440F551F440F551F89
:10078000DA01A95CBF4B61E7C62E6DE3D62E60E7A8
:10079000E62E62E4F62ECD92DD92ED92FC92139756
:1007A000415E5F4B7DECC72E7CECD72E7CE4E72EC0
:1007B00070E4F72EDA01CD92DD92ED92FC92139760
:1007C0002F5F3B4B91E0D9019C93EF5FE09307448F
:1007D000F0E0E85EFF4B8083FF90EF90DF90CF90DA
:1007E0000895FC0155894689252F30E0842F90E03B
:1007F000821B930B541710F0CF960895019708951C
:10080000FC0193898489981761F0A489AE0FBF2FEA
:10081000B11D57968C9194899F5F9F73948B90E044
:1008200008958FEF9FEF0895FC01938984899817AD
:1008300031F08489E80FF11D878990E008958FEFEA
:100840009FEF0895FC0193892489892F90E0805CB3
:100850009F4F821B91098F7399270895CF93DF9340
:10086000EC01E881F9810680F781E02D0995EC859E
:10087000FD85868116828581158280E484838C893A
:100880008B8B1A8ADF91CF9108958F929F92AF92AE
:10089000BF92FF920F931F93CF93DF938C014A0176
:1008A0005B01D22FC32FDC0152968C91529780FFAF
:1008B00007C0ED91FC910288F389E02DC8010995EC
:1008C000D11101C0D3E0FD2EE894F2F8DC2FD095D1
:1008D000D07CB1E68B16B3EE9B06B6E1AB06B10455
:1008E00028F0D260B694A7949794879460E078ED4E
:1008F00088EB95E0A50194010E943725C9012034B9
:10090000310510F480E490E03C2F3B72D7FD306855
:100910004D2F487C30FD41605FB7F894D8011C969C
:10092000ED91FC911682F7828087918735FF8FC009
:100930004F7781E084878FEF85873F7D3583D6832E
:10094000F8012189C08986859785FC0133E0239FC2
:10095000E00DF11D1124659174912C1708F059C018
:10096000272F46FF76C0793288F430E0F901E75747
:10097000FF4BA081AF3F51F02E543F4BF901308126
:1009800020E2329FF0011124FC5FA18347FF2AC0BF
:1009900021E0270F293230F530E0F901E757FF4B0E
:1009A000D081DF3FF9F0F901EE54FF4BA081F0E276
:1009B000AF9FD0011124BC5F25523F4BF90110813C
:1009C000F0E0E0E0183030F49D01205F3F4FF90186
:1009D000E10FF11D3FB7F8941296DC932081286057
:1009E00020833FBF40FF15C023E0270F293288F442
:1009F00030E0F901E757FF4B40814F3F51F02E5453
:100A00003F4BD901EC91B0E2EB9FF0011124FC5F68
:100A10004183FC0123E0C29FE00DF11D11243196BA
:100A200025913491F901FF27EE51FA4F9081832FE0
:100A300080958923682B60835FBFDF91CF911F91E1
:100A40000F91FF90BF90AF909F908F900895148664
:100A500074CF342F307509F499CF793208F096CFDE
:100A600030E0F901E757FF4BD081DF3F09F48ECF2B
:100A7000F901EE54FF4BA081E0E2AE9FD0011124BA
:100A8000BC5F25523F4BF9011081F0E0E0E01830E7
:100A900030F49D01205F3F4FF901E10FF11D3FB799
:100AA000F8941296DC932081286020833FBF6ECF9C
:100AB000FC010FB607FE04C0809111018823A1F04C
:100AC000A485B58514968C91149785FF0DC09589E2
:100AD0008689981739F015968C9115978F7D159604
:100AE0008C930895E894E3C408950F931F93CF93D4
:100AF000DF93EC018A89982F91609A8B2D899E89CA
:100B000029130AC0EC85FD85948195FF05C081FD00
:100B10000DC080E4848312C0062F1D891F5F1F73E0
:100B20008E89811315C0CE01C3DFFACF85818F77FF
:100B3000806490E49483EC85FD858583EC85FD8558
:100B4000628381E090E0DF91CF911F910F91089532
:100B5000ED89EC0FFD2FF11DE95AFF4F00831D8B2E
:100B6000EC85FD858A8981FF09C085818F77806644
:100B700090E49483EC85FD858583E3CF8581806255
:100B8000FBCFEF92FF920F931F93CF93DF938C01D4
:100B90007B01D0E0C0E0F701EC0FFD1F64916623FC
:100BA00031F0C801A2DF892B11F02196F4CFCE01DC
:100BB000DF91CF911F910F91FF90EF900895CF9308
:100BC000DF93EC018A8980FF0BC0EC85FD85858170
:100BD00085FD03C0848186FD03C0CE0169DFF5CFAA
:100BE000DF91CF910895AF92BF92CF92DF92EF92B3
:100BF000FF920F931F93CF93DF936C017B018B01C7
:100C0000040F151FEB015E01AE18BF08C017D10716
:100C100059F06991D601ED91FC910190F081E02DA0
:100C2000C6010995892B79F7C501DF91CF911F91F5
:100C30000F91FF90EF90DF90CF90BF90AF9008950D
:100C400081E008959FB7F894E0912A0BF0912B0B67
:100C50008091260B2091DB433091DC434091DD43B2
:100C60005091DE439FBF80FF08C0EC3E8CE2F80746
:100C700020F42F5F3F4F4F4F5F4F0F0116940794A3
:100C8000169407941694079416940794F0011694FA
:100C90000794E00DF11D16940794102C169401187A
:100CA0001694010C169401181694010C1694011850
:100CB00016941694010C1124E019F109A8EEB3E082
:100CC0000E9490256E0F7F1F811D911D08958F92A8
:100CD0009F92AF92BF92CF92DF92EF92FF924B0121
:100CE0005C01B0DF6B017C01ADDF6C197D098E0901
:100CF0009F09683E734081059105B0F321E0821A97
:100D00009108A108B10888EEC80E83E0D81EE11C46
:100D1000F11C81149104A104B10431F7FF90EF900C
:100D2000DF90CF90BF90AF909F908F900895282F25
:100D300030E096E1899FF0011124E85BFA4B86814F
:100D40009781A085B185892B8A2B8B2B09F43FC015
:100D50004FB7F8948091DB439091DC43A091DD4341
:100D6000B091DE434FBF4289538964897589841BE2
:100D7000950BA60BB70B4681578160857185481787
:100D800059076A077B0758F486859785A089B1893A
:100D90000196A11DB11D86879787A08BB18B4FB798
:100DA000F8948091DB439091DC43A091DD43B091B6
:100DB000DE434FBF46E1429FF001439FF00D1124F7
:100DC000E85BFA4B828B938BA48BB58B0895868559
:100DD0009785A089B1890196A11DB11D8687978746
:100DE000A08BB18B089580E0A2CF81E0A0CFCF92FD
:100DF000DF92EF92FF920F931F93CF93DF93809137
:100E0000004090E025E0959587952A95E1F780953B
:100E100090958370992700EF12E002C01595079511
:100E20008A95E2F7C0917B42D0917C42219722E3E0
:100E300030E0D8010E948A2528E13CEF4FEF5FEFB8
:100E40000E9459252C0F3D1F20939F413093A041B4
:100E500020E030E04AE754E460910E4070910F408A
:100E600080911040909111400E943D240E94D02218
:100E7000012E000C220B330B6B017C01C01AD10A2E
:100E8000E20AF30AA7019601A8EEB3E00E949025BA
:100E900068587341810991092091024030910340C3
:100EA000032E000C440B550B0E94372520939B41C9
:100EB00030939C4140939D4150939E41DF91CF914F
:100EC0001F910F91FF90EF90DF90CF900895DC017C
:100ED000ED91FC910088F189E02D23E030E0099448
:100EE000FB0101900020E9F73197AF01461B570B3A
:100EF0007ACE8F929F92AF92BF92EF92FF920F9312
:100F00001F93CF93DF93CDB7DEB7A197CDBFDEBFE1
:100F10007C01FA01CB0119A2223008F42AE08E01EB
:100F20000F5D1F4F822E912CB12CA12CBF01A5016A
:100F300094010E943725F901CA016A30ECF4605D22
:100F4000D8016E938D01232B242B252B79F790E06C
:100F500080E0109719F0BD01C701C2DFA196CDBF97
:100F6000DEBFDF91CF911F910F91FF90EF90BF9067
:100F7000AF909F908F900895695CE2CF6EE171E42D
:100F8000AFCF0F931F93CF93DF93EC01FADD8C016A
:100F9000CE01F4DF800F911FDF91CF911F910F9150
:100FA0000895DF92EF92FF920F931F93CF93DF93F9
:100FB00020914345211105C0E92ED82E97DB8111E0
:100FC0000FC010924145109243451092424580E077
:100FD000DF91CF911F910F91FF90EF90DF900895D7
:100FE00060E080EF52DBD1E000E0F12CC1E028DBD3
:100FF000182F26DB1130E1F48130C9F5C13408F334
:10100000F0924145F11003C081E080934345809107
:1010100039458823B1F2A9E3B5E4ED2DFE2DCF01CA
:1010200008962D912193E817F907D9F781E0D0CFE1
:10103000E02FF0E0181311C080914145C817A8F4C3
:10104000DF01AA5CBA4B13968C918D2381F410E0DA
:10105000C93010F4C0934245FC2EEA5CFA4B838100
:101060009D2F9095892383830AC08C13F0CFE02FA6
:10107000F0E0EA5CFA4B83818D2B838311E0812FB2
:10108000ABDACF5FDD0F11F40F5FD1E0083008F469
:10109000AECFB4CFCF92DF92EF92FF92CF93DF9398
:1010A0006C01990FEE08FF08F7FE19C06DE288E0A9
:1010B00094E41BDDEC0144275527BA014C195D0966
:1010C0006E097F092AE088E094E413DF8C0F9D1FEE
:1010D000DF91CF91FF90EF90DF90CF9008952AE0BD
:1010E000B701A60188E094E4DF91CF91FF90EF90E3
:1010F000DF90CF90FECE4F925F926F927F928F9251
:101100009F92AF92BF92CF92DF92EF92FF926B01CC
:101110007C01AC019B010E94E82461E271E4811131
:1011200026C046015701E894B7F82FEF3FEF4FE78D
:101130005FE7C501B4010E94E82481110CC02FEFC4
:101140003FEF4FE75FE7C501B4010E945C2265E213
:1011500071E4181664F02FEF3FEF4FE75FE4C7012B
:10116000B6010E94392418168CF469E271E488E013
:1011700094E4FF90EF90DF90CF90BF90AF909F905E
:101180008F907F906F905F904F90AACE2FEF3FEFA0
:101190004FE75FECC701B6010E945C2287FDE5CFF7
:1011A00020E030E0A901C701B6010E945C22B12C09
:1011B000A12C87FF09C06DE288E094E496DC5C0115
:1011C000F7FAF094F7F8F0942AE037ED43EA5BE39E
:1011D000C701B6010E94F8212B013C010E94D022D8
:1011E0006B017C010E9400239B01AC01C301B20191
:1011F0000E94F7212B013C012AE0B701A60188E0FB
:1012000094E477DE7C01EA0CFB1C6DE271E488E07B
:1012100094E466DEE80EF91E20E030E040E251E49E
:10122000C301B2010E943D242B013C010E94D02247
:101230004B01B12CA12C2AE0B501A40188E094E473
:1012400058DEE80EF91EC501B4010E9400239B017F
:10125000AC01C301B2010E94F72120E030E040E27E
:1012600051E40E943D240E94D022AB0170E060E076
:101270002AE088E094E43DDE8E0D9F1DFF90EF9004
:10128000DF90CF90BF90AF909F908F907F906F90A6
:101290005F904F9008950F931F93CF93DF93893200
:1012A00008F07CC090E0DC01A757BF4B2C912F3F8A
:1012B00009F474C08C010E541F4BE801E881D0E2A0
:1012C000ED9FF0011124FC5F611133C02683308152
:1012D0002323AC0145525F4B211111C0EA01288143
:1012E000309749F1283038F57096E20FF11D3FB77D
:1012F000F8942081611122C0277F20833FBFFA012B
:1013000030813F3F09F44AC0E8012881363058F562
:101310003091E605432F4770241312C0EC91E5305D
:1013200008F0EE0F8091010AE095E823E093010AAE
:1013300035C02583CCCFF0E0E0E0D9CF2860DDCF09
:10134000387169F4213079F4EC91E53008F0EE0F52
:101350008091410AE095E823E093410A1FC03831AB
:1013600011F4263089F3805A9F4BFC01808185FF60
:1013700013C030E1839FF0011124F75F91819770D2
:10138000973061F4EC91853270F4803298F48830B3
:10139000E1F2803121F202C08111F4CFDF91CF91CF
:1013A0001F910F910895803471F08038B9F7109231
:1013B000A006F4CF90E1899FF0011124F75F8181AD
:1013C0008F7E8183EBCF8091920B8E2339F3C0E225
:1013D0002C9F900111243C5FE83030F5205F3F4F97
:1013E000E20FF32FF11D4FB7F8949091800B9E7F81
:1013F0009093800B90918E0B90FFFCCF2091920BDD
:1014000090E08095909530E08223932328ED24BFCF
:101410008093920B8091800B81608093800B808100
:101420008F7780834FBFBACFF0E0E0E0DCCFF89455
:10143000E4E7F5E4A081B18111968C9111978C7F3E
:1014400011968C93A081B1818C918F7B8C930190AC
:10145000F081E02D8081808360E08DE01CCFCF9310
:10146000C82FE5DF8C2F24D880E022D8C82F61E078
:101470008DE011DF78948C2FCF910895CF93DF9377
:10148000D82FC62FD4DF8D2F806812D88C2F10D87C
:1014900061E08DE000DF7894DF91CF9108952F9384
:1014A0002FB72F938F939F93AF93BF936894CF934E
:1014B000DF9320E0C485D8E09689DF01A90FB21F31
:1014C000A95ABF4F8C9120E42C838A839F5F9F731E
:1014D0008D812589291302C08F7D8D83968BDF91A5
:1014E000CF910EF001CBBF91AF919F918F912F9132
:1014F0002FBF2F91FF91EF9118952F932FB72F9317
:101500008F939F93CF93DF93C485D8E0898198818F
:1015100081FD0DC0C38981E08C0F8F73248928174A
:1015200031F0CE0FDF2F20E0D21F9F8B838BDF9116
:10153000CF919F918F912F912FBF2F91FF91EF917D
:101540001895FF938F938FB78F93F8E080818481F4
:1015500087FFFCCF85818F7B806885838F918FBFCC
:101560008F91FF91EF911895EF93FF93E8E0F4E4EA
:1015700096CFEF93FF93E8E0F4E4BFCFEF93E0E67C
:10158000E0CFEF93FF93EFE9F4E489CFEF93FF937C
:10159000EFE9F4E4B2CFEF93E0E0D3CF1F920F92E4
:1015A0000FB60F9211248F939F93AF93BF938091A7
:1015B000DB439091DC43A091DD43B091DE43019683
:1015C000A11DB11D8093DB439093DC43A093DD43C9
:1015D000B093DE4381E08093260BBF91AF919F9142
:1015E0008F910F900FBE0F901F9018950F930AE0E8
:1015F0000FC00F9308E00CC00F9306E009C00F93D3
:1016000004E006C00F9302E003C00F9300E000C0A7
:101610000F920FB60F920BB60F921F921124FF92EA
:101620001F932F933F934F935F936F937F938F936A
:101630009F93AF93BF93CF93DF93EF93FF93AFE469
:10164000B0E4A00FB11DCD91DC91000F0D5FA02F74
:10165000B0E0FC90109761F01F2D169518F041F046
:101660002296FBCFE991F9913097B9F30995F5CF1F
:10167000A02FB0E0FC92FF91EF91DF91CF91BF914D
:10168000AF919F918F917F916F915F914F913F911A
:101690002F911F91FF901F900F900BBE0F900FBEC8
:1016A0000F900F9118951F920F920FB60F92112461
:1016B0000BB60F922F923F924F925F926F927F9252
:1016C0008F929F92AF92BF92CF92DF92EF92FF9252
:1016D0000F931F932F933F934F935F936F937F933A
:1016E0008F939F93AF93BF93CF93DF93EF93FF932A
:1016F00081E080930D064090100650901106C09135
:101700007642E2E0EC0F2091164030911740E2174C
:10171000130621F01CF0E1E0EC0FE21BF0E0E85EC4
:10172000FF4B8081809308068091774290917842A8
:10173000A0917942B0917A420196A11DB11D80938A
:10174000774290937842A0937942B0937A42C11144
:101750003DC48091744290917542809372429093FF
:101760007342809146459091474596958795481AD2
:10177000590A409274425092754280917042909101
:101780007142AC015695479556954795841B950B2C
:10179000A20157FE04C04427552744195509840F58
:1017A000951F8093704290937142E0914445F0916F
:1017B000454541E0E817F90708F040E04093BE4393
:1017C000141415040CF08EC041E050E040936E42BA
:1017D00050936F42A0916E42B0916F424091584237
:1017E00050915942A417B50709F481C060919A41FC
:1017F0006F5F60939A4160919A41633030F010922C
:101800009A41A0935A42B0935B426091A341611107
:101810001092A34160905A4270905B42E817F9071A
:1018200008F06BC281E06816710409F0C2C1413052
:10183000510509F4C4C18091A1419091A241019642
:101840008093A1419093A24140910140442309F427
:1018500071C00A9708F46EC0109201401092A14125
:101860001092A241CCE1D2E4ACEEB1E46CEB71E4B5
:1018700044EA51E490E080E082179307DCF5188297
:1018800019821A821B821C821D821E821F82289648
:101890001C9211961C92119712961C9212971396F5
:1018A0001C92139714961C92149715961C921597D8
:1018B00016961C92169717961C9217971896FB016E
:1018C000108211821282138214821582168217826C
:1018D000685F7F4FFA011192119211921192AF013C
:1018E0000196CACF10926E4210926F4273CF10923F
:1018F0009A4181CF109260421092614210926242EE
:1019000010926342109264421092654210926642B5
:101910001092674210925C4210925D4210925E42B9
:1019200010925F4210926A4210926B4210926C4287
:1019300010926D428091A1419091A24140919F41AE
:101940005091A0418417950739F44091014041110D
:1019500003C041E04093BD4340917B4250917C42A3
:101960008417950708F42BC180910140811127C18C
:101970001092A1411092A241CCE1D2E4ACEEB1E4CC
:101980001CEB212E11E4312E64EA71E450E040E0BA
:10199000421753070CF09BC088809980AA80BB80B7
:1019A000CC80DD80EE80FF802896CA01E3E0880FBE
:1019B000991FEA95E1F78C0104571C4BF8018082CE
:1019C0009182A282B382C482D582E682F7828C9011
:1019D00011969C9011971296AC9012971396BC900A
:1019E00013971496CC9014971596DC90159716962D
:1019F000EC9016971796FC90179718968C01045A3E
:101A00001C4BF80180829182A282B382C482D5826B
:101A1000E682F7828E0108501109F80110821182C6
:101A20001282138214821582168217828D01085049
:101A30001109F80110821182128213821482158218
:101A400016821782F10180809180A280B380C480C9
:101A5000D580E680F780F8E02F0E311C8C01045D04
:101A60001C4BF80180829182A282B382C482D5820B
:101A7000E682F782810108501109F8011082118273
:101A8000128213821482158216821782FB018190C2
:101A90009190A190B190BF0175016401FF0CCC0839
:101AA000DC2C760184509D4BFC0180829182A282C5
:101AB000B382C482C582C682C782CB010497FC016F
:101AC00010821182128213824F5F5F4F61CF80912B
:101AD0005C4290915D42A0915E42B0915F42AC0148
:101AE000BD01770F440B542FBA018093E8429093C5
:101AF000E942A093EA42B093EB424093EC42409318
:101B0000ED424093EE424093EF427091604260910B
:101B1000614250916242409163423091644220910F
:101B2000654290916642809167427093F44260935F
:101B3000F5425093F6424093F7423093F842209397
:101B4000F9429093FA428093FB42109260421092C5
:101B5000614210926242109263421092644210926B
:101B60006542109266421092674210925C42109257
:101B70005D4210925E4210925F4280916A42909163
:101B80006B42A0916C42B0916D428093F042909371
:101B9000F142A093F242B093F34210926A42109243
:101BA0006B4210926C4210926D4281E08093BC4374
:101BB00006C0452B21F01092684210926942809134
:101BC0006A4290916B42A0916C42B0916D42019635
:101BD000A11DB11D80936A4290936B42A0936C4209
:101BE000B0936D42809168429091694201968093D2
:101BF0006842909369429201D2010E9475256B015F
:101C00007C01FF0CCC08DC2C76019B01AC016C2D17
:101C10007C2D8C2D9C2DA0906042B0906142C09094
:101C20006242D0906342E0906442F090654200913D
:101C30006642109167420E946A2620936042309368
:101C40006142409362425093634260936442709356
:101C500065428093664290936742C201550CAA0B7D
:101C6000BB0B40915C4250915D4260915E4270912D
:101C70005F42840F951FA61FB71F80935C4290930D
:101C80005D42A0935E42B0935F4260925842709270
:101C90005942809176428F5F809376422091164020
:101CA000309117408217130619F014F01092764203
:101CB000FF91EF91DF91CF91BF91AF919F918F9164
:101CC0007F916F915F914F913F912F911F910F9154
:101CD000FF90EF90DF90CF90BF90AF909F908F904C
:101CE0007F906F905F904F903F902F900F900BBE22
:101CF0000F900FBE0F901F90189540917742509112
:101D000078426091794270917A4280919B419091A2
:101D10009C41A0919D41B0919E4184179507A607D3
:101D2000B70748F480917D42811105C081E080931E
:101D3000BD4380937D4240917742509178426091BB
:101D4000794270917A428091E4429091E542A0916B
:101D5000E642B091E74284179507A607B70708F057
:101D60002ECF1092774210927842109279421092C0
:101D70007A4281E0809301401092A1411092A241E9
:101D8000CCE1D2E41CEE212E11E4312EECEBF1E497
:101D900064EA71E450E040E0421753070CF0C5C01C
:101DA000CA01A3E0880F991FAA95E1F78C01045797
:101DB0001C4BD8011C9211961C92119712961C92E2
:101DC000129713961C92139714961C9214971596BB
:101DD0001C92159716961C92169717961C928C01BA
:101DE000045A1C4BD8011C9211961C921197129602
:101DF0001C92129713961C92139714961C92149788
:101E000015961C92159716961C92169717961C926B
:101E1000188219821A821B821C821D821E821F82D6
:101E20002896D1011C9211961C92119712961C9221
:101E3000129713961C92139714961C92149715964A
:101E40001C92159716961C92169717961C92B8E03E
:101E50002B0E311C80809180A280B380C480D580FD
:101E6000E680F78038968C01045D1C4BD8018C927B
:101E700011969C9211971296AC9212971396BC925F
:101E800013971496CC9214971596DC921597169684
:101E9000EC9216971796FC927F01B8E0EB1AF108C6
:101EA000D7011C9211961C92119712961C921297B0
:101EB00013961C92139714961C92149715961C92C5
:101EC000159716961C92169717961C92DB018D900B
:101ED0009D90AD90BD90BD0175016401FF0CCC08D3
:101EE000DC2C760184509D4BDC018C9211969C92E7
:101EF00011971296AC9212971396BC921397149660
:101F0000CC9214971596CC9215971696CC9216975C
:101F10001796CC92CB010497DC011D921D921D9265
:101F20001C9213974F5F5F4F37CF70916042609163
:101F300061425091624240916342309164422091EB
:101F4000654290916642809167427093F44260933B
:101F5000F5425093F6424093F7423093F842209373
:101F6000F9429093FA428093FB42109260421092A1
:101F70006142109262421092634210926442109247
:101F80006542109266421092674280915C42909145
:101F90005D42A0915E42B0915F42AC01BD01770FFE
:101FA000440B542FBA018093E8429093E942A093E6
:101FB000EA42B093EB424093EC424093ED424093AF
:101FC000EE424093EF42D1CD1082B0C0D0E02C174A
:101FD0003D070CF45ECE2197FE01EF5FFB4B1E0127
:101FE000220C331CB6E04B16510474F381E080835D
:101FF000809146459091474596958795F101E45B20
:10200000FD4B60807180681A790A4E0133E0880CBC
:10201000991C3A95E1F7F401E45EFD4BA091724200
:10202000B091734293010E9475256B017C01FF0CF6
:10203000CC08DC2C76019B01AC016C2D7C2D8C2D09
:102040009C2DA080B180C280D380E480F580068181
:1020500017810E946A2620833183428353836483DD
:10206000758386839783F401E451FE4BA0917442FB
:10207000B091754293010E9475256B017C01FF0CA4
:10208000CC08DC2C76019B01AC016C2D7C2D8C2DB9
:102090009C2DA080B180C280D380E480F580068131
:1020A00017810E946A26208331834283538364838D
:1020B000758386839783F401E454FE4B9301D30127
:1020C0000E9475256B017C01FF0CCC08DC2C76018D
:1020D0009B01AC016C2D7C2D8C2D9C2DA080B180A2
:1020E000C280D380E480F580068117810E946A2631
:1020F00020833183428353836483758386839783EC
:10210000CC0FDD1FCC0FDD1FCC55DE4BC301770C90
:10211000AA0BBB0B488159816A817B81840F951F73
:10212000A61FB71F88839983AA83BB83F101E45B51
:10213000FD4B40825182ADCDCF93DF9310920A4484
:1021400010920B4448EE53E060E070E040930C4482
:1021500050930D4460930E4470930F4428E031E493
:10216000209308443093094480E698E08093144417
:102170009093154485E494E080931644909317441B
:1021800082E0809318441092194410921A441092DD
:10219000A1441092A2444093A3445093A44460935A
:1021A000A5447093A64420939F443093A04420E01C
:1021B00038E02093AB443093AC442EE434E02093D9
:1021C000AD443093AE448093AF441092B04410922B
:1021D000B144109248451092494533E030934C4544
:1021E00021E020934D458EE690E0A0E0B0E08093A2
:1021F0004E4590934F45A0935045B0935145109252
:1022000052451092534510925445109255451092E4
:1022100056451092574510925845109259451092C4
:102220005E4510925F4530936245209363458093ED
:10223000644590936545A0936645B09367451092B9
:1022400068451092694510926A4510926B4510924C
:102250006C4510926D4510926E4510926F4581E06D
:1022600090E000905E4002C0880F991F0A94E2F748
:10227000809346459093474525E0969587952A9506
:10228000E1F7809344459093454580915D400E94DD
:10229000920280E040E05BE167EB70E07695679545
:1022A000579547958F5F863011F487E007C041301E
:1022B00099E059079DE36907710580F734E0309391
:1022C000804521E0982F916280958170C82F80E031
:1022D000D82F84E0CC0FDD1F8A95E1F7C92BC0937E
:1022E0007F4580E499E080937445909375453093E1
:1022F000774586E08093784510927A4510927B4529
:102300002093814582ED809382458FE080938345C1
:102310002093844589E180938545DF91CF9108958D
:10232000CF93DF93CDB7DEB7CC59D109CDBFDEBF98
:1023300088ED94E284BF9093680021E02093030A23
:102340008EEF8093260A8093270A9BE09093000AE1
:1023500032E03093E6052093430A8093660A809327
:10236000670A9093400A9093E705E0E0FBE027E0DE
:102370009EEF85E021839487158680837096E034F4
:102380000BE0F007B9F72FEF3FE02093AA0B309353
:10239000AB0B90E89093820B1092810B2BEF33E004
:1023A0002093AE0B3093AF0B91E79093800B80930B
:1023B00002069EE09093050690E6909303068093B4
:1023C00000068091B000887F85608093B000809186
:1023D000B200887F85608093B2008FED9EE280938B
:1023E0002C0B90932D0B81E08093250B1092210BE9
:1023F00083E08093200B789484E08093210461E053
:102400008AE00E944B099FB7F89480E18093020410
:10241000809114048860809314049FBF9FB7F89440
:1024200080E28093020480911504886080931504F3
:102430009FBF40E052EC61E070E088E094E40E94CD
:1024400067078091080484FD05C0809183458F5FF4
:102450008093834562EB73E088E094E40E94C107B7
:1024600061E08DE00E944B0980E28093210480911D
:102470007B45811118C010927A458EE08093774594
:1024800080E18093784580E699E08093744590934D
:10249000754510927C4510927E4580E880937D457D
:1024A00081E080937B45A0917445B09175459091F2
:1024B0007A458091E405A03419E0B10709F0DAC14A
:1024C0008C7F892B8093E40520917845822F90E0C2
:1024D000293280F4FC01E757FF4B20812F3F51F058
:1024E0008E549F4BFC01908100E2909FF0011124DB
:1024F000FC5F218320917745822F90E0293280F480
:10250000FC01E757FF4B20812F3F51F08E549F4B2A
:10251000FC01908100E2909FF0011124FC5F218377
:1025200011968C911197846011968C93E09174456B
:10253000F091754580818162808390917F45809183
:102540008045E0917445F09175459083E091744524
:10255000F09175458183E0917445F09175458081D6
:102560008F7B8083E0917445F091754581818C7FEC
:102570008183E0917445F0917545808180836AEA9A
:102580008FE20E943E0A8FE20E942F0A8A3AB9F730
:1025900065E58FE20E943E0A8FE20E942F0A853590
:1025A000B9F764E081E00E943E0A60E082E00E94A8
:1025B0003E0A62E083E00E943E0A6AE884E00E94EC
:1025C0003E0A62E085E00E943E0A61EE86E00E94DB
:1025D0003E0A60E28BE00E943E0A6AE489E10E94C2
:1025E0003E0A62E48AE10E943E0A69E981E10E94B2
:1025F0003E0A6CE28EE10E943E0A60E885E20E949B
:102600003E0A67E086E20E943E0A68EC89E20E9488
:102610003E0A65E08DE20E943E0A68E88EE20E9472
:102620003E0A6DE28FE20E943E0A60ED87E30E945F
:102630003E0A62E488E30E943E0A6FE88CE30E944F
:102640003E0A62E18DE30E943E0A60E28FE60E944C
:102650003E0A62E081E70E943E0A69EA73E088E090
:1026600094E40E94C10561EA73E088E094E40E946A
:10267000C1056AE973E088E094E40E94C10561E95C
:1026800073E088E094E40E94C1054091824550E0E7
:1026900070E060E02AE088E094E40E94790769E84D
:1026A00073E088E094E40E94C1054091834550E0C6
:1026B00070E060E02AE088E094E40E94790767E82F
:1026C00073E088E094E40E94C10760E08AE00E9421
:1026D0004B098CE090E080935E4090935F408DE1E9
:1026E00090E0809302409093034080E090E18093DB
:1026F00046459093474580E890E080934445909309
:1027000045458FE692E1A3E8BFE3809304409093B0
:102710000540A0930640B0930740109218408AE00D
:1027200097EFA9E4B4E48093124090931340A093F0
:102730001440B093154083E00E94B30384E00E94EC
:10274000B30385E00E94B30386E00E94B30388E0F0
:102750000E94B30389E00E94B30386E696E6A6EEE4
:10276000BFE380930E4090930F40A0931040B0932E
:1027700011408AE590E080937B4290937C4284E70D
:1027800092EFA0E0B0E08093E4429093E542A09302
:10279000E642B093E7420E94F70680E090E0A0E7AF
:1027A000B3E480930A4090930B40A0930C40B09305
:1027B0000D4011E0109348451093494586E0809301
:1027C0004C4580934D4584E690E0A0E0B0E08093D6
:1027D0004E4590934F45A0935045B09351458CE0A2
:1027E00080935D408BE08093084088E080932104D3
:1027F00061E08BE00E944B098FE58093004086E802
:1028000095E48093804290938142109286458FEDAB
:1028100093E480937E4290937F4283E080930940CB
:1028200080915D400E9492021093834220E030E04C
:1028300040E85FE360910E4070910F40809110403E
:10284000909111400E945C2287FF03C08FE180932A
:1028500000400091004090910940E0917E42F0914B
:102860007F4280E020E335E7981731F021933193E0
:102870008F5FFACF837F25CE10924145109243455A
:10288000109242451092404510923F4510923E45AD
:1028900010923D4510923C4510923B4510923A45AE
:1028A0001092394510928242CE0101960E94D107C2
:1028B000882349F089818832B9F7809182428F5FFD
:1028C00080938242F1CF8091094090918242891792
:1028D00010F480938242E0918042F09181428081A5
:1028E0008832A9F010E080918242181780F428E025
:1028F000129FC00111242091804230918142820FA9
:10290000931F0E94D107882311F01F5FECCF0E9414
:10291000760360E08CEC0E94450360E08EE40E9448
:10292000450360E080E00E94450360E080E00E9493
:10293000450360E0802F0E9445030E94760360E01B
:102940008CEC0E94450361E088E40E94450364E149
:1029500070E080E090E00E9467060E94F706809198
:102960000744882381F0282F30E0209316403093CD
:1029700017408F5F90E0863030F4FC01EF5FFB4B37
:1029800010820196F8CFC0900440D0900540E090AE
:102990000640F0900740CEAADFAAE8AEF9AE6091FB
:1029A00046457091474590E080E00E9400236AAF61
:1029B0007BAF8CAF9DAF209112403091134040917E
:1029C000144050911540C701B6010E943D242AAD24
:1029D0003BAD4CAD5DAD0E9463226093124070939D
:1029E00013408093144090931540E0901640F0906F
:1029F0001740EEAEFFAE00910240109103409701E8
:102A00002F5F3F4F209FC001219F900D309F900D61
:102A100011242FE130E426962EAF3FAF26974CE9E4
:102A200052E44AAB5BAB6CEC72E424966EAF7FAFC2
:102A30002497A4EBB2E4AEA7BFA71801E7E3F0E444
:102A4000EAA3FBA31AA61BA66C01990FEE08FF08C8
:102A50002C96CCAEDDAEEEAEFFAE2C97EEACFFAC5E
:102A6000CAA4DBA4CE14DF040CF0B6C0AAA1BBA19B
:102A70002D913D914D915C916EA97FA988AD99AD45
:102A80000E943D242AAD3BAD4CAD5DAD0E9463225A
:102A9000EAA1FBA16193719381939193EAA3FBA3B4
:102AA0002C966CAD7DAD8EAD9FAD2C970E94022310
:102AB0002BED3FE049EC50E40E943D2420E030E063
:102AC00048E452E40E943D2420E034E244E759E423
:102AD0000E9463224B015C012696AEADBFAD2697E6
:102AE0004D905D906D907D902696AEAFBFAF2697CE
:102AF000F6013196EAA7FBA7B101032C000C880B65
:102B0000990B0E94022320E030E048E452E40E9446
:102B10003D2420E034E244E759E40E9463226B0143
:102B20007C0120E030E044EB53E4C301B2010E9499
:102B300063229B01AC01C701B6010E94F8212BED75
:102B40003FE049EC50E40E943D242B013C010E94EF
:102B5000A0246B017C01C501B4010E94A0249B014B
:102B6000AC01C701B6010E9463226B017C01AEA5D6
:102B7000BFA5CD92DD92ED92FD92AEA7BFA7C30196
:102B8000B2010E9460222B013C01C501B4010E94E8
:102B900060229B01AC01C701B6010E943D249B014C
:102BA000AC01C301B2010E94F7212496EEADFFAD46
:102BB000249761937193819391932496EEAFFFAF25
:102BC0002497AAA9BBA91D921D921D921D92AAAB82
:102BD000BBAB200E311E42CF83EF96E080934A4577
:102BE00090934B4585EF96E08093604590936145C7
:102BF00081E08093014010927742109278421092C7
:102C0000794210927A429EE09093050690910306D5
:102C1000909303061092B00096E090930206809382
:102C20000006909100069093000690910006926035
:102C3000909300061092080690910C069160909374
:102C40000C0680930A067894C0900E40D0900F40F6
:102C5000E0901040F090114020E030E048E452E471
:102C6000C701B6010E943D240E94D02260937B429E
:102C700070937C421092BC4320E034E244E759E474
:102C8000C701B6010E943D246B017C0160910240A6
:102C900070910340072E000C880B990B0E940223B1
:102CA0009B01AC01C701B6010E9463220E94D022A1
:102CB0006093E4427093E5428093E6429093E7424A
:102CC00008E415E4F12CF80180818823A9F124811E
:102CD000822F90E0293220F5FC01E757FF4B20813D
:102CE0002F3FF1F0FC01EE54FF4BA081F0E2AF9FCB
:102CF000D0011124BC5F85529F4BFC013081F0E074
:102D0000E0E0383028F4CD014096FC01E30FF11DDE
:102D10009FB7F89412962C938081886080839FBF20
:102D200065EF76E080916345F11004C063EF76E0D3
:102D300080914D450E9463020A5E1F4FF1E0FF1231
:102D400089C01092E5431092E6431092E743109237
:102D5000E8436AE673E08FE994E40E94C10540917C
:102D6000824250E070E060E02AE08FE994E40E9443
:102D7000790764E371E48FE994E40E94700740915D
:102D8000094050E070E060E02AE08FE994E40E949E
:102D9000790780918242882309F45FC066E573E079
:102DA0008FE994E40E94C107F12CE12CB12CA12CF5
:102DB000809182428A151B0409F00CF44EC0D12C7C
:102DC000C12C00918042109181420E0D1F1D0C0DEF
:102DD0001D1DD8018C91803130F464E573E08FE9DA
:102DE00094E40E94C105F801408150E070E060E089
:102DF00020E18FE994E40E94790762E573E08FE9AE
:102E000094E40E94C105FFEFCF1ADF0A08E0C01664
:102E1000D104B9F6E0918042F0918142EE0DFF1DA0
:102E20008681833031F467E373E08FE994E40E9494
:102E3000C1058FE994E40E94BE0765E070E080E080
:102E400090E00E9467061FEFA11AB10A28E0E20E87
:102E5000F11CAECFFF24F39436CF8FE994E40E94A7
:102E6000BE076CE173E08FE994E40E94C105809194
:102E700083426FE271E4882311F060E271E48FE92C
:102E800094E40E94700762E173E08FE994E40E9489
:102E9000C1078FE994E40E94BE0765E070E080E01E
:102EA00090E00E946706AE01465F5F4F48A359A3BA
:102EB0000C94482108E415E4F12CE12C76E1D72E9E
:102EC000F8018181882309F478C080818823D1F1B9
:102ED0008481893228F590E0FC01E757FF4B40815F
:102EE0004F3FF1F0FC01EE54FF4B2081F0E22F9FA9
:102EF000900111243C5F85529F4BDC018C91F0E0E6
:102F0000E0E0883020F4F9017096E80FF11D9FB7DA
:102F1000F894D90112964C938081886080839FBF7A
:102F200063EF76E080914D45E114F10421F065EF07
:102F300076E0809163450E9463023FC0EE24E394F3
:102F4000F12CBECF85818932A8F590E0FC01E552D5
:102F5000FF4B40814F3F71F18E549F4BDC018C91B0
:102F6000E82FE295EE0FE07EE40FF0E0E05FFB4F2C
:102F70009081917F908390E0FC0134E0EE0FFF1F81
:102F80003A95E1F7242F30E061E070E002C0660F6F
:102F9000771F4A95E2F76383880F991FFC01E15B75
:102FA000FF4B220F331F0190F081E02DE20FF31F42
:102FB00010821182D80111961C92DE9CF001DF9CD8
:102FC000F00D1124E85BFA4B86859785A089B189BD
:102FD000892B8A2B8B2BC9F046855785608971898F
:102FE000D8011A968D909D90AD90BC901D97480D7C
:102FF000591D6A1D7B1D1A964D935D936D937C93AD
:103000001D9716861786108A118A0A5E1F4FEA944A
:10301000EF2809F093CF78942091F4423091F54253
:103020004091F6425091F7426091F8427091F94216
:103030008091FA429091FB424090F0425090F142D0
:103040006090F2427090F3421091E8420091E942A0
:103050003090EA422090EB42C090EC42CAA6D09059
:10306000ED42DEA6E090EE42EAAAF090EF42FEAA20
:10307000C090E842CAAED090E942DEAEE090EA42AB
:103080002396EFAE2397F090EB422596FFAE25975F
:10309000C090EC422996CFAE2997D090ED422D9664
:1030A000DFAE2D97E090EE422F96EFAE2F97F09087
:1030B000EF426196FFAE6197C090F042D090F1422E
:1030C000E090F242F090F342CAA2DBA2ECA2FDA291
:1030D0008090F0429090F142A090F242B090F34282
:1030E0000E943D236B017C01C301B2010E940223B7
:1030F0009B01AC01C701B6010E9463226B017C01F8
:10310000212F302F432D522D6AA57EA58AA99EA975
:103110000E94FC222B013C012AAD3EAD23964FAD0F
:10312000239725965FAD259729966FAD29972D9604
:103130007FAD2D972F968FAD2F9761969FAD61979D
:103140000E94FC229B01AC01C301B2010E943D24FC
:103150002B013C016AA17BA18CA19DA10E940223AD
:103160009B01AC01C301B2010E9463222B013C010F
:10317000C501B4010E9402239B01AC01C301B2014D
:103180000E9463229B01AC01C701B6010E94F72196
:103190000E94AA24E0901240F09013400091144045
:1031A00010911540EAAAFBAA0CAB1DABA801970130
:1031B0000E943D246093D7437093D8438093D943B2
:1031C0009093DA4300911640109117400EAB1FAB5D
:1031D000C090F042D090F142E090F242F090F34281
:1031E0006091E4427091E5428091E6429091E7421D
:1031F0000E9400234B015C01D8011196A7019601A2
:103200000E949A250E9402239B01AC01C501B401D2
:103210000E9463226AAF7BAF8CAF9DAF8091464521
:1032200090914745969587956C01F12CE12C00E033
:1032300010E098018AA3DBA2ECA2FDA20EA31FA3BB
:1032400028A739A7D090BE43A996DFAEA997E090F2
:103250000A40F0900B4000910C4010910D40AD964B
:10326000ECAEFDAE0EAF1FAFAD9700910E401091CA
:103270000F40209110403091114028960CAF1DAFA7
:103280002EAF3FAF289724E832E42AA73BA74FEBA5
:1032900053E42E964EAF5FAF2E9767E370E46096CF
:1032A0006EAF7FAF609784EB92E42A968EAF9FAFAC
:1032B0002A97ACECB2E42496AEAFBFAF2497ECE90A
:1032C000F2E4EEA7FFA7312C212CCEA8DFA82C1406
:1032D0003D040CF0DFC3910103E0220F331F0A9578
:1032E000E1F7D901A457BC4BDC90AE96DFAEAE97A8
:1032F0001196EC901197AF96EFAEAF971296FC90A7
:103300001297E096FFAEE09713960C911397E19613
:103310000FAFE19714961C911497E2961FAFE297B6
:1033200015964C911597E3964FAFE39716965C91DF
:103330001697E4965FAFE49717966C91E5966FAF9A
:10334000E5972496EEADFFAD249781919191A191DF
:10335000B1912496EEAFFFAF249764968CAF9DAFEA
:10336000AEAFBFAF6497D901A45ABC4BFC91E696AF
:10337000FFAFE6971196CC901197E796CFAEE797FF
:103380001296DC901297E896DFAEE8971396EC90D1
:103390001397E996EFAEE9971496FC901497EA9686
:1033A000FFAEEA9715960C911597EB960FAFEB973A
:1033B00016961C911697EC961FAFEC9717964C91AA
:1033C000ED964FAFED972A96AEADBFAD2A976D91B2
:1033D0007D918D919D912A96AEAFBFAF2A97689649
:1033E0006CAF7DAF8EAF9FAF6897C090F042D0902A
:1033F000F142E090F242F090F3426C96CCAEDDAE3A
:10340000EEAEFFAE6C97D090E842EE96DFAEEE9750
:10341000E090E942EF96EFAEEF97F090EA42C158A4
:10342000DF4FF882CF57D0400091EB42C058DF4FBA
:103430000883C058D0401091EC42CF57DF4F18831B
:10344000C158D0404091ED42CE57DF4F4883C2581B
:10345000D0405091EE42CD57DF4F5883C358D040F3
:103460006091EF42CC57DF4F6883C458D040890148
:1034700004501D4BD801BC91CB57DF4FB883C558C2
:10348000D040F801F181CA57DF4FF883C658D040C9
:10349000D8011296BC91C957DF4FB883C758D040A6
:1034A000F801F381C857DF4FF883C858D040D801DE
:1034B0001496BC91C757DF4FB883C958D040F80164
:1034C000F581C657DF4FF883CA58D040D801169609
:1034D000BC91C557DF4FB883CB58D040F801F78176
:1034E000C457DF4FF883CC58D040C090F042D09002
:1034F000F142E090F242F090F342A096CCAEDDAE05
:10350000EEAEFFAEA0974091F0425091F142609133
:10351000F2427091F342A4964CAF5DAF6EAF7FAFB5
:10352000A4976096AEADBFAD60976D917D918D9182
:103530009D916096AEAFBFAF609722966CAF7DAFA6
:103540008EAF9FAF2297F901E45DFC4B2081318162
:103550004281538164817581868197818090F04298
:103560009090F142A090F242B090F342F801F081C5
:10357000C357DF4FF883CD58D040D8011196BC9186
:10358000C257DF4FB883CE58D040F801F281C157FF
:10359000DF4FF883CF58D040D8011396BC91C05765
:1035A000DF4FB883C059D040F801F481CF56DF4FC8
:1035B000F883C159D040D8011596BC91CE56DF4F43
:1035C000B883C259D040F801F681CD56DF4FF88359
:1035D000C359D040D8011796BC91CC56DF4FB88361
:1035E000C459D040F801F081CB56DF4FF883C5595C
:1035F000D040D8011196BC91CA56DF4FB883C65946
:10360000D040F801F281C956DF4FF883C759D04046
:10361000D8011396BC91C856DF4FB883C859D04023
:10362000F801F481C756DF4FF883C959D040D8015B
:103630001596BC91C656DF4FB883CA59D040F801E1
:10364000F681C556DF4FF883CB59D040D801179685
:10365000BC91C456DF4FB883CC59D0404090F04263
:103660005090F1426090F2427090F342C090F0426C
:10367000D090F142E090F242F090F342A896CCAEA6
:10368000DDAEEEAEFFAEA897F8D76B017C01C501A9
:10369000B401B8D79B01AC01C701B60114D76B01C7
:1036A0007C01C357DF4F2881CD58D040C257DF4F30
:1036B0003881CE58D040C157DF4F4881CF58D040D5
:1036C000C057DF4F5881C059D040CF56DF4F688177
:1036D000C159D040CE56DF4F7881C259D040CD5627
:1036E000DF4F8881C359D040CC56DF4F9881C459F1
:1036F000D04082D74B015C01CB56DF4F2881C559A2
:10370000D040CA56DF4F3881C659D040C956DF4F26
:103710004881C759D040C856DF4F5881C859D0405A
:10372000C756DF4F6881C959D040C656DF4F7881F0
:10373000CA59D040C556DF4F8881CB59D040C456B6
:10374000DF4F9881CC59D04057D79B01AC01C501C0
:10375000B4010E943D244B015C01C301B20152D768
:103760009B01AC01C501B401AED64B015C01A8962A
:103770006CAD7DAD8EAD9FADA89744D79B01AC01DC
:10378000C501B401A0D69B01AC01C701B6012FD67B
:103790000E94AA242B013C01D8012C9111963C9146
:1037A000119712964C91129713965C911397149659
:1037B0006C91149715967C9115971696FC91169717
:1037C0001796EC91E090F042F090F1420091F242B5
:1037D0001091F342D801C701BB0F880B982FDC0171
:1037E00057016801E82EF82E082F182F8F2F9E2FD3
:1037F0000E94A225AAA0BBA0CCA0DDA0EEA0FFA0A5
:1038000008A519A50E946A26F7D62E96EEADFFAD43
:103810002E9761937193819391932E96EEAFFFAFA4
:103820002E97AEA5BFA5CD90DD90ED90FC90A9960A
:10383000BFADA997BB2309F41DC1AE962FADAE97BE
:10384000AF963FADAF97E0964FADE097E1965FAD95
:10385000E197E2966FADE297E3967FADE397E4964A
:103860008FADE497E5969FADE597C6D664962CADEF
:103870003DAD4EAD5FAD64970E943D244B015C01B0
:10388000E6962FADE697E7963FADE797E8964FAD02
:10389000E897E9965FADE997EA966FADEA97EB9600
:1038A0007FADEB97EC968FADEC97ED969FADED97D6
:1038B000A3D668962CAD3DAD4EAD5FAD6897DDD714
:1038C0009B01AC01C501B40193D54B015C016C9621
:1038D0006CAD7DAD8EAD9FAD6C9794D69B01AC0168
:1038E000C501B401F0D54B015C01EE962FADEE970A
:1038F000EF963FADEF97C158DF4F4881CF57D0408B
:10390000C058DF4F5881C058D040CF57DF4F688133
:10391000C158D040CE57DF4F7881C258D040CD57E4
:10392000DF4F8881C358D040CC57DF4F9881C458AF
:10393000D04062D62B013C01CB57DF4F2881C558C0
:10394000D040CA57DF4F3881C658D040C957DF4FE3
:103950004881C758D040C857DF4F5881C858D04019
:10396000C757DF4F6881C958D040C657DF4F7881AD
:10397000CA58D040C557DF4F8881CB58D040C45774
:10398000DF4F9881CC58D04037D69B01AC01C301A2
:10399000B20173D72B013C01A0966CAD7DAD8EAD0D
:1039A0009FADA0972FD69B01AC01C301B2018BD56F
:1039B0002B013C01A4966CAD7DAD8EAD9FADA4975F
:1039C00021D69B01AC01C301B2017DD59B01AC01A5
:1039D000C501B4010CD52AA93BA94CA95DA94DD7B5
:1039E00022962CAD3DAD4EAD5FAD229746D72896C1
:1039F0002CAD3DAD4EAD5FAD28973FD72AAD3BAD69
:103A00004CAD5DAD60D5A7019601F2D46B017C0190
:103A100020E030E041E655E456D5BDD5EAA5FBA54A
:103A20000191119121913191EAA7FBA73497072EBB
:103A3000000C880B990B060F171F281F391F0083D6
:103A4000118322833383DED520E030E041E655E464
:103A500014D79B01AC01C701B601C9D4AEA5BFA55F
:103A60006D937D938D939D93AEA7BFA7BFEF2B1A48
:103A70003B0A2BCCA301920122966CAD7DAD8EAD9D
:103A80009FAD2297FAD6AD962CAD3DAD4EAD5FAD54
:103A9000AD97ACCF80918342882309F4EAC0F12C22
:103AA00016E0E12E80918242F816B8F0909109401C
:103AB000282F30E0220F331FE0917E42F0917F42A9
:103AC000E20FF31F891708F0CDC020E3C22E25E7CF
:103AD000D22EC192D1928F5FF5CF2DEC3CEC4CE40D
:103AE0005EE360910E4070910F4080911040909184
:103AF0001140E2D40F2D10E087FF10C0000F111FFE
:103B0000E0917E42F0917F42E00FF11FA0ECCA2EBF
:103B1000A6E7DA2EC082D182F394C4CF0E94760346
:103B2000882361F3580163E0AA0CBB1C6A95E1F796
:103B3000E0918042F0918142EA0DFB1D8081882353
:103B4000E9F260E085E50E944503D12CC12CE091AB
:103B50008042F0918142EA0DFB1DEC0DFD1D60E0FD
:103B600080810E9445032FEFC21AD20A38E0C316A3
:103B7000D10469F760E08EEB0E944503AE014F5F10
:103B80005F4F6A015A0158E0852E912C712C6624F2
:103B900063940E94200381117628660C51E0851AF7
:103BA0009108B9F7D5017D925D01E8A1F9A1AE17A1
:103BB000BF0749F799E0E0E0915099F0D6018D9167
:103BC0006D018E27E82FEF70F0E0E753FC4F249152
:103BD000E82FE295EF70F0E0E752FC4FE491E22726
:103BE000EBCF89858E1335C029813A81E29EC001D1
:103BF000E39E900D11243595279535952795820FD5
:103C0000931F2D81211102C080EC96E72F812C306B
:103C100021F48433B1E29B07F9F0803CE6E79E078C
:103C200031F09C0124583A4E21353644C0F4000F3F
:103C3000111F20917E4230917F42020F131FD80145
:103C40008D939C9361E070E080E090E00E946706B5
:103C500063CF80EC96E7D5CF80EC96E7E8CF88EF8E
:103C600095E7E5CF60E0809108400E944B091092F3
:103C70007D42D090BE43DAA22D2C312C8091E543B9
:103C80009091E643A091E743B091E8430196A11DCE
:103C9000B11D8093E5439093E643A093E743B0932F
:103CA000E8436091BF437091C0438091C1439091BC
:103CB000C24371D42B016093EB437093EC4360914A
:103CC000C3437091C4438091C5439091C64363D46C
:103CD0004B016093ED437093EE436091C743709145
:103CE000C8438091C9439091CA4355D46AA77BA722
:103CF0008CA79DA76093EF437093F0436091CB43F3
:103D00007091CC438091CD439091CE4344D46EA723
:103D10007FA788AB99AB6093F1437093F2436091B6
:103D2000CF437091D0438091D1439091D24333D40B
:103D30006B016093F3437093F4436091D3437091AC
:103D4000D4438091D5439091D64325D46093F543D5
:103D50007093F6430FE9401A07E0500A31E020E083
:103D600015E94116510408F030E0032F122F2FE916
:103D7000821A27E0920A35E98316910410F40F5F46
:103D80001F4F2AA53BA52F5937402539310510F47F
:103D90000F5F1F4F2EA53FA52F59374025393105FD
:103DA00010F40F5F1F4F4FE9C41A47E0D40A55E9DA
:103DB000C516D10410F40F5F1F4F6F597740653956
:103DC000710510F40F5F1F4F20E030E048EC52E423
:103DD0006091D7437091D8438091D9439091DA4351
:103DE0004CD5D9D36093E9437093EA437B01A1EFAB
:103DF000EA1AA5E5FA0ACC24C394D12CBFE9EB1644
:103E0000BFE0FB0610F0D12CC12C8091DF439091D4
:103E1000E0438093F7439093F8438091E14390917E
:103E2000E2438093F9439093FA438091E343909166
:103E3000E4438093FB439093FC43809152459091DF
:103E40005345A0915445B09155458093FD439093BF
:103E5000FE43A093FF43B0930044809184458823A0
:103E600009F4FAC08CE1E5EEF3E4DE01119601906D
:103E70000D928A95E1F7709085458091814560901B
:103E800083455090824569ED823021F0833009F0FE
:103E90004DC064EE87E00E943E0A60E088E00E9428
:103EA0003E0A60E089E00E943E0A8FB7F894809055
:103EB000DB439090DC43A090DD43B090DE438FBFA6
:103EC00081E00E942F0A837E682F606181E00E945A
:103ED0003E0A2FB7F8948091DB439091DC43A09188
:103EE000DD43B091DE432FBF88199909AA09BB09A8
:103EF0000597A105B10500F587E20E942F0A87FF0B
:103F0000FBCF61E083E20E943E0A83E20E942F0A17
:103F100081FFFBCF84E20E942F0A833C68F48DE38B
:103F20000E942F0A682F64608DE3D1CF6CE687E092
:103F30000E943E0A60E8B2CF81E00E942F0A682FFB
:103F4000637E81E00E943E0A88E20E942F0A80750B
:103F500021F080E00E942F0AF7CF652D80E30E94B8
:103F60003E0A60E085E20E943E0A1F8E1E8EE0E15E
:103F70005E9EC00111245826B12CF62DFF736F2EC2
:103F80008F8D843008F03FC088E20E942F0A87FDA1
:103F9000F7CF8F8D813079F030F08230F1F08330BF
:103FA00001F16AEA04C08F8D8F5F8F8F6EE180E030
:103FB0000E943E0AE5CF5D8E2D8D8D8D44E0249FBD
:103FC000900111248227807C8D8F6E8D8D8D6F7373
:103FD000682B8F8D8F5F8F8FEACF6E8D607C662907
:103FE000F8CF81E08B0DE1E0F0E0EC0FFD1FEB0D71
:103FF000F11D6081B82E8C31D1F68F8D8F5F8F8F40
:104000008CE1B82ED4CF672D6F71606881E10E947A
:104010003E0A81E00E942F0A837E682F6C6081E057
:104020000E943E0A88E20E942F0A83FD07C061E0D9
:1040300070E080E090E00E946706F4CF81E00E948B
:104040002F0A682F637E81E00E943E0A62E370E0DF
:1040500080E090E00E94670660E474E088E094E409
:104060000E94C1054091E5435091E6436091E743CA
:104070007091E8432AE088E094E40E94790769E3BC
:1040800074E088E094E40E94C1056091E943709176
:10409000EA43072E000C880B990BB4D22AE037EDC7
:1040A00043E25CE3EAD30E947B0864E374E088E0C7
:1040B00094E40E94C1058091EB439091EC430E94EF
:1040C0004A086FE274E088E094E40E94C1058091A0
:1040D000ED439091EE430E944A086AE274E088E062
:1040E00094E40E94C1058091EF439091F0430E94B7
:1040F0004A0865E274E088E094E40E94C10580917A
:10410000F1439091F2430E944A0860E274E088E033
:1041100094E40E94C1058091F3439091F4430E947E
:104120004A086BE174E088E094E40E94C105809144
:10413000F5439091F6430E944A08A090F743B0904F
:10414000F84350E3A51655E7B50691F066E174E033
:1041500088E094E40E94C105B501BB0C880B990B63
:1041600051D22AE037ED43E25CE387D30E947B081B
:10417000A090F943B090FA4360E3A61665E7B6064F
:1041800091F061E174E088E094E40E94C105B5011A
:10419000BB0C880B990B36D22AE037ED43E25CE387
:1041A0006CD30E947B08A090FB43B090FC4370E36B
:1041B000A71675E7B70691F06CE074E088E094E428
:1041C0000E94C105B501BB0C880B990B1BD22AE0DC
:1041D00037ED43E25CE351D30E947B0864E074E076
:1041E00088E094E40E94C1054091FD435091FE4354
:1041F0006091FF43709100442AE088E094E40E94BB
:1042000079076BEF73E088E094E40E94C105C10177
:104210000E944A0863EF73E088E094E40E94C105BD
:10422000C6010E944A0869EE73E088E094E40E94A7
:10423000C105C8010E944A0888E094E40E94BE07B4
:1042400068E270E080E090E00E946706CAA0CC209F
:1042500009F4C1C02FE9E2162FE0F20608F0BBC056
:104260000630110509F0B7C060E08AE00E944B09F2
:1042700062E370E080E090E00E94670661E08AE01F
:104280000E944B0964E170E080E090E00E946706C4
:104290008091BD43882369F11092BD438091834290
:1042A000882339F18091084087FD19C08932A4F430
:1042B000282F082E000C330BF901E757FF4B908194
:1042C0009F3F51F02E543F4BD901EC91B0E2EB9F50
:1042D000F0011124FC5F918361E00E944B090E9470
:1042E000760360E08CEC0E94450361E084E40E9468
:1042F00045038091BC43882329F21092BC43F89473
:10430000209116403091174090E080E0821793078B
:1043100014F00C945A17FC01EF5FFB4B40814111E4
:1043200058C0FC01A3E0EE0FFF1FAA95E1F7DF01E3
:10433000A457BC4B1C9211961C92119712961C927A
:10434000129713961C92139714961C921497159615
:104350001C92159716961C92169717961C92DF01C1
:10436000A45ABC4B1C9211961C92119712961C9247
:10437000129713961C92139714961C9214971596E5
:104380001C92159716961C92169717961C92DF0191
:10439000A45DBC4B1C9211961C92119712961C9214
:1043A000129713961C92139714961C9214971596B5
:1043B0001C92159716961C92169717961C92E4500D
:1043C000FD4B108211821282138214821582168292
:1043D000178201969BCF61E08AE00E944B0962E35D
:1043E00070E080E090E00E94670660E048CF50589F
:1043F000BB27AA270ED0F2C1BBD130F0C0D120F02C
:1044000031F49F3F11F41EF4A0C10EF4E095E7FBD8
:1044100096C1E92F05D280F3BA17620773078407A4
:10442000950718F071F49EF51DC20EF4E0950B2E61
:10443000BA2FA02D0B01B90190010C01CA01A001F6
:104440001124FF27591B99F0593F50F4503E68F151
:104450001A16F040A22F232F342F4427585FF3CF92
:10446000469537952795A795F0405395C9F77EF463
:104470001F16BA0B620B730B840BBAF09150A1F0AC
:10448000FF0FBB1F661F771F881FC2F70EC0BA0F32
:10449000621F731F841F48F4879577956795B795BA
:1044A000F7959E3F08F0B3CF9395880F08F09927B2
:1044B000EE0F9795879508951ED108F481E0089531
:1044C00066D1E3959CC10CD089C159D140F050D13F
:1044D00030F021F45F3F19F032C15111C4C135C130
:1044E0009FD198F39923C9F35523B1F3951B550B2D
:1044F000BB27AA2762177307840738F09F5F5F4FB7
:10450000220F331F441FAA1FA9F333D00E2E3AF0F7
:10451000E0E830D091505040E695001CCAF729D011
:10452000FE2F27D0660F771F881FBB1F2617370760
:104530004807AB07B0E809F0BB0B802DBF01FF2790
:1045400093585F4F2AF09E3F510568F0F8C08BC129
:104550005F3FECF3983EDCF3869577956795B795CA
:10456000F7959F5FC9F7880F911D9695879597F9E5
:104570000895E1E0660F771F881FBB1F621773075E
:104580008407BA0720F0621B730B840BBA0BEE1F73
:1045900088F7E095089504D06894B11164C1089536
:1045A00047D188F09F5790F0B92F9927B751A0F0C5
:1045B000D1F0660F771F881F991F1AF0BA95C9F7B7
:1045C00012C0B13081F04ED1B1E008954BC1672FD8
:1045D000782F8827B85F39F0B93FCCF38695779567
:1045E0006795B395D9F73EF4909580957095619550
:1045F0007F4F8F4F9F4F089597FB0EF4A9D03EC079
:10460000E89409C097FB3EF490958095709561956C
:104610007F4F8F4F9F4F9923A9F0F92F96E9BB2722
:104620009395F695879577956795B795F111F8CF9E
:10463000FAF4BB0F11F460FF1BC06F5F7F4F8F4F09
:104640009F4F16C0882311F096E911C0772321F0FF
:104650009EE8872F762F05C0662371F096E8862F97
:1046600070E060E02AF09A95660F771F881FDAF7EE
:10467000880F9695879597F90895E894F92F96EB0A
:10468000FF2381F0121613061406440B9395F6953A
:1046900087957795679557954040FF23B9F71BC0DD
:1046A00099270895882351F49850D2F7872B762FB5
:1046B000652F542F432F322F20E0B1F3121613062B
:1046C0001406440B88233AF09A95440F551F661F31
:1046D000771F881FCAF755234AF4440F551F11F45A
:1046E00060FF04C06F5F7F4F8F4F9F4F880F96957D
:1046F000879597F90895990F0008550FAA0BE0E8E0
:10470000FEEF16161706E807F907C0F01216130693
:10471000E407F50798F0621B730B840B950B39F4D3
:104720000A2661F0232B242B252B21F408950A2639
:1047300009F4A140A6958FEF811D811D089597F979
:104740009F6780E870E060E008959FEF80EC089537
:1047500090958095709560955095409530952195F0
:104760003F4F4F4F5F4F6F4F7F4F8F4F9F4F08957A
:1047700000240A9416161706180609060895002440
:104780000A9412161306140605060895DECF50D0BB
:10479000E8F3E894E0E0BB279F57F0F02AED3FE014
:1047A00049EC06C0EE0FBB0F661F771F881F28F06D
:1047B000B23A62077307840728F0B25A620B730B90
:1047C000840BE3959A9572F7803830F49A95BB0F75
:1047D000661F771F881FD2F7904800C1092E0394E7
:1047E000000C11F4882352F0BB0F40F4BF2B11F4DE
:1047F00060FF04C06F5F7F4F8F4F9F4F0895EF930F
:10480000E0FF06C0A2EA2AED3FE049EC5FEB01DEE3
:10481000E5DF0F90039401FC9058E4EFF2E0F1C063
:1048200057FD9058440F551F59F05F3F71F0479561
:10483000880F97FB991F61F09F3F79F08795089546
:10484000121613061406551FF2CF4695F1DF08C065
:10485000161617061806991FF1CF86957105610582
:1048600008940895E894BB2766277727CB0197F92A
:10487000089541DF08F48FEF08950BD0AFCF78DFB4
:1048800028F07DDF18F0952309F059CF5ECF112471
:10489000EACFC6DFA0F3959FD1F3950F50E0551FE7
:1048A000629FF001729FBB27F00DB11D639FAA2785
:1048B000F00DB11DAA1F649F6627B00DA11D661FD4
:1048C000829F2227B00DA11D621F739FB00DA11DF5
:1048D000621F839FA00D611D221F749F3327A00DAF
:1048E000611D231F849F600D211D822F762F6A2F4B
:1048F00011249F5750408AF0E1F088234AF0EE0FD0
:10490000FF1FBB1F661F771F881F91505040A9F7DC
:104910009E3F510570F013CFA6CF5F3FECF3983E5A
:10492000DCF3869577956795B795F795E7959F5F43
:10493000C1F7FE2B880F911D9695879597F90895DD
:104940009F9325DF0F9007FCEE5F59CF11F40EF413
:10495000FCCE42C06DDFD0F39923D9F3CEF39F573D
:10496000550B87FF47D00024A0E640EA900180580D
:104970005695979528F4805C660F771F881F20F066
:1049800026173707480730F4621B730B840B202966
:1049900031294A2BA69517940794202531254A27BB
:1049A00058F7660F771F881F20F02617370748072C
:1049B00030F4620B730B840B200D311D411DA0954B
:1049C00081F7B901842F9158880F9695879508959E
:1049D00092DE880B990B08959F3F31F0915020F49F
:1049E000879577956795B795880F911D96958795CB
:1049F00097F9089591505040660F771F881FD2F79E
:104A000008959F938F937F936F93FF93EF939B01F1
:104A1000AC0133DFEF91FF9105D02F913F914F9182
:104A20005F912BCFDF93CF931F930F93FF92EF9262
:104A3000DF927B018C01689405C0DA2EEF0129DF3B
:104A4000FE01E894A5912591359145915591AEF3DC
:104A5000EF01DFDCFE019701A801DA9479F7DF901E
:104A6000EF90FF900F911F91CF91DF910895A1E2F8
:104A70001A2EAA1BBB1BFD010DC0AA1FBB1FEE1FD8
:104A8000FF1FA217B307E407F50720F0A21BB30B23
:104A9000E40BF50B661F771F881F991F1A9469F79F
:104AA00060957095809590959B01AC01BD01CF01FB
:104AB0000895052E97FB16F400940FD057FD05D0EE
:104AC000D6DF07FC02D046F408C0509540953095DB
:104AD00021953F4F4F4F5F4F08959095809570956A
:104AE00061957F4F8F4F9F4F089505D0332312F468
:104AF0008A1B9B0B10C0A29FB001B39FC001A39F54
:104B0000700D811D1124911DB29F700D811D112406
:104B1000911D0895F0DFB7FF0895821B930B089550
:104B2000EADFA59F900DB49F900DA49F800D911D6D
:104B300011240895B7FFF4CFF3DF821B930B089580
:104B4000689401C0E894F92FF12B0AF027C0A0E087
:104B5000B0E0ECEAF5E293C0092E05941AF479D09E
:104B6000112392F4F0E80F26FFEFE094F094009503
:104B70001095B094C094D094A194BF0ACF0ADF0AD4
:104B8000EF0AFF0A0F0B1F0B13D007FC62D0CDB743
:104B9000DEB7ECE08DC0689401C0E8948F929F92DC
:104BA000CF93DF9305D0DF91CF919F908F900895A1
:104BB00088249924F401E401B0E49F93AA279A156C
:104BC0008B049C04ED05FE05CF05D007A10798F4E2
:104BD000AD2FDC2FCF2FFE2FE92D982C892E982F6B
:104BE000872F762F652F542F432F322F2227B8502F
:104BF00031F7BF9127C01B2EBF91BB27220F331F58
:104C0000441F551F661F771F881F991F881C991CFA
:104C1000EE1FFF1FCC1FDD1FAA1FBB1F8A149B04A2
:104C2000EC05FD05CE05DF05A007B10748F08A18A1
:104C30009B08EC09FD09CE09DF09A00BB10B21602F
:104C40001A94E1F62EF49401AF01BE01CD01000CDF
:104C50000895609570958095909530954095509504
:104C600021953F4F4F4F5F4F6F4F7F4F8F4F9F4F5C
:104C700008952F923F924F925F926F927F928F9200
:104C80009F92AF92BF92CF92DF92EF92FF920F93DB
:104C90001F93CF93DF93CDB7DEB7CA1BDB0BCDBF1E
:104CA000DEBF09942A88398848885F846E847D84B1
:104CB0008C849B84AA84B984C884DF80EE80FD80C4
:104CC0000C811B81AA81B981CE0FD11DCDBFDEBF62
:104CD000ED0108952A0D3B1D4C1D5D1D6E1D7F1DB0
:104CE000801F911F0895EE0FFF1F0024001C0BBEB4
:0C4CF0000790F691E02D0994F894FFCF96
:104CFC005F01680033335340FF0100007043000034
:104D0C002041000048440400000102030405060091
:104D1C0000C03F0000C03F0000C03F0000C03F008B
:104D2C0000C03F0000C03F6626964266269642664B
:104D3C002696426626964266269642662696428AB3
:104D4C00417A416A415A414A413A410000050A0000
:104D5C000000000040404040000000000000222302
:104D6C0000000000000000000000000080000000B7
:104D7C000000000000002021000102040810204067
:104D8C008001020408102001020408102040800158
:104D9C0002040810204080010204080102040810DB
:104DAC002040000000000000000001010101010191
:104DBC0002020202020202020303030303030303BF
:104DCC00040404040505050505050500010203049A
:104DDC000506070001020304050001020304050691
:104DEC00070001020304050607000102030001028B
:104DFC0003040506000000007505F305F103DF054B
:104E0C00220400041404670745042E0420060D0A2E
:104E1C00006E616E00696E66006F7666002E002073
:0A4E2C004E4F5400206F6620000076
:0400000300000200F7
:00000001FF
