:1002000043C100006BC1000069C1000067C100006C
:1002100065C1000063C1000061C100005FC1000052
:100220000C94380C5BC1000059C1000057C100009C
:1002300055C1000053C1000051C100004FC1000072
:100240004DC100004BC1000049C1000047C1000082
:1002500045C1000043C1000041C100003FC1000092
:100260000C942F0C3BC100000C94860C37C100008D
:1002700035C1000033C100000C94320C0C94010C09
:100280002DC100002BC1000029C100000C94290CD5
:1002900025C1000023C1000021C100001FC10000D2
:1002A0001DC100001BC1000019C1000017C10000E2
:1002B00015C100000C94350C0C942C0C0FC10000DF
:1002C0000DC100000BC1000009C1000007C1000002
:1002D00005C100000C94F90B0C94F40B0C94FE0B6C
:1002E000FDC00000FBC00000F9C00000F7C0000026
:1002F000F5C0000005A84CCDB2D44EB93836A902DD
:100300000C50B9918688083CA6AAAA2ABE00000013
:10031000803F20656E61626C65642E0054656D706F
:1003200065726174757265206D6561737572656D56
:10033000656E742069730053656E736F72206D6112
:1003400079206E6F742062652072656C6961626CE1
:100350006500200030002C20776974682061646497
:100360007265737365732E2E2E0054656D70657201
:1003700061747572652053656E736F727320666F5A
:10038000756E64203D2000204E6F64653A20002089
:1003900047726F75703A20003433334D487A00202D
:1003A000467265713A200052464D36394357200057
:1003B000526164696F20776F726B696E670052419A
:1003C00044494F204641494C00547279696E672078
:1003D000746F20737461727420726164696F2E2E61
:1003E0002E00656D6F6E5069205632204661637431
:1003F0006F7279205465737400005EBCE2613FDD6A
:1004000083C29C7E20A3FD1F41009D23BE46DB6569
:10041000F88C11AF32CA57E9742C726164696F3A73
:10042000002C63745F706173733A002C7670617393
:10043000733A002C6163706173733A002C70756CB1
:1004400073653A002C54333A002C54323A002C5441
:10045000313A002C50363A002C50353A002C5034AA
:100460003A002C50333A002C50323A002C50313A9A
:10047000002C56726D733A004D53473A0000080A3B
:10048000400CFFC000C0021011241FBECFEFCDBF33
:10049000DFE7DEBF11E4A0E0B0E4E4E5FAE400E069
:1004A0000BBF02C007900D92A835B107D9F725E41C
:1004B000A8E5B1E401C01D92A33BB207E1F712E049
:1004C000C4E4D2E004C02197FE010E941F25C3347A
:1004D000D107C9F70E94D8100C94282591CE8932F3
:1004E00060F590E0FC01EF51FF4BE081EF3F29F117
:1004F00088549F4BDC018C9190E0DC01AA0FBB1F5C
:10050000AB5ABF4B2D913C9121153105B1F04E2FC7
:1005100050E0440F551F240F351FD9016D937C9374
:10052000E05FA5E0880F991FAA95E1F7E80FF0E0DA
:10053000FC5F8081887F826080830895CF93DF9302
:10054000282F30E09FEF893220F5E901C157DF4BBA
:1005500098819F3FE9F0F901E854FF4BA08140E208
:10056000A49FD0011124BC5FF901EF51FF4BE08142
:10057000E830C0F5AD01405F5F4FE40FF52FF11D8E
:100580004FB7F89412969C939081977F90834FBFBA
:10059000988190935345893240F528543F4BF90197
:1005A0008081F4E08F9FC001112480935445909383
:1005B000554510925E451092604510925F4510922D
:1005C0005D4510925C4510925B4510925A45109221
:1005D0005945109258451092574510925645DF9153
:1005E000CF910895F0E0E0E0CBCF8CEF93E0DDCF4A
:1005F00090915345E0915445F0915545292F209510
:1006000080FF15C0F8948181822381838081892BAA
:10061000808380E58A95F1F78181982B9183789486
:10062000A9E4B1E01197F1F700C000000895F89433
:100630008181822381838081892B8083A5E8B1E039
:100640001197F1F700C000008181982B9183789475
:10065000B8E2BA95F1F7089580915345E091544579
:10066000F0915545F8949081982B90832181382FF3
:1006700030952323218398E19A95F1F79081932374
:10068000908390E59A95F1F792817894EDE3F1E00B
:100690003197F1F700C00000982381E009F480E071
:1006A0000895CF92DF92EF92FF92E091AE442E2F09
:1006B00030E0A901440F551F440F551FDA01A35C18
:1006C000BF4B61E7C62E6DE3D62E60E7E62E62E4EF
:1006D000F62ECD92DD92ED92FC9213974B5D5F4B1F
:1006E0007DECC72E7CECD72E7CE4E72E70E4F72E51
:1006F000DA01CD92DD92ED92FC92139728553B4B97
:1007000091E0D9019C93EF5FE093AE44F0E0E25EAC
:10071000FF4B8083FF90EF90DF90CF900895809102
:10072000AE458D3011F42D9A0895873009F40F9A53
:10073000089500009091B245911109C08093440939
:100740008091430987FFFCCF8091440908958093ED
:1007500064098091630987FFFCCF80916409089543
:100760008091AE458D3011F42D980895873009F4AD
:100770000F980895CF93DF93D82FC62FF1DF8D2FD9
:100780008068D7DF8C2FD5DFDF91CF91C8CFCF9393
:10079000C82FE6DF8C2FCDDF80E0CBDFC82FBFDF97
:1007A0008C2FCF910895CF939091A744981791F0F3
:1007B000C82F81E0ECDF837E682F6C2B81E0DADFCD
:1007C0008091A744811104C087E2E1DF87FFF8CF61
:1007D000C093A744CF9108950F931F93CF93DF93B6
:1007E000EC0184E0E0DF2097D9F088818823C1F014
:1007F000B7DF8EEB9EDF8E01005F1F4F899199DF7F
:10080000C017D107D9F78BDFC1E08DE3C0DF8E7F42
:10081000682F6C2B8DE3DF91CF911F910F91AACFA1
:10082000C0E0F3CF1092A6441092A4441092A544C5
:100830001092A2441092A3441092A1441092A0449A
:1008400088E2A5DF82FF06C08DE3A1DF682F646028
:100850008DE390DF80E1A7CFFC0155894689252FE4
:1008600030E0842F90E0821B930B541710F0CF964A
:10087000089501970895FC0193898489981761F080
:10088000A489AE0FBF2FB11D57968C9194899F5F9D
:100890009F73948B90E008958FEF9FEF0895FC0174
:1008A00093898489981731F08489E80FF11D87892D
:1008B00090E008958FEF9FEF0895FC0193892489BC
:1008C000892F90E0805C9F4F821B91098F7399273D
:1008D0000895CF93DF93EC01E881F9810680F781D9
:1008E000E02D0995EC85FD8586811682858115822E
:1008F00080E484838C898B8B1A8ADF91CF91089551
:100900008F929F92AF92BF92FF920F931F93CF93BC
:10091000DF938C014A015B01D22FC32FDC01529679
:100920008C91529780FF07C0ED91FC910288F3896A
:10093000E02DC8010995D11101C0D3E0FD2EE89446
:10094000F2F8DC2FD095D07CB1E68B16B3EE9B0687
:10095000B6E1AB06B10428F0D260B694A7949794A0
:10096000879460E078ED88EB95E0A50194010E9402
:100970004F24C9012034310510F480E490E03C2F6D
:100980003B72D7FD30684D2F487C30FD41605FB72A
:10099000F894D8011C96ED91FC911682F78280871D
:1009A000918735FF8FC04F7781E084878FEF8587F0
:1009B0003F7D3583D683F8012189C0898685978557
:1009C000FC0133E0239FE00DF11D1124659174912A
:1009D0002C1708F059C0272F46FF76C0793288F4CB
:1009E00030E0F901E157FF4BA081AF3F51F02854AF
:1009F0003F4BF901308120E2329FF0011124FC5F6E
:100A0000A18347FF2AC021E0270F293230F530E0CB
:100A1000F901E157FF4BD081DF3FF9F0F901E854CC
:100A2000FF4BA081F0E2AF9FD0011124BC5F2F519A
:100A30003F4BF9011081F0E0E0E0183030F49D0107
:100A4000205F3F4FF901E10FF11D3FB7F894129677
:100A5000DC932081286020833FBF40FF15C023E046
:100A6000270F293288F430E0F901E157FF4B40812C
:100A70004F3F51F028543F4BD901EC91B0E2EB9F2E
:100A8000F0011124FC5F4183FC0123E0C29FE00DD3
:100A9000F11D1124319625913491F901FF27EE5172
:100AA000FA4F9081832F80958923682B60835FBFE5
:100AB000DF91CF911F910F91FF90BF90AF909F90CA
:100AC0008F900895148674CF342F307509F499CF20
:100AD000793208F096CF30E0F901E157FF4BD08131
:100AE000DF3F09F48ECFF901E854FF4BA081E0E22B
:100AF000AE9FD0011124BC5F2F513F4BF9011081F3
:100B0000F0E0E0E0183030F49D01205F3F4FF90144
:100B1000E10FF11D3FB7F8941296DC932081286015
:100B200020833FBF6ECFFC010FB607FE04C080914B
:100B300011018823A1F0A485B58514968C91149792
:100B400085FF0DC095898689981739F015968C9187
:100B500015978F7D15968C930895E894E8C50895B0
:100B60000F931F93CF93DF93EC018A89982F9160A5
:100B70009A8B2D899E8929130AC0EC85FD85948165
:100B800095FF05C081FD0DC080E4848312C0062F4F
:100B90001D891F5F1F738E89811315C0CE01C3DFAE
:100BA000FACF85818F77806490E49483EC85FD850E
:100BB0008583EC85FD85628381E090E0DF91CF91B4
:100BC0001F910F910895ED89EC0FFD2FF11DE95A4A
:100BD000FF4F00831D8BEC85FD858A8981FF09C04D
:100BE00085818F77806690E49483EC85FD8585838D
:100BF000E3CF85818062FBCF0F931F93CF93DF9369
:100C00008C01D0E0C0E0F801EC0FFD1F6491662379
:100C100039F08FEA94E4A4DF892B11F02196F3CF09
:100C2000CE01DF91CF911F910F910895CF93DF9364
:100C3000EC018A8980FF0BC0EC85FD85858185FDEF
:100C400003C0848186FD03C0CE016DDFF5CFDF9147
:100C5000CF910895AF92BF92CF92DF92EF92FF9221
:100C60000F931F93CF93DF936C017B018B01040FD4
:100C7000151FEB015E01AE18BF08C017D10759F070
:100C80006991D601ED91FC910190F081E02DC601B2
:100C90000995892B79F7C501DF91CF911F910F91AC
:100CA000FF90EF90DF90CF90BF90AF90089581E0DC
:100CB00008959FB7F894E0912A0BF0912B0B809147
:100CC000260B2091E6433091E7434091E843509151
:100CD000E9439FBF80FF08C0EC3E8CE2F80720F498
:100CE0002F5F3F4F4F4F5F4F0F011694079416949D
:100CF00007941694079416940794F0011694079499
:100D0000E00DF11D16940794102C169401181694FA
:100D1000010C169401181694010C169401181694DF
:100D20001694010C1124E019F109A8EEB3E00E9419
:100D3000A8246E0F7F1F811D911D08958F929F9291
:100D4000AF92BF92CF92DF92EF92FF924B015C0184
:100D5000B0DF6B017C01ADDF6C197D098E099F0945
:100D6000683E734081059105B0F321E0821A910835
:100D7000A108B10888EEC80E83E0D81EE11CF11C62
:100D800081149104A104B10431F7FF90EF90DF903A
:100D9000CF90BF90AF909F908F9008952FB7F89409
:100DA0006091E6437091E7438091E8439091E94375
:100DB0002FBF0895CF92DF92EF92FF920F931F9370
:100DC000CF93DF93082F10E096E1899FE001112473
:100DD000CB59DA4B8E819F81A885B985892B8A2BC7
:100DE0008B2B99F1DBDFCA88DB88EC88FD886C19D6
:100DF0007D098E099F09CE80DF80E884F984C616BC
:100E0000D706E806F90658F48E859F85A889B98922
:100E10000196A11DB11D8E879F87A88BB98BBEDF60
:100E200026E1209FF001219FF00D1124EB59FA4B90
:100E3000628B738B848B958BDF91CF911F910F9178
:100E4000FF90EF90DF90CF9008958E859F85A889C1
:100E5000B9890196A11DB11D8E879F87A88BB98B7B
:100E6000EBCF80E0A7CF81E0A5CF28E030E041E0E4
:100E700071E09091EC43E091EA43F091EB43A92FAC
:100E8000A095582F54237093E543552341F1518188
:100E90005A2351835081592B508350E55A95F1F7CD
:100EA0005181952B91831092E543A9E4B1E011970C
:100EB000F1F700C00000440F21503109D1F6611153
:100EC0000DC0E091EA43F091EB4390818091EC43B7
:100ED00080959823908391818923818308955181FE
:100EE0005A2351835081592B5083A7E6B1E01197C3
:100EF000F1F700C000005181952B91831092E543DA
:100F0000B8E2BA95F1F7D7CF8091EC43E091EA438C
:100F1000F091EB439081282F2095922390833DE719
:100F2000315061F190E19A95F1F792819823C1F3E4
:100F30009181922391839081982B9083AFE3BBE0C2
:100F40001197F1F700C0000091E09093E543908184
:100F500092239083A3EAB1E01197F1F700C000005B
:100F60009281982381E009F080E01092E543EBE95B
:100F7000F9E03197F1F700C00000089580E008958E
:100F8000CF92DF92EF92FF920F931F93CF93DF9355
:100F90008091024090E025E0959587952A95E1F7AC
:100FA000809590958370992700EF12E002C0159507
:100FB00007958A95E2F7C091F143D091F2432197CA
:100FC00022E330E0D8010E94A22428E13CEF4FEF59
:100FD0005FEF0E9471242C0F3D1F2093C14330937B
:100FE000C24320E030E04AE754E46091124070913F
:100FF000134080911440909115400E9455230E9407
:10100000E821012E000C220B330B6B017C01C01A6E
:10101000D10AE20AF30AA7019601A8EEB3E00E9402
:10102000A82468587341810991090E9418222091CF
:1010300004403091054040910640509107400E9485
:101040007B210E94E8216093C5437093C64380933F
:10105000C7439093C843DF91CF911F910F91FF90A9
:10106000EF90DF90CF900895DC01ED91FC91008826
:10107000F189E02D23E030E00994FC01019000208B
:10108000E9F73197AF01481B590BBC018FEA94E493
:10109000E1CD84E291E4F1CFCF93DF93ADDDEC01BC
:1010A000F8DF8C0F9D1FDF91CF9108958F929F9253
:1010B000AF92BF920F931F93CF93DF93CDB7DEB75D
:1010C000A197CDBFDEBF19A2423008F44AE08E01DD
:1010D0000F5D1F4F842E912CB12CA12CA5019401E2
:1010E0000E944F24E62FB901CA01EA30D4F4E05D32
:1010F000D801EE938D01232B242B252B79F790E03B
:1011000080E0109711F0CD01B8DFA196CDBFDEBF12
:10111000DF91CF911F910F91BF90AF909F908F90D3
:101120000895E95CE5CFDF92EF92FF920F931F9352
:10113000CF93DF9320916045222379F010925E4592
:101140001092604510925F4580E0DF91CF911F9132
:101150000F91FF90EF90DF90089520915345E0911B
:101160005445F0915545F8943081422F40953423F1
:10117000308378945DE7515009F330E13A95F1F707
:1011800032813223C1F3F8943181342331833081A9
:10119000322B30837894AFE3BBE01197F1F700C0B6
:1011A0000000F894308134233083A3EAB1E0119732
:1011B000F1F700C0000032817894EBE9F9E0319753
:1011C000F1F700C00000232309F0B8CF7C01C8E08C
:1011D000D0E011E081E0912F907F09F480E008DAFF
:1011E000110F2197B9F7F894E0915445F0915545C6
:1011F000808120915345209528232083E0915445F8
:10120000F0915545818120915345209528232183D4
:101210007894D1E000E0D12CC1E01EDA182F1CDA5E
:101220001130E9F48130D1F5C13408F487CFD09280
:101230005E45D11003C081E08093604580915645A2
:10124000882309F47BCFA6E5B5E4F701C70108962A
:101250002D9121938E179F07D9F781E076CFE02F4C
:10126000F0E0181311C080915E45C817A8F4DF01A3
:10127000AD5ABA4B13968C918D2381F410E0C9308E
:1012800010F4C0935F45DC2EED5AFA4B83819D2FFD
:101290009095892383830AC08C13F0CFE02FF0E070
:1012A000ED5AFA4B83818D2B838311E0812FA0D9D6
:1012B000CF5FDD0F11F40F5FD1E0083008F4ADCF40
:1012C000B3CFCF92DF92EF92FF92CF93DF936C0177
:1012D000990FEE08FF08F7FE17C06DE28FEA94E45D
:1012E0003FDCEC0166277727CB016C197D098E095D
:1012F0009F094AE0DBDE8C0F9D1FDF91CF91FF90AD
:10130000EF90DF90CF9008954AE0C701B601DF91DA
:10131000CF91FF90EF90DF90CF90C8CE4F925F9229
:101320006F927F928F929F92AF92BF92CF92DF92F5
:10133000EF92FF926B017C01AC019B010E940024A3
:10134000882379F087E291E4FF90EF90DF90CF90CF
:10135000BF90AF909F908F907F906F905F904F90D5
:101360008CCE46015701E894B7F82FEF3FEF4FE7D7
:101370005FE7C501B4010E94002481110DC02FEF69
:101380003FEF4FE75FE7C501B4010E9474211816D3
:101390001CF48BE291E4D8CF2FEF3FEF4FE75FE4EF
:1013A000C701B6010E94512318161CF48FE291E484
:1013B000CBCF2FEF3FEF4FE75FECC701B6010E94A5
:1013C000742187FDF3CF20E030E0A901C701B60109
:1013D0000E947421B12CA12C87FF09C06DE28FEA15
:1013E00094E4BEDB5C01F7FAF094F7F8F0942AE09D
:1013F00037ED43EA5BE3C701B6010E9410212B01E0
:101400003C010E94E8216B017C010E9418229B0193
:10141000AC01C301B2010E940F212B013C014AE043
:10142000C701B60143DE7C01EA0CFB1C83E391E4B7
:1014300024DEE80EF91E20E030E040E251E4C30172
:10144000B2010E9455232B013C010E94E8214B016F
:10145000B12CA12C4AE0C501B40128DEE80EF91E2A
:10146000C501B4010E9418229B01AC01C301B20165
:101470000E940F2120E030E040E251E40E94552319
:101480000E94E82190E080E04AE010DE8E0D9F1D72
:10149000FF90EF90DF90CF90BF90AF909F908F9094
:1014A0007F906F905F904F9008950F931F93CF930D
:1014B000DF938091A744803109F062C088E267D948
:1014C00082FF3BC084E06FD94BD980E032D980E005
:1014D00030D9D82FC82F833408F0C2E4C093A14478
:1014E00080E027D9082F80E024D9182F80E021D967
:1014F000282F30E0A90196E0440F551F9A95E1F797
:1015000044275370402B4093A2445093A344322F5E
:10151000222722273370212B2093A4443093A54403
:101520009091AC459417150611F0452B11F4D3306A
:10153000A0F41092A144F3D875D98091A7448031CA
:10154000F9F48091A1448823E1F084E02CD981E072
:10155000DF91CF911F910F910895C350C093A6447E
:1015600080788093A044D0E0DC1720F480E0E1D8BC
:10157000DF5FFACFD4D880E116D984E208D9DDCF75
:1015800051D980E0E5CF0F931F93CF93DF9389323A
:1015900008F07CC090E0DC01A157BF4B2C912F3F9D
:1015A00009F474C08C0108541F4BE801E881D0E2B3
:1015B000ED9FF0011124FC5F611133C0268330815F
:1015C0002323AC014F515F4B211111C0EA01288147
:1015D000309749F1283038F57096E20FF11D3FB78A
:1015E000F8942081611122C0277F20833FBFFA0138
:1015F00030813F3F09F44AC0E8012881363058F570
:101600003091E605432F4770241312C0EC91E5306A
:1016100008F0EE0F8091010AE095E823E093010ABB
:1016200035C02583CCCFF0E0E0E0D9CF2860DDCF16
:10163000387169F4213079F4EC91E53008F0EE0F5F
:101640008091410AE095E823E093410A1FC03831B8
:1016500011F4263089F38A599F4BFC01808185FF64
:1016600013C030E1839FF0011124F75F91819770DF
:10167000973061F4EC91853270F4803298F48830C0
:10168000E1F2803121F202C08111F4CFDF91CF91DC
:101690001F910F910895803471F08038B9F710923E
:1016A000A006F4CF90E1899FF0011124F75F8181BA
:1016B0008F7E8183EBCF8091920B8E2339F3C0E232
:1016C0002C9F900111243C5FE83030F5205F3F4FA4
:1016D000E20FF32FF11D4FB7F8949091800B9E7F8E
:1016E0009093800B90918E0B90FFFCCF2091920BEA
:1016F00090E08095909530E08223932328ED24BFDD
:101700008093920B8091800B81608093800B80810D
:101710008F7780834FBFBACFF0E0E0E0DCCF2F932C
:101720002FB72F938F939F93AF93BF936894CF93CB
:10173000DF9320E0C485D8E09689DF01A90FB21FAE
:10174000A95ABF4F8C9120E42C838A839F5F9F739B
:101750008D812589291302C08F7D8D83968BDF9122
:10176000CF910EF0FCC9BF91AF919F918F912F91B6
:101770002FBF2F91FF91EF9118952F932FB72F9394
:101780008F939F93CF93DF93C485D8E0898198810D
:1017900081FD0DC0C38981E08C0F8F7324892817C8
:1017A00031F0CE0FDF2F20E0D21F9F8B838BDF9194
:1017B000CF919F918F912F912FBF2F91FF91EF91FB
:1017C0001895FF938F938FB78F93F8E08081848172
:1017D00087FFFCCF85818F7B806885838F918FBF4A
:1017E0008F91FF91EF911895EF93FF93EFEAF4E457
:1017F00096CFEF93FF93EFEAF4E4BFCFEF93E0E6E9
:10180000E0CF1F920F920FB60F9211248F939F93E8
:10181000AF93BF938091E6439091E743A091E84353
:10182000B091E9430196A11DB11D8093E6439093C9
:10183000E743A093E843B093E94381E08093260B0C
:10184000BF91AF919F918F910F900FBE0F901F90FE
:1018500018950F930AE00FC00F9308E00CC00F9388
:1018600006E009C00F9304E006C00F9302E003C036
:101870000F9300E000C00F920FB60F920BB60F92BD
:101880001F921124FF921F932F933F934F935F93C7
:101890006F937F938F939F93AF93BF93CF93DF9378
:1018A000EF93FF93A5E5B0E4A00FB11DCD91DC91BE
:1018B000000F0D5FA02FB0E0FC90109761F01F2D7E
:1018C000169518F041F02296FBCFE991F9913097E7
:1018D000B9F30995F5CFA02FB0E0FC92FF91EF91FD
:1018E000DF91CF91BF91AF919F918F917F916F9138
:1018F0005F914F913F912F911F91FF901F900F90FB
:101900000BBE0F900FBE0F900F9118951F920F9264
:101910000FB60F9211240BB60F922F923F924F9257
:101920005F926F927F928F929F92AF92BF92CF926F
:10193000DF92EF92FF920F931F932F933F934F935A
:101940005F936F937F938F939F93AF93BF93EF9327
:10195000FF93CF93DF93CDB7DEB72697CDBFDEBF22
:1019600081E080930D064090100650901106209162
:10197000E543E091E443A2E0AE0F80911C409091DA
:101980001D40A817190621F01CF0A1E0AE0FA81BFE
:10199000B0E0A25EBF4B3C913093080621116FC1AD
:1019A0004091ED435091EE436091EF437091F043CD
:1019B0004F5F5F4F6F4F7F4F4093ED435093EE4328
:1019C0006093EF437093F043E111E2C18091E243F1
:1019D0009091E3438093E0439093E143809163458A
:1019E0009091644596958795481A590A4092E2432A
:1019F0005092E3438091DE439091DF439C01369502
:101A0000279536952795821B930B920157FE04C0AC
:101A10002227332724193509820F931F8093DE4331
:101A20009093DF43609161457091624521E06817B2
:101A3000790708F020E020936044141415040CF09A
:101A40005AC021E030E02093DC433093DD43E09145
:101A5000DC43F091DD434091D6435091D743E417E6
:101A6000F50709F44DC02091C0432F5F2093C04378
:101A70002091C043233030F01092C043E093D8430C
:101A8000F093D9432091C94321111092C94380900A
:101A9000D8439090D943209100403091014068177D
:101AA000790708F023C181E08816910409F05CC031
:101AB0004130510509F45EC08091C3439091C44305
:101AC00001968093C3439093C443409103404423C1
:101AD000D1F00A97C0F0109203401092C3431092C5
:101AE000C443C9018C5F9E4FF901E817F90759F00B
:101AF00010823196FACF1092DC431092DD43A7CFCB
:101B00001092C043B5CF8091C3439091C44340919C
:101B1000C1435091C2438417950739F44091034063
:101B2000411103C041E040935F444091F143509123
:101B3000F24384179507F0F08091034081111AC099
:101B40001092C3431092C44380911A4090911B405D
:101B500020931A4030931B408093004090930140A3
:101B600081E080935E4406C0452B21F01092DA4359
:101B70001092DB43E0910040F09101409F0120531F
:101B80003F4FD9014D915D916D917C9113974F5FBE
:101B90005F4F6F4F7F4F4D935D936D937C93139782
:101BA0008091DA439091DB4301968093DA439093DE
:101BB000DB432850310929833A83D901AC9011962F
:101BC000BC90119712963C90129713961C91139704
:101BD00014966C90149715967C90159716960C9108
:101BE000169717962C909201D2010E948D246B01BA
:101BF0007C01FF0CCC08DC2C76019B01AC016C2D28
:101C00007C2D8C2D9C2DC32CD12E7301122D0E9466
:101C10001625A981BA812C9311963C93119712969F
:101C20004C93129713965C93139714966C93149796
:101C300015967C93159716968C93169717969C93EA
:101C4000A080B180C280D380E480F58006811781B6
:101C5000952D990F990B9201492F592F692F792FA3
:101C6000892F0E9416252083318342835383648306
:101C70007583868397838092D6439092D7438091D1
:101C8000E4438F5F8093E44320911C4030911D40DA
:101C90008217130619F014F01092E4432696CDBF74
:101CA000DEBFDF91CF91FF91EF91BF91AF919F91F7
:101CB0008F917F916F915F914F913F912F911F91E4
:101CC0000F91FF90EF90DF90CF90BF90AF909F90DB
:101CD0008F907F906F905F904F903F902F900F90DC
:101CE0000BBE0F900FBE0F901F9018954091ED43C3
:101CF0005091EE436091EF437091F0438091C54362
:101D00009091C643A091C743B091C84384179507EB
:101D1000A607B70748F48091F343811105C081E01D
:101D200080935F448093F3434091ED435091EE43A1
:101D30006091EF437091F04380915A4490915B44DD
:101D4000A0915C44B0915D4484179507A607B7073E
:101D500008F010CF1092ED431092EE431092EF4333
:101D60001092F04381E0809303401092C34310929D
:101D7000C44340911A4050911B4020931A40309325
:101D80001B404093004050930140EBCE1C9232C167
:101D90002E2E312C821593050CF471CF3101B1E058
:101DA0006B1A7108D301A855BB4BE6E04E165104DF
:101DB0006CF381E08C93A0910040B0910140A98325
:101DC000BA83D30193E0AA0FBB1F9A95E1F7E9818B
:101DD000FA81AE0FBF1FAC52BF4FAC901196BC90B2
:101DE00011971296CC9012971396DC901397149635
:101DF000EC9014971596FC90159716960C911697E3
:101E000017961C911797C301880F991F86539C4BF7
:101E1000FC0180809180992D990F990B9401492F95
:101E2000592F692F792F892F0E9416252C931196EF
:101E30003C93119712964C93129713965C931397B9
:101E400014966C93149715967C93159716968C930D
:101E5000169717969C93809163459091644596954B
:101E60008795881A990AF10143E0EE0FFF1F4A9502
:101E7000E1F7A981BA81EA0FFB1FA080B18032800F
:101E80001381B481BD832581298306812780A09198
:101E9000E043B091E14394010E948D246B017C01E9
:101EA000FF0CCC08DC2C76019B01AC016C2D7C2D49
:101EB0008C2D9C2DC32CD12EED80F980122D0E94EB
:101EC00016252083318342835383648375838683FD
:101ED0009783A0A8B1A832A813A934A93D8345A926
:101EE000498306A927A8A091E243B091E343940156
:101EF0000E948D246B017C01FF0CCC08DC2C760148
:101F00009B01AC016C2D7C2D8C2D9C2DC32CD12ED6
:101F1000ED80F980122D0E94162520AB31AB42AB2B
:101F200053AB64AB75AB86AB97ABCF01805A9F4F79
:101F30008D839E83DC01AC901196BC901197129614
:101F4000CC9012971396DC9013971496EC901497FC
:101F50001596FC90159716960C91169717961C914E
:101F60009401D4010E948D249B01AC01550F220BDA
:101F7000322FA90129833A834B835C839B01AC01F7
:101F80006981762F862F962F0E941625AD81BE81FE
:101F90002C9311963C93119712964C93129713968B
:101FA0005C93139714966C93149715967C931597DE
:101FB00016968C93169717969C93E057FF4FA08028
:101FC000B180C280D380E480F58006811781992D8D
:101FD000990F990B9401492F592F692F792F892F28
:101FE0000E94162520833183428353836483758343
:101FF00086839783F301EE0FFF1FE653FC4B40826D
:1020000051823DCE1092B1441092B24488EE93E0DA
:10201000A0E0B0E08093B3449093B444A093B5445F
:10202000B093B6448EE091E48093AF449093B04473
:1020300080E698E08093BB449093BC448DE794E0A5
:102040008093BD449093BE4482E08093BF4410923D
:10205000C0441092C14480E040E05BE167EB70E077
:1020600076956795579547958F5F863011F487E091
:1020700007C0413099E059079DE36907710580F772
:1020800054E05093524541E0982F91628095282F5B
:10209000217030E084E0220F331F8A95E1F7292B6D
:1020A0002093514580E499E08093464590934745BD
:1020B0005093494586E080934A4510924C451092D2
:1020C0004D45109265451092664523E02093694581
:1020D00040936A458EE690E0A0E0B0E080936B45C7
:1020E00090936C45A0936D45B0936E4510926F45EB
:1020F000109270451092714510927245109273457E
:1021000010927445109275451092764510927B4559
:1021100010927C4520937F45409380458093814574
:1021200090938245A0938345B09384451092854552
:1021300010928645109287451092884510928945E5
:1021400010928A4510928B4510928C4581E090E068
:102150000090644002C0880F991F0A94E2F78093B0
:1021600063459093644525E0969587952A95E1F718
:102170008093614590936245809163400E949E02E6
:102180008AE08093AE458BE08093AF458CE08093EE
:10219000B0458DE08093B1451092B2458BE28093BB
:1021A000914582ED809392458FE080939345089509
:1021B000CF93DF93CDB7DEB7C85AD109CDBFDEBF0D
:1021C00088ED94E284BF9093680021E02093030A95
:1021D0008EEF8093260A8093270A9BE09093000A53
:1021E00032E03093E6052093430A8093660A809399
:1021F000670A9093400A9093E705E0E0FBE097E0E0
:10220000E92E15E0E1828487158610837096E0340C
:102210002BE0F207B9F78FEF9FE08093AA0B909322
:10222000AB0B00E80093820B1092810B8BEF93E0D5
:102230008093AE0B9093AF0B81E78093800B10934C
:1022400002068EE08093050680E6809303061093D5
:1022500000068091B000887F85608093B0008091F7
:10226000B200887F85608093B2008FED9EE28093FC
:102270002C0B90932D0B81E08093250B1092210B5A
:1022800083E08093200B789484E0F82EF092410450
:1022900061E080E178D940E052EC61E070E08FEAE3
:1022A00094E40E94340882EE93E00E944C0889EC8A
:1022B00093E00E944C08E092AE45F092AF45109337
:1022C000B04586E08093B1451092B2458FE080938F
:1022D000AC451092AD450093010480E18093010468
:1022E0009FB7F89480E28093020480911504877F61
:1022F000809315049FBF2091B145822F90E0293231
:1023000080F4FC01E157FF4B20812F3F51F08854AE
:102310009F4BDC01EC91B0E2EB9FF0011124FC5FDC
:1023200021830E948F038091B2458111B6C08091B4
:10233000E4058C7F8093E40580914109846080935B
:102340004109809140098162809340090E94CE0634
:102350006B017C016AEA8FE20E94BA038FE20E945D
:10236000C7038A3A59F00E94CE066C197D098E097E
:102370009F09623371058105910560F30E94CE06C5
:102380006C197D098E099F096233710581059105DC
:1023900008F0E6C10E94CE066B017C0165E58FE284
:1023A0000E94BA038FE20E94C703853559F00E944C
:1023B000CE066C197D098E099F096233710581056E
:1023C000910560F30E94CE066C197D098E099F0964
:1023D000623371058105910508F0C2C1FE01339693
:1023E0008BE2DF011D928A95E9F781E0898384E021
:1023F0008A8322E02B8393E09D832E838F8380E466
:10240000888725E029879A8796E09B8793E39C87B6
:1024100097E09D8728E02F8729E0298B29E12B8BE6
:1024200032E43C8B25E22D8B8E8B26E22F8B988F0E
:1024300098E2998F20E12A8F99E29B8F9CED9C8FE7
:102440009EE29D8F98E89E8F9FE29F8F9DE298A3CA
:1024500090E399A347E34BA340E94CA348E34DA382
:102460003EA33CE33FA33FE838A73DE339A72AA7B3
:102470002FE62BA79CA79CE69E87888B82ED8AA3DC
:102480008E010F5F1F4FF80180818823B1F06181B9
:102490000E94BA030E5F1F4FF6CF8091E405837F41
:1024A0008093E40580916109846080936109809143
:1024B000600981628093600949CF90E080E00E94CA
:1024C000EC0369E981E10E94BA0384E00E94D3032E
:1024D0000E94CE066B017C0187E20E94C70387FD44
:1024E0000BC00E94CE066C197D098E099F096233CC
:1024F00071058105910580F30E94CE066C197D0956
:102500008E099F09623371058105910508F028C184
:1025100080EB93E00E944C088AE391E40E94EC0374
:1025200081E080937D4487EA93E00E94FC058FE977
:1025300093E00E94FC0588E993E00E94FC058FE887
:1025400093E00E94FC056091924570E090E080E08D
:102550004AE00E94560887E893E00E94FC056091DB
:10256000934570E090E080E04AE00E9456080E94A7
:10257000490860E080E107D88CE090E080936440F7
:10258000909365408EEF94E5ADE1B2E48093044012
:1025900090930540A0930640B093074080E090E1FF
:1025A000809363459093644580E890E08093614513
:1025B000909362458FE692E1A3E8BFE380930840E1
:1025C00090930940A0930A40B0930B4010921E4094
:1025D0008AE097EFA9E4B4E4809316409093174003
:1025E000A0931840B093194083E00E94510384E007
:1025F0000E94510385E00E94510386E00E9451032E
:1026000088E00E94510389E00E94510386E696E625
:10261000A6EEBFE38093124090931340A093144022
:10262000B09315408AE590E08093F1439093F24394
:1026300083EC92EBA0E0B0E080935A4490935B442B
:10264000A0935C44B0935D440E94C00780E090E09A
:10265000A0E7B3E480930E4090930F40A093104006
:10266000B093114081E080936545809366458DE08D
:102670008093694580936A4584E690E0A0E0B0E0ED
:1026800080936B4590936C45A0936D45B0936E45D8
:102690008CE0809363408FE080930C4082E08093D5
:1026A000410461E08FE00E94C30A8FE580930240FD
:1026B00084E995E48093F6439093F7431092944510
:1026C0008EE794E48093F4439093F54383E0809302
:1026D0000D40809163400E949E02E09163408FEF25
:1026E000E93228F4AE2FB0E0A157BF4B8C91809314
:1026F000EC438CEF93E0E93240F4F0E0E854FF4B18
:102700008081F4E08F9FC00111248093EA4390936D
:10271000EB4381E08093F94320E030E040E85FE361
:102720006091124070911340809114409091154037
:102730000E94742187FF03C08FE1809302400091C3
:10274000024090910D40E091F443F091F54380E018
:1027500020E335E7981749F0219331938F5FFACF43
:102760008EEB93E00E944C0804CF10925E451092CD
:10277000604510925F4510925D4510925C45109245
:102780005B4510925A451092594510925845109247
:102790005745109256451092F843CE0101960E947B
:1027A0009308882349F089818832B9F78091F843EA
:1027B0008F5F8093F843F1CF80910D409091F84363
:1027C000891710F48093F843E091F643F091F743B2
:1027D00080818832A9F010E08091F843181780F4C6
:1027E00028E0129FC00111242091F6433091F74355
:1027F000820F931F0E949308882311F01F5FECCF74
:102800000E94840760E08CEC0E94350760E08EE453
:102810000E94350760E080E00E94350760E080E0BC
:102820000E94350760E0802F0E9435070E948407D0
:1028300060E08CEC0E94350761E088E40E94350777
:1028400064E170E080E090E00E949E060E94C00774
:102850008091AE44882381F0282F30E020931C40E3
:1028600030931D408F5F90E0863030F4FC01E855D6
:10287000FB4B10820196F8CFC0900840D0900940E1
:10288000E0900A40F0900B40CCAADDAAEEAAFFAA85
:10289000609163457091644590E080E00E94182249
:1028A00068AF79AF8AAF9BAF209116403091174047
:1028B0004091184050911940C701B6010E9455231C
:1028C00028AD39AD4AAD5BAD0E947B2160931640C7
:1028D000709317408093184090931940E0901C40EB
:1028E000F0901D40ECAEFDAEC7010196C0900440D3
:1028F000D0900540E0900640F09007402496CCAE82
:10290000DDAEEEAEFFAE249725E230E426962EAF84
:102910003FAF269742E154E44EAF5FAF62E474E408
:1029200028966EAF7FAF2897AAE2B4E4A8ABB9AB04
:102930000DE310E4312C212C6C01990FEE08FF08F7
:102940002E96CCAEDDAEEEAEFFAE2E97ECACFDAC6F
:102950002E143F040CF0C4C0D8012D913D914D912F
:102960005D918D017D01B4E0EB1AF1086CA97DA9A0
:102970008EA99FA90E94552328AD39AD4AAD5BAD04
:102980000E947B21F70160837183828393832E965B
:102990006CAD7DAD8EAD9FAD2E970E941A22249610
:1029A0002CAD3DAD4EAD5FAD24970E9455232BED70
:1029B0003FE049EC50E40E94552320E030E048E439
:1029C00052E40E94552320E034E244E759E40E9497
:1029D0007B214B015C012696AEADBFAD26974D9095
:1029E0005D906D907D902696AEAFBFAF2697BFEFFE
:1029F0002B1A3B0AB101032C000C880B990B0E9487
:102A00001A2224962CAD3DAD4EAD5FAD24970E94A9
:102A1000552320E030E048E452E40E94552320E0B2
:102A200034E244E759E40E947B216B017C0120E001
:102A300030E044EB53E4C301B2010E947B219B01CF
:102A4000AC01C701B6010E9410212BED3FE049EC1B
:102A500050E40E9455232B013C010E94B8236B01D6
:102A60007C01C501B4010E94B8239B01AC01C701E0
:102A7000B6010E947B216B017C01E8A9F9A9C192F2
:102A8000D192E192F192E8ABF9ABC301B2010E949D
:102A900078212B013C01C501B4010E9478219B01E2
:102AA000AC01C701B6010E9455239B01AC01C301D3
:102AB000B2010E940F212896AEADBFAD28976D934D
:102AC0007D938D939D932896AEAFBFAF2897EEADC3
:102AD000FFAD1192119211921192EEAFFFAF36CF6E
:102AE00081E397E0809367459093684583E397E09F
:102AF00080937D4590937E4581E0809303401092C2
:102B0000ED431092EE431092EF431092F0439EE09B
:102B10009093050690910306909303061092B000DF
:102B200098E090930206809300069091000690939F
:102B3000000690910006926090930006109208069D
:102B400090910C06916090930C0680930A067894FD
:102B5000C0901240D0901340E0901440F090154087
:102B600020E030E048E452E4C701B6010E9455235A
:102B70000E94E8216093F1437093F24310925E4407
:102B800020E034E244E759E4C701B6010E9455232E
:102B900020910440309105404091064050910740FB
:102BA0000E947B210E94E82160935A4470935B4409
:102BB00080935C4490935D4405E615E4F12CD801C4
:102BC0008C918823B1F114962C91822F90E02932B8
:102BD00020F5FC01E157FF4B20812F3FF1F0FC0174
:102BE000E854FF4BA081E0E2AE9FD0011124BC5F0E
:102BF0008F519F4BFC013081F0E0E0E0383028F449
:102C0000CD014096FC01E30FF11D9FB7F894129699
:102C10002C938081886080839FBF63E377E08091FD
:102C20008045F11004C061E377E080916A450E941D
:102C30006F020A5E1F4FF1E0FF1275C010928444CC
:102C40001092854410928644109287448AE693E05D
:102C50000E94FC056091F84370E090E080E04AE05B
:102C60000E9456088BE491E40E943D0860910D405B
:102C700070E090E080E04AE00E9456088091F843BE
:102C8000882309F453C086E593E00E944C08F12C98
:102C9000E12CB12CA12C8091F8438A151B0409F07A
:102CA0000CF444C0D12CC12C0091F6431091F74391
:102CB0000E0D1F1D0C0D1D1DD8018C91803120F4AF
:102CC00084E593E00E94FC05F801608170E090E0EB
:102CD00080E040E10E94560882E593E00E94FC05F6
:102CE000FFEFCF1ADF0A28E0C216D104E9F6E0911F
:102CF000F643F091F743EE0DFF1D8681833021F4FA
:102D000087E393E00E94FC050E94490865E070E0BB
:102D100080E090E00E949E063FEFA31AB30A48E0CD
:102D2000E40EF11CB8CFFF24F39449CF0E94490868
:102D30008CE193E00E94FC058091F94381110C9491
:102D40000B2185E391E40E943D0882E193E00E941B
:102D50004C080E94490865E070E080E090E00E9425
:102D60009E06AE01465F5F4F4EA75FA70C946020A2
:102D700005E615E4F12CE12CF8018181882309F4A2
:102D80007BC080818823E1F18481893220F590E045
:102D9000FC01E157FF4B40814F3FE9F0FC01E85453
:102DA000FF4B2081F0E22F9F900111243C5F8F5157
:102DB0009F4BDC01EC91E83000F5C9014096E80F2B
:102DC000F92FF11D9FB7F894D90112964C93808189
:102DD000886080839FBF61E377E080916A45E1145A
:102DE000F10421F063E377E0809180450E946F0257
:102DF00043C0EE24E394F12CBFCFF0E0E0E0E2CF5B
:102E000085818932B0F590E0FC01EF51FF4B2081C4
:102E10002F3F79F188549F4BDC018C91E82FE2958C
:102E2000EE0FE07EE20FF0E0E05FFB4F9081917FDC
:102E3000908390E0FC0134E0EE0FFF1F3A95E1F73C
:102E4000422F50E0CC24C394D12C02C0CC0CDD1C0A
:102E50002A95E2F7C382880F991FFC01EB5AFF4BBA
:102E6000440F551F0190F081E02DE40FF51F1082F3
:102E70001182D80111961C92B6E1BE9DF001BF9D52
:102E8000F00D1124EB59FA4B86859785A089B189FD
:102E9000892B8A2B8B2BC9F04685578560897189D0
:102EA000D8011A968D909D90AD90BC901D97480DBD
:102EB000591D6A1D7B1D1A964D935D936D937C93EE
:102EC0001D9716861786108A118A0A5E1F4FEA948C
:102ED000EF2809F08ECF789420901A4030901B4054
:102EE000F101E853FF4F2081318142815381648198
:102EF000758186819781810100531F4FF8014080C1
:102F0000518062807380D101BC91BCABF101F18131
:102F1000F8AFD1011296BC91BCAFF101F381FEAFC5
:102F2000D1011496BC912196BFAF2197F101F58193
:102F30002596FFAF2597D1011696BC912796BFAF76
:102F40002797F101F7812B96FFAF2B97D101BC9109
:102F50002F96BFAF2F97F101F1816396FFAF639773
:102F6000D1011296BC916796BFAF6797F101F381CB
:102F70006B96FFAF6B97D1011496BC916D96BFAF66
:102F80006D97F101F581A196FFAFA197D10116963A
:102F9000BC91A596BFAFA597F101F781A996FFAFA8
:102FA000A997D801CD90DD90ED90FC901397C8AA19
:102FB000D9AAEAAAFBAA8D909D90AD90BC900E94E0
:102FC00055226B017C01C301B2010E941A229B01B0
:102FD000AC01C701B6010E947B216B017C012CA9C9
:102FE00038AD4CAD5EAD21966FAD219725967FAD86
:102FF000259727968FAD27972B969FAD2B970E94ED
:1030000014222B013C012F962FAD2F9763963FADD5
:10301000639767964FAD67976B965FAD6B976D96AD
:103020006FAD6D97A1967FADA197A5968FADA59732
:10303000A9969FADA9970E9414229B01AC01C301E0
:10304000B2010E9455232B013C0168A979A98AA9E4
:103050009BA90E941A229B01AC01C301B2010E94EC
:103060007B212B013C01C501B4010E941A229B0166
:10307000AC01C301B2010E947B219B01AC01C701DD
:10308000B6010E940F210E94C223C0901640D0902A
:103090001740E0901840F09019402A96CCAEDDAE73
:1030A000EEAEFFAE2A97A70196010E9455236093CA
:1030B000794470937A4480937B4490937C44D80104
:1030C0008D909D90AD90BC90E0911C40F0911D4082
:1030D0002C96EEAFFFAF2C9760915A4470915B44F1
:1030E00080915C4490915D440E9418226B017C01A8
:1030F0002C96AEADBFAD2C971196A50194010E9400
:10310000B2240E941A229B01AC01C701B6010E94A1
:103110007B2162966CAF7DAF8EAF9FAF6297F091CF
:103120006044E596FFAFE597C0900E40D0900F4009
:10313000E0901040F0901140E996CCAEDDAEEEAEDE
:10314000FFAEE99720911240309113404091144016
:10315000509115406A962CAF3DAF4EAF5FAF6A9766
:103160004AEF53E448AF59AF61E674E46EAF7FAF06
:103170008DE390E422968EAF9FAF2297AAE2B4E44B
:103180002696AEAFBFAF2697E2E4F4E46C96EEAFBE
:10319000FFAF6C9722E134E42CAF3DAF1CAA1DAA0F
:1031A00008AB19AB2C964EAD5FAD2C976CA97DA9E1
:1031B000641775076CF0C1018C5F9E4F82159305F3
:1031C00009F40AC4D1011C92F10131961F01F6CF16
:1031D0000CA91DA983E0000F111F8A95E1F7020DCC
:1031E000131DD8011896BC91EA96BFAFEA97F80173
:1031F000F185EB96FFAFEB97D8011A96BC91EC9650
:10320000BFAFEC97F801F385ED96FFAFED97D801CE
:103210001C96BC91EE96BFAFEE97F801F585EF9640
:10322000FFAFEF97D8011E96BC91C158DF4FB8830E
:10323000CF57D040F801F785C058DF4FF883C0580A
:10324000D0406C96AEADBFAD6C97CD90DD90ED905B
:10325000FD906C96AEAFBFAF6C97A096CCAEDDAED6
:10326000EEAEFFAEA097F801F0ADCF57DF4FF88379
:10327000C158D040D801D996BC91CE57DF4FB88302
:10328000C258D040F801F2ADCD57DF4FF883C35894
:10329000D040D801DB96BC91CC57DF4FB883C458DF
:1032A000D040F801F4ADCB57DF4FF883C558D0407C
:1032B000D801DD96BC91CA57DF4FB883C658D040BD
:1032C000F801F6ADC957DF4FF883C758D040D80191
:1032D000DF96BC91C857DF4FB883C858D0402696B8
:1032E000AEADBFAD2697CD90DD90ED90FD902696CA
:1032F000AEAFBFAF2697A496CCAEDDAEEEAEFFAEBE
:10330000A497A8A9B9A9CD90DD90ED90FC90A896BE
:10331000CCAEDDAEEEAEFFAEA897F101F081C7579F
:10332000DF4FF883C958D040D1011196BC91C657E0
:10333000DF4FB883CA58D040F101F281C557DF4F43
:10334000F883CB58D040D1011396BC91C457DF4FBE
:10335000B883CC58D040F101F481C357DF4FF883D4
:10336000CD58D040D1011596BC91C257DF4FB883DC
:10337000CE58D040F101F681C157DF4FF883CF58C6
:10338000D040D1011796BC91C057DF4FB883C059C8
:10339000D0407801E8E9EE0EF11CD701BC91CF5680
:1033A000DF4FB883C159D040F701F181CE56DF4FCE
:1033B000F883C259D040D7011296BC91CD56DF4F49
:1033C000B883C359D040F701F381CC56DF4FF8835F
:1033D000C459D040D7011496BC91CB56DF4FB88367
:1033E000C559D040F701F581CA56DF4FF883C65959
:1033F000D040D7011696BC91C956DF4FB883C75944
:10340000D040F701F781C856DF4FF883C859D04044
:10341000A8A9B9A92D913D914D915C911397AC96B6
:103420002CAF3DAF4EAF5FAFAC972D913D914D911D
:103430005C91E0962CAF3DAF4EAF5FAFE097229628
:10344000AEADBFAD22972D913D914D915D912296EC
:10345000AEAFBFAF229766962CAF3DAF4EAF5FAF1A
:103460006697D801A859BF4F2C9111963C9111979E
:1034700012964C91129713965C91139714966C9137
:10348000149715967C91159716968C91169717960A
:103490009C91E8A9F9A980809180A280B380D7018E
:1034A000BC91C756DF4FB883C959D040F701F181AD
:1034B000C656DF4FF883CA59D040D7011296BC9147
:1034C000C556DF4FB883CB59D040F701F381C456BE
:1034D000DF4FF883CC59D040D7011496BC91C35626
:1034E000DF4FB883CD59D040F701F581C256DF4F89
:1034F000F883CE59D040D7011696BC91C156DF4F04
:10350000B883CF59D040F701F781C056DF4FF88319
:10351000C05AD040D701BC91CF55DF4FB883C15AB4
:10352000D040F701F181CE55DF4FF883C25AD04029
:10353000D7011296BC91CD55DF4FB883C35AD04006
:10354000F701F381CC55DF4FF883C45AD040D7013F
:103550001496BC91CB55DF4FB883C55AD040F701C4
:10356000F581CA55DF4FF883C65AD040D701169669
:10357000BC91C955DF4FB883C75AD040F701F781D6
:10358000C855DF4FF883C85AD040A8A9B9A94D90B3
:103590005D906D907C901397CD90DD90ED90FC90B8
:1035A000E496CCAEDDAEEEAEFFAEE4977ED76B0117
:1035B0007C01C501B4013ED79B01AC01C701B60136
:1035C0009AD66B017C01C756DF4F2881C959D0407C
:1035D000C656DF4F3881CA59D040C556DF4F4881A3
:1035E000CB59D040C456DF4F5881CC59D040C35638
:1035F000DF4F6881CD59D040C256DF4F7881CE5918
:10360000D040C156DF4F8881CF59D040C056DF4FE0
:103610009881C05AD04008D74B015C01CF55DF4F8D
:103620002881C15AD040CE55DF4F3881C25AD04090
:10363000CD55DF4F4881C35AD040CC55DF4F58811C
:10364000C45AD040CB55DF4F6881C55AD040CA55C7
:10365000DF4F7881C65AD040C955DF4F8881C75A9D
:10366000D040C855DF4F9881C85AD040DDD69B0165
:10367000AC01C501B4010E9455234B015C01C3019B
:10368000B201D8D69B01AC01C501B40134D64B01BF
:103690005C01E4966CAD7DAD8EAD9FADE497CAD66E
:1036A0009B01AC01C501B40126D69B01AC01C70149
:1036B000B601B5D50E94C2232B013C01D801AC5202
:1036C000BF4F8C9011969C90119712964C91129727
:1036D00013965C91139714966C91149715967C91A0
:1036E00015971696FC9116971796EC91A8A9B9A96B
:1036F0000D911D912D913C91D901C801BB0F880BF3
:10370000982FDC0158016901E82EF82E082F182F98
:1037100094018F2F9E2F0E94BA24C7D6EEADFFAD25
:103720006193719381939193EEAFFFAFACADBDAD5B
:10373000CD90DD90ED90FC90E596BFADE597BB2375
:1037400009F43AC1EA962FADEA97EB963FADEB97B5
:10375000EC964FADEC97ED965FADED97EE966FADB5
:10376000EE97EF967FADEF97C158DF4F8881CF5727
:10377000D040C058DF4F9881C058D04055D6A09651
:103780002CAD3DAD4EAD5FADA0978FD74B015C0129
:10379000CF57DF4F2881C158D040CE57DF4F3881F7
:1037A000C258D040CD57DF4F4881C358D040CC5786
:1037B000DF4F5881C458D040CB57DF4F6881C55880
:1037C000D040CA57DF4F7881C658D040C957DF4F25
:1037D0008881C758D040C857DF4F9881C858D0401B
:1037E00023D6A4962CAD3DAD4EAD5FADA4975DD76D
:1037F0009B01AC01C501B40113D54B015C01A89636
:103800006CAD7DAD8EAD9FADA89714D69B01AC017C
:10381000C501B40170D54B015C01C757DF4F28814A
:10382000C958D040C657DF4F3881CA58D040C55715
:10383000DF4F4881CB58D040C457DF4F5881CC5818
:10384000D040C357DF4F6881CD58D040C257DF4FBB
:103850007881CE58D040C157DF4F8881CF58D040B3
:10386000C057DF4F9881C059D040DED52B013C01B5
:10387000CF56DF4F2881C159D040CE56DF4F388117
:10388000C259D040CD56DF4F4881C359D040CC56A5
:10389000DF4F5881C459D040CB56DF4F6881C5599E
:1038A000D040CA56DF4F7881C659D040C956DF4F45
:1038B0008881C759D040C856DF4F9881C859D04039
:1038C000B3D59B01AC01C301B201EFD62B013C0182
:1038D000AC966CAD7DAD8EAD9FADAC97ABD59B017D
:1038E000AC01C301B20107D52B013C01E0966CADE0
:1038F0007DAD8EAD9FADE0979DD59B01AC01C30121
:10390000B201F9D49B01AC01C501B40188D42A9657
:103910002CAD3DAD4EAD5FAD2A97C7D666962CADAA
:103920003DAD4EAD5FAD6697C0D66A962CAD3DAD50
:103930004EAD5FAD6A97B9D662962CAD3DAD4EAD3A
:103940005FAD6297D8D4A70196016AD46B017C0160
:1039500020E030E041E655E4CED435D5E8ADF9AD10
:103960000191119121913191E8AFF9AF3497072E70
:10397000000C880B990B060F171F281F391F008397
:1039800011832283338356D520E030E041E655E4AD
:103990008CD69B01AC01C701B60141D4ACADBDAD25
:1039A0006D937D938D939D93ACAFBDAFECA9FDA9B5
:1039B0003196ECABFDABF6CBA301920166966CADF4
:1039C0007DAD8EAD9FAD669770D6E9962CAD3DADC1
:1039D0004EAD5FADE997A8CF8091F943882309F4F4
:1039E000EAC0F12C16E0E12E8091F843F816B8F009
:1039F00090910D40282F30E0220F331FE091F443C7
:103A0000F091F543E20FF31F891708F0CDC020E3D2
:103A1000C22E25E7D22EC192D1928F5FF5CF2DEC29
:103A20003CEC4CE45EE36091124070911340809155
:103A300014409091154058D40F2D10E087FF10C00E
:103A4000000F111FE091F443F091F543E00FF11FD7
:103A5000A0ECCA2EA6E7DA2EC082D182F394C4CF9E
:103A60000E948407882361F3580163E0AA0CBB1C01
:103A70006A95E1F7E091F643F091F743EA0DFB1DFB
:103A800080818823E9F260E085E50E943507D12C2A
:103A9000C12CE091F643F091F743EA0DFB1DEC0DCC
:103AA000FD1D60E080810E9435072FEFC21AD20A07
:103AB00038E0C316D10469F760E08EEB0E94350749
:103AC000AE014F5F5F4F6A015A0158E0852E912C7D
:103AD000712C662463940E942C0381117628660C55
:103AE00051E0851A9108B9F7D5017D925D01EEA5E7
:103AF000FFA5AE17BF0749F799E0E0E0915099F0B4
:103B0000D6018D916D018E27E82FEF70F0E0E75020
:103B1000FC4F2491E82FE295EF70F0E0E75FFB4F58
:103B2000E491E227EBCF89858E1335C029813A8154
:103B3000E29EC001E39E900D1124359527953595A1
:103B40002795820F931F2D81211102C080EC96E7EB
:103B50002F812C3021F48433B1E29B07F9F0803CB3
:103B6000E6E79E0731F09C0124583A4E2135364451
:103B7000C0F4000F111F2091F4433091F543020F60
:103B8000131FD8018D939C9361E070E080E090E07A
:103B90000E949E0663CF80EC96E7D5CF80EC96E737
:103BA000E8CF88EF95E7E5CF60E080910C400E9478
:103BB000C30A1092F343D0906044D8AA2D2C312C24
:103BC0008091844490918544A0918644B09187442B
:103BD0000196A11DB11D8093844490938544A093C8
:103BE0008644B093874460916144709162448091AF
:103BF000634490916444E7D32B0160938A447093AB
:103C00008B446091654470916644809167449091C3
:103C10006844D9D34B0160938C4470938D44609178
:103C2000694470916A4480916B4490916C44CBD309
:103C30006CAB7DAB8EAB9FAB60938E4470938F4427
:103C400060916D4470916E4480916F449091704486
:103C5000BAD368AF79AF8AAF9BAF6093904470934B
:103C60009144609171447091724480917344909139
:103C70007444A9D36B016093924470939344609110
:103C800075447091764480917744909178449BD3A9
:103C900060939444709395442FE9421A27E0520AA6
:103CA00031E020E045E94416510408F030E0032FEC
:103CB000122F5FE9851A57E0950AA5E98A16910443
:103CC00010F40F5F1F4F2CA93DA92F5937402539FC
:103CD000310510F40F5F1F4F28AD39AD2F59374014
:103CE0002539310510F40F5F1F4FBFE9CB1AB7E03C
:103CF000DB0AE5E9CE16D10410F40F5F1F4F6F59B0
:103D000077406539710510F40F5F1F4F20E030E0F8
:103D100048EC52E46091794470917A4480917B44FC
:103D200090917C44C2D44FD360938844709389446B
:103D30007B01F1EFEF1AF5E5FF0A88248394912CBB
:103D40002FE9E2162FE0F20610F0912C812C8091E1
:103D50007E4490917F4480939644909397448091C1
:103D600080449091814480939844909399448091A9
:103D700082449091834480939A4490939B44809191
:103D80006F4590917045A0917145B09172458093B7
:103D90009C4490939D44A0939E44B0939F448091F3
:103DA0007D44882309F47FC0D12CD092AD458DE3AA
:103DB0000E94C703682F64608DE30E94BA030E94CB
:103DC000CE062B013C018091A744803109F001C24D
:103DD0008091A1448111FDC184E20E94C70390E05B
:103DE0009195819591098C349F4F0CF0F2C184E03C
:103DF0000E94D30384E00E94D30387E20E94C7039A
:103E000087FFFBCF0E94B00380E80E9499038FE1F7
:103E10000E94990385E00E9499038091AC450E941D
:103E2000990380E40E94990384E8A82E84E4B82EC4
:103E3000D5018D915D010E949903B0EAAB16B4E4FF
:103E4000BB06B1F70E948F038CE00E94D30388E287
:103E50000E94C70383FFFBCF84E00E94D3030E942C
:103E6000CE062B013C010E94CE0664197509860915
:103E700097096E3171058105910508F0B9C10E945D
:103E8000550A882381F38091A4449091A544059715
:103E900051F78091A044882331F383E591E40E9497
:103EA0003D080E94490862E370E080E090E00E94D3
:103EB0009E0688E794E00E94FC056091844470911E
:103EC000854480918644909187444AE00E94560838
:103ED00081E794E00E94FC056091884470918944D8
:103EE000072E000C880B990BA5D22AE037ED43E290
:103EF0005CE3DBD30E948E098CE694E00E94FC0513
:103F000080918A4490918B440E94610987E694E0F5
:103F10000E94FC0580918C4490918D440E9461091F
:103F200082E694E00E94FC0580918E4490918F443B
:103F30000E9461098DE594E00E94FC058091904407
:103F4000909191440E94610988E594E00E94FC05EB
:103F500080919244909193440E94610983E594E09A
:103F60000E94FC0580919444909195440E946109BF
:103F7000809196449091974480339547A1F08EE4C8
:103F800094E00E94FC056091964470919744072E3E
:103F9000000C880B990B4ED22AE037ED43E25CE32C
:103FA00084D30E948E0980919844909199448033E3
:103FB0009547A1F089E494E00E94FC056091984443
:103FC00070919944072E000C880B990B33D22AE08C
:103FD00037ED43E25CE369D30E948E0980919A44F5
:103FE00090919B4480339547A1F084E494E00E9433
:103FF000FC0560919A4470919B44072E000C880B3D
:10400000990B18D22AE037ED43E25CE34ED30E94CD
:104010008E098CE394E00E94FC0560919C447091B1
:104020009D4480919E4490919F444AE00E9456088E
:1040300083E394E00E94FC05C1010E9461098BE2C8
:1040400094E00E94FC05C4010E94610981E294E0B1
:104050000E94FC05C8010E94610989E194E00E9468
:10406000FC0580917D4490E00E9461090E9449080E
:1040700068E270E080E090E00E949E06C8A8CC2034
:1040800009F4BDC02FE9E2162FE0F20608F0B7C030
:104090000630110509F0B3C060E080E10E94C30A58
:1040A00062E370E080E090E00E949E0661E080E1C3
:1040B0000E94C30A64E170E080E090E00E949E06E6
:1040C00080915F44882369F110925F448091F943A5
:1040D000882339F180910C4087FD19C08932A4F4FE
:1040E000282F082E000C330BF901E157FF4B90816C
:1040F0009F3F51F028543F4BD901EC91B0E2EB9F28
:10410000F0011124FC5F918361E00E94C30A0E94C8
:10411000840760E08CEC0E94350761E084E40E9433
:10412000350780915E44882329F210925E44F8940A
:1041300020911C4030911D4040911A4050911B40ED
:1041400090E080E08217930714F00C94B816FC01FD
:10415000E855FB4B608161113AC0FC0113E0EE0FA2
:10416000FF1F1A95E1F7E40FF51F108611861286DE
:104170001386148615861686178610AE11AE12AEFB
:1041800013AE14AE15AE16AE17AEDF01A859BF4F71
:104190001C9211961C92119712961C9212971396CC
:1041A0001C92139714961C92149715961C921597AF
:1041B00016961C92169717961C92E856FF4F10827F
:1041C000118212821382148215821682178201963E
:1041D000B9CF0E94CE066419750986099709683E11
:1041E00073408105910508F005CE0E94550AEBCD7C
:1041F000D394E3E0DE12D9CD80E591E450CE61E0C6
:1042000080E10E94C30A62E370E080E090E00E94D7
:104210009E0660E04CCF86E291E40C94A3165058C1
:10422000BB27AA270ED0F2C1BBD130F0C0D120F0FD
:1042300031F49F3F11F41EF4A0C10EF4E095E7FBAA
:1042400096C1E92F05D280F3BA1762077307840776
:10425000950718F071F49EF51DC20EF4E0950B2E33
:10426000BA2FA02D0B01B90190010C01CA01A001C8
:104270001124FF27591B99F0593F50F4503E68F123
:104280001A16F040A22F232F342F4427585FF3CF64
:10429000469537952795A795F0405395C9F77EF435
:1042A0001F16BA0B620B730B840BBAF09150A1F07E
:1042B000FF0FBB1F661F771F881FC2F70EC0BA0F04
:1042C000621F731F841F48F4879577956795B7958C
:1042D000F7959E3F08F0B3CF9395880F08F0992784
:1042E000EE0F9795879508951ED108F481E0089503
:1042F00066D1E3959CC10CD089C159D140F050D111
:1043000030F021F45F3F19F032C15111C4C135C101
:104310009FD198F39923C9F35523B1F3951B550BFE
:10432000BB27AA2762177307840738F09F5F5F4F88
:10433000220F331F441FAA1FA9F333D00E2E3AF0C9
:10434000E0E830D091505040E695001CCAF729D0E3
:10435000FE2F27D0660F771F881FBB1F2617370732
:104360004807AB07B0E809F0BB0B802DBF01FF2762
:1043700093585F4F2AF09E3F510568F0F8C08BC1FB
:104380005F3FECF3983EDCF3869577956795B7959C
:10439000F7959F5FC9F7880F911D9695879597F9B7
:1043A0000895E1E0660F771F881FBB1F6217730730
:1043B0008407BA0720F0621B730B840BBA0BEE1F45
:1043C00088F7E095089504D06894B11164C1089508
:1043D00047D188F09F5790F0B92F9927B751A0F097
:1043E000D1F0660F771F881F991F1AF0BA95C9F789
:1043F00012C0B13081F04ED1B1E008954BC1672FAA
:10440000782F8827B85F39F0B93FCCF38695779538
:104410006795B395D9F73EF4909580957095619521
:104420007F4F8F4F9F4F089597FB0EF4A9D03EC04A
:10443000E89409C097FB3EF490958095709561953E
:104440007F4F8F4F9F4F9923A9F0F92F96E9BB27F4
:104450009395F695879577956795B795F111F8CF70
:10446000FAF4BB0F11F460FF1BC06F5F7F4F8F4FDB
:104470009F4F16C0882311F096E911C0772321F0D1
:104480009EE8872F762F05C0662371F096E8862F69
:1044900070E060E02AF09A95660F771F881FDAF7C0
:1044A000880F9695879597F90895E894F92F96EBDC
:1044B000FF2381F0121613061406440B9395F6950C
:1044C00087957795679557954040FF23B9F71BC0AF
:1044D00099270895882351F49850D2F7872B762F87
:1044E000652F542F432F322F20E0B1F312161306FD
:1044F0001406440B88233AF09A95440F551F661F03
:10450000771F881FCAF755234AF4440F551F11F42B
:1045100060FF04C06F5F7F4F8F4F9F4F880F96954E
:10452000879597F90895990F0008550FAA0BE0E8B1
:10453000FEEF16161706E807F907C0F01216130665
:10454000E407F50798F0621B730B840B950B39F4A5
:104550000A2661F0232B242B252B21F408950A260B
:1045600009F4A140A6958FEF811D811D089597F94B
:104570009F6780E870E060E008959FEF80EC089509
:1045800090958095709560955095409530952195C2
:104590003F4F4F4F5F4F6F4F7F4F8F4F9F4F08954C
:1045A00000240A9416161706180609060895002412
:1045B0000A9412161306140605060895DECF50D08D
:1045C000E8F3E894E0E0BB279F57F0F02AED3FE0E6
:1045D00049EC06C0EE0FBB0F661F771F881F28F03F
:1045E000B23A62077307840728F0B25A620B730B62
:1045F000840BE3959A9572F7803830F49A95BB0F47
:10460000661F771F881FD2F7904800C1092E0394B8
:10461000000C11F4882352F0BB0F40F4BF2B11F4AF
:1046200060FF04C06F5F7F4F8F4F9F4F0895EF93E0
:10463000E0FF06C0A2EA2AED3FE049EC5FEB01DEB5
:10464000E5DF0F90039401FC9058E4EFF2E0F1C035
:1046500057FD9058440F551F59F05F3F71F0479533
:10466000880F97FB991F61F09F3F79F08795089518
:10467000121613061406551FF2CF4695F1DF08C037
:10468000161617061806991FF1CF86957105610554
:1046900008940895E894BB2766277727CB0197F9FC
:1046A000089541DF08F48FEF08950BD0AFCF78DF86
:1046B00028F07DDF18F0952309F059CF5ECF112443
:1046C000EACFC6DFA0F3959FD1F3950F50E0551FB9
:1046D000629FF001729FBB27F00DB11D639FAA2757
:1046E000F00DB11DAA1F649F6627B00DA11D661FA6
:1046F000829F2227B00DA11D621F739FB00DA11DC7
:10470000621F839FA00D611D221F749F3327A00D80
:10471000611D231F849F600D211D822F762F6A2F1C
:1047200011249F5750408AF0E1F088234AF0EE0FA1
:10473000FF1FBB1F661F771F881F91505040A9F7AE
:104740009E3F510570F013CFA6CF5F3FECF3983E2C
:10475000DCF3869577956795B795F795E7959F5F15
:10476000C1F7FE2B880F911D9695879597F90895AF
:104770009F9325DF0F9007FCEE5F59CF11F40EF4E5
:10478000FCCE42C06DDFD0F39923D9F3CEF39F570F
:10479000550B87FF47D00024A0E640EA90018058DF
:1047A0005695979528F4805C660F771F881F20F038
:1047B00026173707480730F4621B730B840B202938
:1047C00031294A2BA69517940794202531254A278D
:1047D00058F7660F771F881F20F0261737074807FE
:1047E00030F4620B730B840B200D311D411DA0951D
:1047F00081F7B901842F9158880F96958795089570
:1048000092DE880B990B08959F3F31F0915020F470
:10481000879577956795B795880F911D969587959C
:1048200097F9089591505040660F771F881FD2F76F
:1048300008959F938F937F936F93FF93EF939B01C3
:10484000AC0133DFEF91FF9105D02F913F914F9154
:104850005F912BCFDF93CF931F930F93FF92EF9234
:10486000DF927B018C01689405C0DA2EEF0129DF0D
:10487000FE01E894A5912591359145915591AEF3AE
:10488000EF01DFDCFE019701A801DA9479F7DF90F0
:10489000EF90FF900F911F91CF91DF910895A1E2CA
:1048A0001A2EAA1BBB1BFD010DC0AA1FBB1FEE1FAA
:1048B000FF1FA217B307E407F50720F0A21BB30BF5
:1048C000E40BF50B661F771F881F991F1A9469F771
:1048D00060957095809590959B01AC01BD01CF01CD
:1048E0000895052E97FB16F400940FD057FD05D0C0
:1048F000D6DF07FC02D046F408C0509540953095AD
:1049000021953F4F4F4F5F4F08959095809570953B
:1049100061957F4F8F4F9F4F089505D0332312F439
:104920008A1B9B0B10C0A29FB001B39FC001A39F25
:10493000700D811D1124911DB29F700D811D1124D8
:10494000911D0895F0DFB7FF0895821B930B089522
:10495000EADFA59F900DB49F900DA49F800D911D3F
:1049600011240895B7FFF4CFF3DF821B930B089552
:10497000689401C0E8948F929F92CF93DF9305D003
:10498000DF91CF919F908F90089588249924F4010E
:10499000E401B0E49F93AA279A158B049C04ED05CB
:1049A000FE05CF05D007A10798F4AD2FDC2FCF2F40
:1049B000FE2FE92D982C892E982F872F762F652F83
:1049C000542F432F322F2227B85031F7BF9127C0E1
:1049D0001B2EBF91BB27220F331F441F551F661F7D
:1049E000771F881F991F881C991CEE1FFF1FCC1F63
:1049F000DD1FAA1FBB1F8A149B04EC05FD05CE0515
:104A0000DF05A007B10748F08A189B08EC09FD09EB
:104A1000CE09DF09A00BB10B21601A94E1F62EF448
:104A20009401AF01BE01CD01000C08952A0D3B1D7C
:104A30004C1D5D1D6E1D7F1D801F911F0895EE0F83
:104A4000FF1F0024001C0BBE0790F691E02D099477
:044A5000F894FFCF08
:104A540058415F010000D04233335340FF0100004E
:104A6400704300002041000048445C4204000001FF
:104A740002030405060000C03F0000C03F0000C060
:104A84003F0000C03F0000C03F0000C03F662696C4
:104A94004266269642662696426626964266269682
:104AA4004266269642B043A04390438043704360DD
:104AB400430000050A0000000000404040400000A0
:104AC400000000002223000000000000000000009D
:104AD4000000800000000000000000002021000110
:104AE400020408102040800102040810200102047E
:104AF40008102040800102040810204080010204B4
:104B0400080102040810204000000000000000001A
:104B14000101010101010202020202020202030375
:104B24000303030303030404040405050505050541
:104B34000500010203040506070001020304050041
:104B44000102030405060700010203040506070029
:104B54000102030001020304050600000000B00581
:104B64002A062C0416065D043B044F043408800412
:104B7400690457060D0A006E616E00696E66006F67
:104B84007666002E00204E4F5400383974786265E2
:104B940034703861696B356B743300206F662000A4
:084BA4006E6F2061636B0000DD
:0400000300000200F7
:00000001FF
