:100000000C941F040C94A7170C9480170C944704AD
:100010000C9447040C9447040C9426180C94470441
:100020000C9447040C9447040C9447040C94470424
:100030000C9447040C9447040C9447040C94470414
:100040000C9436170C9447040C94F4170C94CE17A8
:100050000C9447040C9447040C9447040C944704F4
:100060000C9417160C94470453656E736F72206DD1
:100070006179206E6F742062652072656C696162BF
:100080006C6500200030002C207769746820616462
:10009000647265737365732E2E2E0044533138429B
:1000A000323020666F756E64203D20004453313835
:1000B00042323020656E61626C6564203D200070C4
:1000C000756C736520706572696F64203D200070E7
:1000D000756C736573203D2000204D487A002C20FC
:1000E00042616E6420002C204E6F646520004772D0
:1000F0006F75702000005EBCE2613FDD83C29C7EB4
:1001000020A3FD1F41009D23BE46DB65F88C11AF87
:1001100032CA57E9744C6F6164656420454550529A
:100120004F4D20636F6E66696700656D6F6E544852
:100130002072657374617274696E67207769746880
:100140002064656661756C7420636F6E6669672EE6
:1001500000526573657474696E672E2E2E000A0056
:10016000202868696464656E292E002062797465B0
:1001700073002C20446174612073697A653A200011
:10018000205369676E61747572653A20004E6F2066
:100190006461746120626C6F636B20666F756E645E
:1001A000202D20454550524F4D2061707065617281
:1001B0007320746F20626520666F726D6174746560
:1001C0006420746F204F454D205374616E646172DA
:1001D000642062757420756E757365642E000A0064
:1001E0002062797465732C206E6F7420666F726D57
:1001F000617474656420746F204F454D20537461A1
:100200006E646172640053697A653A2000446F6ECF
:10021000652E204E657720636F6E66696720736177
:1002200076656420746F20454550524F4D00200084
:10023000436F6E74696E75696E672E2E2E00456D64
:100240006F6E54485F56322056004E6F6465200032
:10025000206D730050756C7365733A200047726FA0
:1002600075702000204D487A00456E746572696E85
:10027000672053657474696E6773206D6F64652EB3
:100280002E2E0000000000240027002A000000009D
:1002900000250028002B00000000080002010000DB
:1002A00003040700000000000000000A41766169B5
:1002B0006C61626C6520636F6D6D616E64733A0A88
:1002C00020206C2020202020202020202D206C6940
:1002D0007374207468652073657474696E67730A3B
:1002E0002020722020202020202020202D20726518
:1002F00073746F726520736B6574636820646566E0
:1003000061756C74730A2020732020202020202027
:1003100020202D20736176652073657474696E6783
:100320007320746F20454550524F4D0A202076208F
:1003300020202020202020202D2073686F77206629
:1003400069726D776172652076657273696F6E0A86
:100350002020782020202020202020202D2065789B
:1003600069742C206C6F636B20616E6420636F6E08
:1003700074696E75650A20203F20202020202020EF
:1003800020202D2073686F7720746869732074654E
:10039000787420616761696E0A0A2020773C783E94
:1003A0002020202020202D207475726E2052464D72
:1003B00020576972656C657373202F2053657269CD
:1003C000616C206461746120626F7468206F66667E
:1003D0003A2078203D20302C20776972656C657357
:1003E00073206F6E6C793A20783D312C20736572E2
:1003F00069616C206F6E6C793A20783D32206F72A3
:1004000020626F74683A2078203D20330A202062F1
:100410003C6E3E2020202020202D20736574207209
:100420002E662E2062616E64206E203D2061207356
:10043000696E676C65206E756D6572616C3A20340B
:10044000203D203433334D487A2C2038203D20384D
:1004500036384D487A2C2039203D203931354D48E9
:100460007A20286D617920726571756972652068DE
:1004700061726477617265206368616E6765290ADD
:100480002020703C6E6E3E20202020202D207365A1
:10049000742074686520722E662E20706F776572E6
:1004A0002E206E6E202D20616E20696E746567654A
:1004B000722030202D203331207265707265736593
:1004C0006E74696E67202D31382064426D20746F20
:1004D000202B31332064426D2E2044656661756C9B
:1004E000743A20323520282B372064426D290A20A7
:1004F00020673C6E6E6E3E202020202D2073657498
:10050000204E6574776F726B2047726F7570202074
:100510006E6E6E202D20616E20696E746567657247
:1005200020284F454D2064656661756C74203D2020
:10053000323130290A20206E3C6E6E3E2020202071
:10054000202D20736574206E6F6465204944206EF1
:100550003D20616E20696E74656765722028737432
:10056000616E64617264206E6F64652069647320DB
:1005700061726520312E2E3630290A0A20206D3C0A
:10058000783E203C79793E202D206D65746572207F
:1005900070756C736520636F756E74696E673A0A67
:1005A00020202020202020202020202020202078F3
:1005B000203D203020666F72204F46462C20782048
:1005C0003D203120666F72204F4E2C203C79793EC1
:1005D000203D20616E20696E746567657220666FCC
:1005E00072207468652070756C7365206D696E6922
:1005F0006D756D20706572696F6420696E206D7312
:100600002E202879206973206E6F74206E656564D2
:1006100065642C206F722069676E6F726564207745
:1006200068656E2078203D2030290A202074302013
:100630003C793E202020202D207475726E20657834
:100640007465726E616C2074656D7065726174752D
:100650007265206D6561737572656D656E74206F6E
:100660006E206F72206F66663A0A202020202020BC
:100670002020202020202D2079203D203020666F52
:1006800072204F46462C2079203D203120666F7223
:10069000204F4E0A2020743C783E203C79793E2041
:1006A0003C79793E203C79793E203C79793E203C6A
:1006B00079793E203C79793E203C79793E203C791D
:1006C000793E0A2020202020202020202020202DBC
:1006D000206368616E676520616E2065787465725D
:1006E0006E616C2074656D706572617475726520E1
:1006F00073656E736F7227732061646472657373C0
:10070000206F7220706F736974696F6E3A0A2020CF
:10071000202020202020202020202D2078203D2057
:10072000612073696E676C65206E756D6572616CB2
:100730003A2074686520706F736974696F6E206FFA
:1007400066207468652073656E736F7220696E2011
:10075000746865206C6973742028312D626173653B
:1007600064290A2020202020202020202020202D45
:10077000207979203D203820686578616465636957
:100780006D616C2062797465732072657072657337
:10079000656E74696E67207468652073656E736F2B
:1007A00072277320616464726573730A20202020AD
:1007B0002020202020202020202020652E672E2091
:1007C0002032382038312034332033312030372064
:1007D00030302030302044390A20202020202020B2
:1007E00020202020202020204E2E422E2053656ED7
:1007F000736F72732043414E4E4F542062652061E7
:10080000646465642E0A000A0000000000230026CC
:100810000029000404040404040404020202020285
:1008200002030303030303010204081020408001B4
:1008300002040810200102040810200037181124B7
:100840001FBECFEFD8E0DEBFCDBF24E0AAE7B2E005
:1008500001C01D92A03DB207E1F712E0A0E0B1E0B7
:10086000E0EFFEE402C005900D92AA37B107D9F778
:1008700014E0CFE1D4E004C02197FE010E9451268C
:10088000CE31D107C9F70E9488190C9476270C94B1
:10089000000020912003260F3327331F213231051A
:1008A000ECF420918D03FC0190E080E0243069F0AD
:1008B00082E00895A09120032191AC0142505D4F48
:1008C000A40FB52FB11D2C930196861798F3809134
:1008D0002003680F6093200380E0089581E008956D
:1008E000089508950895E091460380914503E8171F
:1008F00030F4F0E0E95BFC4F808190E008958FEFE9
:100900009FEF089590914603809145032FEF3FEFAD
:10091000981748F4E92FF0E0E95BFC4F208130E0C4
:100920009F5F90934603C90108958091450390917C
:100930004603891B990B0895CF92DF92EF92FF92A5
:100940000F931F93CF93DF937C01CB018A012091FA
:100950009303222389F0EB016B01C40ED51ECC1545
:10096000DD0569F06991D701ED91FC910190F0816D
:10097000E02DC7010995F3CF642F0E944904C801F7
:10098000DF91CF911F910F91FF90EF90DF90CF906B
:100990000895CF93DF931F92CDB7DEB7698320917F
:1009A00093032223F9F02091B603203258F021E07E
:1009B00030E0FC013383228390E080E00F90DF91F0
:1009C000CF91089580919403E82FF0E0EB56FC4F0F
:1009D000998190838F5F809394038093B60381E025
:1009E00090E0ECCF61E0CE0101960E944904F7CF80
:1009F000833081F028F4813099F08230A9F0089595
:100A00008730A9F08830C9F08430B1F4809180003B
:100A10008F7D03C0809180008F7780938000089540
:100A200084B58F7784BD089584B58F7DFBCF809189
:100A3000B0008F778093B00008958091B0008F7DD3
:100A4000F9CFCF93DF93282F30E0F901E956FD4F1E
:100A50008491F901E95DF74FD491F901ED5EF74F0B
:100A6000C491CC23A1F081110E94F804EC2FF0E096
:100A7000EE0FFF1FE75FF74FA591B491EC91ED23C7
:100A800081E090E009F480E0DF91CF91089580E06B
:100A900090E0FACF1F93CF93DF93282F30E0F90136
:100AA000E956FD4F8491F901E95DF74FD491F901C1
:100AB000ED5EF74FC491CC23A9F0162F81110E944F
:100AC000F804EC2FF0E0EE0FFF1FE357FD4FA59168
:100AD000B4918FB7F894EC91111108C0D095DE2332
:100AE000DC938FBFDF91CF911F910895DE2BF8CF5C
:100AF00010928D0381E080938C031092670361E074
:100B000082E10E944A0561E083E10E944A05E9EB27
:100B1000F0E080818E7F808380818D7F808388E478
:100B20008093B80085E48093BC000895CF93DF9351
:100B300091E09093FD028823B9F0C091B800D09164
:100B4000BA008091BC008A7B8093BC0060E082E1A7
:100B50000E944A0560E083E10E944A050E947805F0
:100B6000D093BA00C093B800DF91CF910895CF938E
:100B7000DF9390E0FC01E95DF74F24918D5E974F84
:100B8000FC0184918823C9F090E0880F991FFC0133
:100B9000ED57FD4FA591B491FC01E357FD4FC59171
:100BA000D49161110DC09FB7F8948C912095822348
:100BB0008C938881282328839FBFDF91CF9108954C
:100BC000623051F49FB7F8943C91822F8095832333
:100BD0008C93E8812E2BEFCF8FB7F894EC912E2BCE
:100BE0002C938FBFEACF3FB7F8948091F902909190
:100BF000FA02A091FB02B091FC0226B5A89B05C0A9
:100C00002F3F19F00196A11DB11D3FBFBA2FA92F8B
:100C1000982F8827BC01CD01620F711D811D911D88
:100C200042E0660F771F881F991F4A95D1F70895F4
:100C30008F929F92AF92BF92CF92DF92EF92FF92EC
:100C40000F931F93CF93DF93D091B603D13208F067
:100C5000D7C0182FC091B5030E94F3056B017C012A
:100C600080918D0381116BC082E080938D0310937E
:100C70008C038FEF80938B0310928A03D0938903A8
:100C8000A5E9B3E0E9E6F3E080E0D81391C0109263
:100C9000680380916803CC0FC82BC09368038091D0
:100CA0006703813009F088C0109267030E94F30542
:100CB0006B017C01809168038093BB0080918F035E
:100CC00090919003A0919103B0919203892B8A2B6C
:100CD0008B2BA1F00E94F30500918F0310919003DC
:100CE00020919103309192036C197D098E099F091F
:100CF000061717072807390708F442C08091BC007F
:100D000083FDD8CF85EC8093BC000E94F3056B0176
:100D10007C0180918D03823009F450C080918B0357
:100D20008F3F09F46FC080918B03803209F46CC04F
:100D300080918B03803309F469C084E026C08091E0
:100D40008F0390919003A0919103B0919203892B0E
:100D50008A2B8B2B09F484CF0E94F30580908F039C
:100D600090909003A0909103B09092036C197D092C
:100D70008E099F0986169706A806B90608F070CF57
:100D800080918E030E94960585E010929403109244
:100D9000B60310929303DF91CF911F910F91FF90B3
:100DA000EF90DF90CF90BF90AF909F908F9008957D
:100DB0009D9191938F5F69CF85EEA5CF80918F0331
:100DC00090919003A0919103B0919203892B8A2B6B
:100DD0008B2B09F49ECF0E94F30500918F03109195
:100DE000900320919103309192036C197D098E0933
:100DF0009F09061717072807390708F08ACFC0CFC1
:100E000081E0C3CF80E0C1CF82E0BFCF83E0BDCF20
:100E10000F931F93CF93DF93EC018B0181E08093BD
:100E2000930380E48093B503109294031092B60369
:100E3000688187EB93E00E94C9040130110529F015
:100E4000698187EB93E00E94C90481E0DF91CF9133
:100E50001F910F910C9418068F929F92AF92BF92A0
:100E6000CF92DF92EF92FF926B017C010E94F3051B
:100E70004B015C01C114D104E104F104B9F00E94FA
:100E8000F305681979098A099B09683E7340810551
:100E9000910580F321E0C21AD108E108F10888EE3B
:100EA000880E83E0981EA11CB11CE4CFFF90EF9048
:100EB000DF90CF90BF90AF909F908F9008952FB705
:100EC000F8946091F5027091F6028091F70290918A
:100ED000F8022FBF0895089581E08093CE02E0913B
:100EE0006D04F0916E040484F585E02D309709F0CF
:100EF00009940895AF92BF92CF92DF92EF92FF9242
:100F00000F931F93CF93DF936C017B018B01040F31
:100F1000151FEB015E01AE18BF08C017D10759F0CD
:100F20006991D601ED91FC910190F081E02DC6010F
:100F30000995892B79F7C501DF91CF911F910F9109
:100F4000FF90EF90DF90CF90BF90AF900895FC019D
:100F5000538D448D252F30E0842F90E0821B930B1E
:100F6000541710F0CF96089501970895FC01918DC4
:100F7000828D981761F0A28DAE0FBF2FB11D5D96C7
:100F80008C91928D9F5F9F73928F90E008958FEF69
:100F90009FEF08958F929F92AF92BF92EF92FF9230
:100FA0000F931F93CF93DF937B018C01D0E0C0E0C0
:100FB0000E945F076093CB037093CC038093CD03B3
:100FC0009093CE0383EC93E00E94B60797FF27C06F
:100FD0000E945F078090CB039090CC03A090CD033C
:100FE000B090CE03681979098A099B098090C703DC
:100FF0009090C803A090C903B090CA036815790502
:101000008A059B05F8F2CE01DF91CF911F910F91D8
:10101000FF90EF90BF90AF909F908F900895F80150
:1010200081938F012196EC16FD0611F6ECCFFC01A1
:10103000918D828D981731F0828DE80FF11D858D8D
:1010400090E008958FEF9FEF08950F931F930E94F4
:101050005F076093CB037093CC038093CD03909391
:10106000CE0383EC93E00E94170897FF1DC00E94F7
:101070005F070091CB031091CC032091CD033091F9
:10108000CE03601B710B820B930B0091C703109171
:10109000C8032091C9033091CA0360177107820702
:1010A0009307F8F28FEF9FEF1F910F910895CF9262
:1010B000DF92EF92FF92CF930E942508FC0197FDEB
:1010C0004EC08D32910521F0C0970A9708F040C0BC
:1010D000C12CD12C7601C0E0E130F105D1F0ED3228
:1010E000F105D9F1CF01C0970A9798F4AAE0B0E0D2
:1010F000A70196010E94ED256F01FF0FEE08FF0882
:10110000C60ED71EE81EF91E80E3C81AD108E108F2
:10111000F10883EC93E00E94B6070E942508FC01C9
:10112000C0970A97C8F2E130F105B1F2CC2341F043
:10113000F094E094D094C094C11CD11CE11CF11C2B
:10114000C701B601CF91FF90EF90DF90CF90089547
:1011500083EC93E00E94B607AFCFC1E0DACFC12C99
:10116000D12C7601EDCFFC01918D228D892F90E05D
:10117000805C9F4F821B91098F739927089583ECA0
:1011800093E00E94B30821E0892B09F420E0822F2C
:10119000089580E090E0892B29F00E94BF0881111A
:1011A0000C9400000895FC01A48DA80FB92FB11D67
:1011B000A35ABF4F2C91848D90E001968F7399278D
:1011C000848FA689B7892C93A089B1898C9183706B
:1011D00080648C93938D848D981306C00288F38964
:1011E000E02D80818F7D80830895EF92FF920F9391
:1011F0001F93CF93DF93EC0181E0888F9B8D8C8DC3
:1012000098131AC0E889F989808185FF15C09FB7B6
:10121000F894EE89FF896083E889F9898081837079
:10122000806480839FBF81E090E0DF91CF911F9128
:101230000F91FF90EF900895F62E0B8D10E00F5F49
:101240001F4F0F731127E02E8C8D8E110CC00FB61F
:1012500007FCFACFE889F989808185FFF5CFCE01B7
:101260000E94D308F1CFEB8DEC0FFD2FF11DE35A57
:10127000FF4FF0829FB7F8940B8FEA89FB8980813A
:101280008062CFCF0F931F93CF93DF938C01D0E079
:10129000C0E0F801EC0FFD1F6491662341F083EC80
:1012A00093E00E94F508892B11F02196F2CFCE0130
:1012B000DF91CF911F910F910895682F83EC93E0F8
:1012C0000C94F5081F93CF93DF93CBEAD2E0FE0195
:1012D0001491112351F01A3019F48DE00E945D0928
:1012E000812F0E945D092196F2CFDF91CF911F914E
:1012F0000895CF93DF93EC01888D8823B9F0AA89F4
:10130000BB89E889F9898C9185FD03C0808186FDC0
:101310000DC00FB607FCF7CF8C9185FFF2CF80810F
:1013200085FFEDCFCE010E94D308E9CFDF91CF91A9
:101330000895DC0180E0615090F09D919827E92F9D
:10134000EF70F0E0EB50FF4F2491E92FE295EF7042
:10135000F0E0EB5FFE4FE491822F8E27ECCF0895F3
:10136000DC012C911196ED91FC91F8948181822BF6
:1013700081839281322F30959323928387E090E08E
:101380000197F1F781818323818383E290E00197C4
:10139000F1F790817894EFECF0E03197F1F7922338
:1013A00081E009F480E00895FC0190810180F281E0
:1013B000E02D292F209560FF14C0F89482818223AC
:1013C00082838181892B8183A3E2B0E01197F1F7B9
:1013D0008281982B9283789487ED90E00197F1F7C2
:1013E0000895F8948281822382838181892B81836D
:1013F000AFEFB0E01197F1F78281982B9283789448
:101400008FE090E0EBCFDF92EF92FF920F931F936C
:10141000CF93DF93EC01D62EE42E08E010E0FF24FA
:10142000F39461E08D2D8F2109F460E0CE010E94DC
:10143000D409FF0C01501109A1F7E11010C0F89474
:10144000E981FA8191818881809589238183E9816D
:10145000FA81928188818095892382837894DF91B3
:10146000CF911F910F91FF90EF90DF900895EF9231
:10147000FF920F931F93CF93DF938C017B0140E08A
:1014800065E50E94030AE70188E0E80EF11C699116
:1014900040E0C8010E94030ACE15DF05C1F7DF91C5
:1014A000CF911F910F91FF90EF900895FC019081D3
:1014B0000180F281E02DF8948181292F20958223EB
:1014C000818378943DE743E050E0315029F1DA011F
:1014D0001197F1F780818923C1F3F89482818223E7
:1014E00082838181892B81837894ABE7B7E0119760
:1014F000F1F7F894818182238183A3E1B1E0119710
:10150000F1F78081982381E009F080E07894E3E6A8
:10151000F6E03197F1F7089580E008956F927F9299
:101520008F929F92AF92BF92CF92DF92EF92FF92F3
:101530000F931F93CF93DF938C01EB01809178047D
:10154000909179040E94560A882309F43FC0B8019B
:1015500080917804909179040E94370A40E06EEB04
:1015600080917804909179040E94030A7E016E01B3
:1015700089E0C80ED11C8E01A0907804B090790447
:1015800088E0882E912C712C66246394C5010E94FA
:10159000B00981117628660CE1E08E1A9108B1F746
:1015A000F80171928F01CE16DF0631F78091780431
:1015B000909179040E94560A813041F4F70181919B
:1015C0007F01811105C0E017F107C1F790E008C065
:1015D00068E0CE010E94990991E028852813F6CF92
:1015E000892FDF91CF911F910F91FF90EF90DF90A6
:1015F000CF90BF90AF909F908F907F906F90089505
:101600000F931F93CF93DF93CDB7DEB729970FB614
:10161000F894DEBF0FBECDBFFC012081203139F12F
:101620008C01BE016F5F7F4F0E948E0A882371F08C
:101630009D81F80180818B3311F497FD18C08AE0F9
:101640009F3329F078F489E09F3109F080E02996F2
:101650000FB6F894DEBF0FBECDBFDF91CF911F91C3
:101660000F9108958BE09F3591F39F3779F78CE0C8
:10167000EECF83FF04C098E2892787FD16C09091C2
:10168000600098709064892B909160009093CF02D5
:1016900094B7977F94BFF89490916000986190936D
:1016A000600080936000789408958091CF02F0CF1D
:1016B000CF92DF92EF92FF921F93CF93DF936C0153
:1016C000EC0138E0E32EF12CC031D10508F43FC025
:1016D000CE0110E08032910530F01F5F193019F013
:1016E00096958795F7CF1092D002812F0E94390BE3
:1016F00090917A0080917A008F7780937A0083B7F7
:10170000817F846083BFF89483B7816083BF85B78E
:10171000806685BF85B78F79806485BF789488950A
:1017200083B78E7F83BF90937A008FEF0E94390B2F
:10173000C70102C0880F991F1A95E2F7C81BD90B81
:101740002091D002222311F1C81BD90BBDCF81E01B
:101750004091F5025091F6026091F7027091F80203
:10176000CC1ADD0A4C0D5D1D611D711D4093F50203
:101770005093F6026093F7027093F802DF91CF91D5
:101780001F91FF90EF90DF90CF90089580E0E0CF21
:1017900090E080E00895CF93DF93EC0161E08A81CF
:1017A0000E944A058E858CBD8F858DBDDF91CF91BE
:1017B0000895FC018CB586878DB5878790898189CE
:1017C0009CBD8DBD60E082810C944A054F925F9272
:1017D0006F927F929F92AF92BF92CF92DF92EF92E1
:1017E000FF920F931F93CF93DF9300D000D000D0D0
:1017F000CDB7DEB79E838D836B015A01122FF02E79
:10180000912C2E2D30E050E040E029833A834B8329
:101810005C83AD81BE81ED91FC9111970280F381D3
:10182000E02D01E0212FA501B601CD0109950E940F
:101830005F072B013C010E945F0764197509860947
:10184000970929813A814B815C816217730784076C
:10185000950780F5AD81BE81ED91FC9111970680D1
:10186000F781E02DCD010995882329F32091C90244
:101870003091CA02C216D30619F0C114D104D9F6A8
:101880009091C7029923B9F226960FB6F894DEBF5D
:101890000FBECDBFDF91CF911F910F91FF90EF90C1
:1018A000DF90CF90BF90AF909F907F906F905F90B0
:1018B0004F9008959394F91408F0ABCF80E0E4CFF3
:1018C000CF93C62FDC01ED91FC9111970484F5852F
:1018D000E02D19962C912223A9F06E3F54F065312A
:1018E0007CF46C3044F462E06C0F09958C2FCF913E
:1018F0000895CEEFF8CF64E0C031B4F363E0F4CFE5
:10190000C4E1FCCF6E300CF0CDE0CE3E0CF4CEEE58
:1019100062E1EACFFC018085089508958EBD000044
:101920000DB407FEFDCF8EB508950F931F93CF938F
:10193000DF93EC01062F142FE881F9810488F589E3
:10194000E02D0995802F80680E948E0C812F0E94C7
:101950008E0CE881F9810688F789E02DCE01DF91B0
:10196000CF911F910F9109941F93CF93DF93EC01B7
:10197000162F89858823A9F08885843190F04DE55C
:10198000611101C045E56AE5CE010E94950C40E772
:1019900011114CE76CE5CE01DF91CF911F910C94B2
:1019A000950C10E0EFCFCF93DF93EC0169874AE10C
:1019B00061114FE063E1CE010E94950CE881F9814D
:1019C0000484F585E02D6885CE01DF91CF910994DF
:1019D0000F931F93CF93DF938C01C62FDC011996D1
:1019E0008C911997882331F1683130F087E118968E
:1019F0008C93C7E1C85F1CC0F80160876031A8F410
:101A0000C05FD0E4D801ED91FC91068CF78DE02DFC
:101A100061E0C80109954C2F4D2B61E1C801DF91B0
:101A2000CF911F910F910C94950C643118F7C65FFC
:101A3000D0E6E8CF603208F0CFE1F801C087D0E807
:101A4000EACF1F93CF93DF93EC01162FE881F98142
:101A50000488F589E02D0995812F0E948E0C80E085
:101A60000E948E0C182FE881F9810688F789E02DF5
:101A7000CE010995812FDF91CF911F910895CF93CA
:101A8000DF93EC011092C8021092CA021092C902B0
:101A90001092CC021092CB021092CD021092C7028B
:101AA0001092C6021092C50268E20E94210D82FFC8
:101AB0000AC06DE3CE010E94210D482F44606DE302
:101AC000CE010E94950C40E465E2CE010E94950C87
:101AD000E881F9810288F389E02D63E0CE01DF918E
:101AE000CF9109944F925F926F927F928F929F92C3
:101AF000AF92BF92CF92DF92EF920F931F93CF934B
:101B0000DF93EC014B01142FC090C902D090CA02A0
:101B1000A090C502B090C6026DE30E94210D482F2F
:101B200044606DE3CE010E94950C0E945F072B017B
:101B30003C01E881F9810190F081E02DCE01099509
:101B4000811113C00E945F076419750986099709FE
:101B5000683E73408105910540F4E881F981068073
:101B6000F781E02DCE010995E4CFD092CA02C09250
:101B7000C902E881F981028CF38DE02DEE24E39413
:101B800000E0212FA401B601CE010995B092C60252
:101B9000A092C502DF91CF911F910F91EF90DF903E
:101BA000CF90BF90AF909F908F907F906F905F90FD
:101BB0004F9008954F925F926F927F92AF92BF9233
:101BC000CF92DF92EF920F931F93CF93DF93EC01AD
:101BD0006B015A01122F6DE30E94210D482F4460C2
:101BE0006DE3CE010E94950C0E945F072B013C0122
:101BF000E881F9810190F081E02DCE0109958111F4
:101C000013C00E945F076419750986099709683E29
:101C100073408105910540F4E881F9810680F781E0
:101C2000E02DCE010995E4CFE881F981028CF38D96
:101C3000E02DE12C212FA501B601CE010995DF9100
:101C4000CF911F910F91EF90DF90CF90BF90AF9009
:101C50007F906F905F904F9008951F93CF93DF9385
:101C600020916C04261761F0162FEC01623009F404
:101C700045C050F4662309F453C0613009F449C0EB
:101C8000DF91CF911F910895633021F16430C1F746
:101C900061E00E94210D837E482F4C6061E0CE01FF
:101CA0000E94950C8985882341F0E881F981068C92
:101CB000F78DE02D61E0CE01099580916C048111D2
:101CC00006C067E2CE010E94210D87FFF6CF109378
:101CD0006C04D6CF61E00E94210D837E482F4061C5
:101CE00061E0CE010E94950C8985882331F3E8815B
:101CF000F981068CF78DE02D60E0DDCF61E00E9478
:101D0000210D837E482F486061E0CE010E94950C32
:101D1000D4CF61E00E94210D837E482F4460F4CF30
:101D200061E00E94210D482F437EEECF0F931F9359
:101D3000CF93DF93EC0161E084E994E00E942D0EE3
:101D4000209749F18881882331F184E994E00E9449
:101D5000D90B8EEB0E948E0C8E01005F1F4F899174
:101D60000E948E0C0C171D07D1F784E994E00E94A5
:101D7000CB0BC1E06DE384E994E00E94210D8E7FDE
:101D8000482F4C2B6DE384E994E0DF91CF911F91B4
:101D90000F910C94950CC0E0EDCFAF92BF92CF9213
:101DA000DF92EF92FF920F931F93CF93DF93EC019B
:101DB0006B01B42EA52EF22E102FE881F981028836
:101DC000F389E02D61E0099567E2CE010E94210DC3
:101DD00087FFFACF0F2D0E3308F00DE3E1103DC061
:101DE0001123E9F110E48FEFC816D10449F040F057
:101DF000C60126E0969587952A95E1F78C70182BF9
:101E00008D819E818F3F910521F018F0892F83707D
:101E1000182BE881F9810488F589E02DCE01099518
:101E200080E80E948E0C83E0800F0E948E0C8C2D27
:101E30000E948E0C8D810E948E0C812F0E948E0C30
:101E40001B2DEB2CFA2C8E2D811B801750F4F701E3
:101E500081917F010E948E0CF6CF10E8C4CF10E074
:101E6000C2CFE881F9810688F789E02DCE01099576
:101E7000E881F9810288F389E02D64E0CE010995BB
:101E800068E2CE010E94210D83FFFACFE881F9813B
:101E90000288F389E02D61E0CE01DF91CF911F919F
:101EA0000F91FF90EF90DF90CF90BF90AF9009948B
:101EB00081E08093F3028091EB029091EC02A0917B
:101EC000ED02B091EE020196A11DB11D8093EB02CF
:101ED0009093EC02A093ED02B093EE02089510925D
:101EE000E7021092E8021092E9021092EA021092C0
:101EF000EB021092EC021092ED021092EE0280EDD5
:101F000092E0A0E0B0E08093EF029093F002A09303
:101F1000F102B093F2021092F30288E59FE09093F1
:101F2000070180930601E9E6F0E080818C60808300
:101F3000E99A0895BF92CF92DF92EF92FF920F93AA
:101F40001F93CF93DF932AE7E22EF12CF701B080A5
:101F50000BE710E0F801C080CCE7D0E0D8800E9409
:101F6000580BF701B082F801C082D882DF91CF917F
:101F70001F910F91FF90EF90DF90CF90BF90089549
:101F8000EF92FF920F931F93CF93DF937C018C010D
:101F9000C3E0D0E0CE010E94D725F80181938F01E4
:101FA0002196C730D105B1F7C701DF91CF911F91BD
:101FB0000F91FF90EF9008950F931F93CF93DF93AE
:101FC00000D000D0CDB7DEB78C0190E080E00E9459
:101FD000D7258F34D1F481E090E00E94D725853455
:101FE000A1F482E090E00E94D7258D3471F481E065
:101FF0000115110559F0CE0101960E94C00F81E034
:102000002B813C812017310709F080E00F900F9061
:102010000F900F90DF91CF911F910F910895FC01C8
:1020200001900020E9F73197AF01481B590BBC0123
:1020300083EC93E00C947A0786E591E00C940F1002
:10204000CF93DF930E944209EC010E941C108C0F79
:102050009D1FDF91CF9108950C940F108F929F9246
:10206000AF92BF920F931F93CF93DF93CDB7DEB79D
:10207000A1970FB6F894DEBF0FBECDBF19A24230B4
:1020800008F44AE08E010F5D1F4F842E912CB12C75
:10209000A12CA50194010E941B26E62FB901CA01BB
:1020A000EA30F4F4E05DD801EE938D01232B242B6C
:1020B000252B79F790E080E0109719F0CD010E9470
:1020C0000F10A1960FB6F894DEBF0FBECDBFDF9103
:1020D000CF911F910F91BF90AF909F908F900895D7
:1020E000E95CE1CFCF93DF93D0E0C0E0009719F037
:1020F0000E940F10EC010E941C108C0F9D1FDF919D
:10210000CF910895CF92DF92EF92FF920F931F939A
:10211000CF93DF938C017B01D0E0C0E0CE15DF05CB
:102120006CF56801CC0EDD1EC6010E94D7258031FA
:1021300018F480E30E945D092196C6010E94D7250C
:10214000682F70E090E080E040E10E942E108BE06C
:1021500092E00E942C10CE0187709927892B21F4E0
:102160008BE092E00E942C10CE018F709927892B72
:10217000A9F687E098E00E944209D0CFDF91CF9185
:102180001F910F91FF90EF90DF90CF900895CF9225
:10219000DF92EF92FF92CF93DF936C01990FEE08DD
:1021A000FF08F7FE17C08DE20E945D09EC0166276B
:1021B0007727CB016C197D098E099F094AE00E949F
:1021C0002E108C0F9D1FDF91CF91FF90EF90DF902D
:1021D000CF9008954AE0C701B601DF91CF91FF90FB
:1021E000EF90DF90CF900C942E10CF93DF930E944E
:1021F000C710EC010E941C108C0F9D1FDF91CF9126
:1022000008954F925F926F927F928F929F92AF92BA
:10221000BF92EF92FF920F931F93CF93DF937C01B6
:102220008B010E94F3054B015C0180918D038111AC
:1022300065C0C02F81E080938D0380938C039FEF56
:1022400090938B0310928A03900F9093890380934D
:1022500068038091680380688093680380916703B6
:10226000813009F091C0109267030E94F3054B0181
:102270005C01809168038093BB0080918F039091F3
:102280009003A0919103B0919203892B8A2B8B2B01
:10229000A1F00E94F30540908F035090900360904E
:1022A000910370909203681979098A099B0946166F
:1022B00057066806790608F442C08091BC0083FD89
:1022C000D8CF85EC8093BC000E94F3054B015C01E4
:1022D00080918D03813009F459C080918A038C1755
:1022E00010F4C0918A03A9E6B3E0E7E4F3E080E0EC
:1022F0008C1751F19D9191938F5FFACF80918F034D
:1023000090919003A0919103B0919203892B8A2B15
:102310008B2B09F48ACF0E94F30540908F035090D5
:1023200090036090910370909203681979098A096B
:102330009B09461657066806790608F076CF809105
:102340008E030E949605C0E010924603C093450399
:10235000E7010E0D1F1D87EB93E00E948204899315
:10236000C017D107C1F781E090E0DF91CF911F91B5
:102370000F91FF90EF90BF90AF909F908F907F90C4
:102380006F905F904F90089585EE9CCF80918F0362
:1023900090919003A0919103B0919203892B8A2B85
:1023A0008B2B09F495CF0E94F30540908F0350903A
:1023B00090036090910370909203681979098A09DB
:1023C0009B09461657066806790608F081CFB7CFF5
:1023D000FF920F931F93CF93DF93CDB7DEB728976C
:1023E0000FB6F894DEBF0FBECDBF85EE888761E0E3
:1023F00070E0CE0108960E94080762E070E0CE010E
:1024000001960E94011129813A8132272327322720
:10241000A4EDB0E30E94F8258C010855124080EE2F
:102420008F8361E070E0CE0107960E94080762E0AA
:1024300070E0CE0101960E94011129813A81322774
:1024400023273227A4EAB4E40E94F825BC016D5486
:102450007241F62E7A836983072E000C880B990B44
:102460000E94BA2426E636E646EE5FE30E9419256E
:1024700020E030E048E455E40E9458260E943627C8
:102480007C836B831E830D832F2D3A81462F5C81C5
:10249000602F7E8180E090E028960FB6F894DEBF32
:1024A0000FBECDBFDF91CF911F910F91FF90089587
:1024B000BF92CF92DF92EF92FF920F931F93CF9331
:1024C000DF93EC01B62EC72E8D85811105C0CE019C
:1024D0000E94560A81110EC01B861D861C8680E054
:1024E000DF91CF911F910F91FF90EF90DF90CF90F0
:1024F000BF90089540E060EFCE010E94030A01E022
:10250000E12CD12C11E0CE010E94B009F82ECE01B1
:102510000E94B00991E0F91218C0813099F5113488
:10252000D8F2DB86D11002C081E08D878B818823B1
:1025300099F22396EB2DFC2DCF010896299121933A
:10254000E817F907D9F781E0CBCFEE2DF0E0F812CC
:102550000FC08B851817A0F4DE01AE0FBF1F1396B6
:102560008C91802379F4F12C193008F41C87D12E3A
:10257000EC0FFD1F8381902F9095892383830AC0E0
:102580008113F1CFFE01EE0DF11D8381802B83833A
:10259000FF24F3946F2DCE010E94D4091F5F000F1A
:1025A00011F4E39401E087E08E1508F0ACCFB7CFCB
:1025B0004F925F926F927F928F929F92AF92BF9253
:1025C000CF92DF92EF92FF920F931F93CF936B0105
:1025D0007C01742EAC019B010E947127882399F025
:1025E00089E591E0CF911F910F91FF90EF90DF90DF
:1025F000CF90BF90AF909F908F907F906F905F90A3
:102600004F900C940F1046015701E894B7F82FEF44
:102610003FEF4FE75FE7C501B4010E9471278111C9
:102620000DC02FEF3FEF4FE75FE7C501B4010E94F8
:10263000B32418161CF48DE591E0D4CF2FEF3FEFB3
:102640004FE75FE4C701B6010E946C2718161CF41F
:1026500081E691E0C7CF2FEF3FEF4FE75FECC70177
:10266000B6010E94B32487FDF3CF20E030E0A9013A
:10267000C701B6010E94B32410E000E087FF08C044
:102680008DE20E945D098C01F7FAF094F7F8F0945E
:10269000C0E060E070E080E09FE37C1641F020E065
:1026A00030E040E251E40E94C426CF5FF6CFA7019C
:1026B00096010E9458262B013C010E943D274B01A8
:1026C0005C014AE00E942E107C01E00EF11ECC233A
:1026D000B1F1C501B4010E94B8249B01AC01C30152
:1026E000B2010E9457264B015C018EE20E945D09F7
:1026F000E80EF91EC15018F120E030E040E251E44C
:10270000C501B4010E9419252B013C010E943D27FF
:102710004B01B12CA12C4AE0C501B4010E942E103E
:10272000E80EF91EC501B4010E94B8249B01AC015A
:10273000C301B2010E9457264B015C01DBCFC701E8
:10274000CF911F910F91FF90EF90DF90CF90BF90AE
:10275000AF909F908F907F906F905F904F90089573
:10276000CF93DF9320916C04233021F080E0DF9140
:10277000CF9108952091CD022111F8CFEC0164E2B0
:102780000E94210D90E09195819591098C349F4F85
:102790006CF7E881F9810288F389E02D61E0CE01D0
:1027A000099581E0E4CFEF92FF920F931F93CF93AF
:1027B000DF93EC018091CE02882309F468C08091F8
:1027C0006C041092CE02833009F0ACC068E2CE01F6
:1027D0000E94210D82FFA6C0E881F9810288F38959
:1027E000E02D61E0CE010995E881F9810488F58941
:1027F000E02DCE01099580E00E948E0C80E00E94C1
:102800008E0C082F182F833408F012E41093CD0299
:1028100080E00E948E0CE82E80E00E948E0CF82E44
:1028200080E00E948E0C282F30E0A90166E0440F62
:10283000551F6A95E1F7442753704E295093CC02F7
:102840004093CB02322F2227222733702F29309337
:10285000CA022093C9029F81E881F981911107C0C2
:102860002D813E814217530711F0452B11F403309F
:1028700040F51092CD020688F789E02DCE0109952A
:10288000E881F981048CF58DE02DCE0109958091C8
:102890006C04833009F055C08091CD02882309F47F
:1028A00057C0E881F9810288F389E02D61E0CE010B
:1028B000099581E0DF91CF911F910F91FF90EF90EB
:1028C000089513501093C802982F90789093C702E0
:1028D0000885008CF18DE02D682FCE01099510E060
:1028E0008091C802181728F480E00E948E0C1F5FA8
:1028F000F7CFE881F9810688F789E02DCE010995A7
:10290000E881F9810288F389E02D63E0CE01099521
:102910006885061739F0E881F9810484F585E02D92
:10292000CE01099564E2CE010E94210D90E09195BF
:1029300081959109959587959093C6028093C502DC
:10294000A6CFE881F981048CF58DE02DCE010995A3
:1029500080E0B0CFCF92DF92EF92FF920F931F9360
:10296000CF93DF938091A9048F738093A6049091F5
:10297000DA022091DB022111DAC0992309F4DBC0CD
:102980008F5F8093A6048EEE90E00E9442096091D2
:10299000A80470E090E080E04AE00E942E1086EEED
:1029A00090E00E9442096091A60470E090E080E00F
:1029B0004AE00E942E108EED90E00E944209809124
:1029C000A7048B3209F486C0863509F486C08B359E
:1029D00009F086C083E993E00E94C71089ED90E07A
:1029E0000E9420108FEC90E00E9442098091AC047C
:1029F00090E00E94F5108FEB90E00E9442098091D8
:102A0000AD049091AE040E94F5108CEA90E00E9413
:102A100042098091AF0490E00E94F5108BE990E0AC
:102A20000E9442098091DD029091DE020E94C7104F
:102A300087E891E00E942C1084E090E00E94F5105D
:102A40008091DD029091DE02892B09F44CC087E869
:102A500090E00E942010C7EAD4E0F12CE12C809194
:102A6000DD029091DE02E816F906ECF58E01075FB3
:102A70001F4F6E0181E1C80ED11CF80181918F01B9
:102A8000803120F485E890E00E944209F8013197F6
:102A9000608170E090E080E040E10E942E1083E8C9
:102AA00090E00E9442090C151D0539F78F8583308F
:102AB00021F488E690E00E9442090E941C1065E023
:102AC00070E080E090E00E942C07FFEFEF1AFF0A11
:102AD0002896C5CF81EB91E07FCF84E693E07CCF51
:102AE00090E080E079CF65E070E080E090E00E94C7
:102AF0002C078091AA0480FF14C085E691E00E9413
:102B000072108091AA0481FF0FC082E791E0DF91EB
:102B1000CF911F910F91FF90EF90DF90CF900C9489
:102B200072108BE691E0EBCF8CE791E0F0CF911142
:102B30002ACF8E5F26CF8D5F24CF85ED8093BC009A
:102B400080918F0390919003A0919103B091920393
:102B50000796A11DB11D23E0B695A795979587957A
:102B60002A95D1F72091BC0024FD03C010928D035B
:102B7000089540918F03509190036091910370915B
:102B80009203452B462B472B69F30097A105B1050E
:102B900041F025E32A95F1F700000197A109B10959
:102BA000E1CF80918E030C949605FF920F931F93B3
:102BB000CF93DF93EC01F62E08811981C8010E94A2
:102BC000D725F81621F06F2DC8010E94DF25CE0110
:102BD000DF91CF911F910F91FF900895CF92DF92D7
:102BE000EF92FF920F931F93CF93DF9300D0CDB757
:102BF000DEB76C017C0103E010E01A830983F70162
:102C000061917F01CE0101960E94D5150F5F1F4F84
:102C10000730110591F7C6010F900F90DF91CF910A
:102C20001F910F91FF90EF90DF90CF9008951F922A
:102C30000F920FB60F9211242F933F934F935F93F0
:102C40006F937F938F939F93AF93BF93EF93FF9374
:102C50008091B900887F803609F44AC0F0F5883247
:102C600009F4A7C018F5803109F49BC0B8F4882393
:102C700009F4F9C0883009F494C0FF91EF91BF9135
:102C8000AF919F918F917F916F915F914F913F9104
:102C90002F910F900FBE0F901F901895883109F457
:102CA00088C0803251F780938B0314C0803409F4BC
:102CB0009DC040F48033B9F38833F9F680938B03D9
:102CC00085ECB0C0803509F485C0883509F496C01C
:102CD000883499F60E949D15D0CF883909F48CC0AC
:102CE00038F5883729F050F4883611F0803729F606
:102CF00083E080938D031092440357C0883809F411
:102D00007BC0803919F0803809F0B7CF8091440337
:102D1000803208F071C0E091440381E08E0F80930F
:102D200044038091BB00F0E0EC5DFC4F80833DC02C
:102D3000803B39F0E0F4803A09F479C0883A09F030
:102D40009CCF84E080938D03109221031092200386
:102D5000E0911E03F0911F030995809120038111DA
:102D60000FC081E0809320031092FE0209C0803CD6
:102D700009F4A6CF883C09F4A3CF883B09F07DCFA6
:102D8000E091210381E08E0F80932103F0E0E25077
:102D9000FD4F80818093BB0090912103809120039F
:102DA00029C0809168038093BB0085EC8093BC00B0
:102DB00064CF90918A0380918903981758F5E09128
:102DC0008A0381E08E0F80938A03F0E0E759FC4F7D
:102DD0008081E9CFE0918A0381E08E0F80938A039E
:102DE0008091BB00F0E0E759FC4F808390918A030B
:102DF000809189039817C8F285E8D8CFE0918A03BB
:102E000081E08E0F80938A038091BB00F0E0E75948
:102E1000FC4F808380918C0381115CCF81E0809393
:102E2000670384EA8093BC0010928D0326CF85EC63
:102E30008093BC0010928D0380914403803230F463
:102E4000E0914403F0E0EC5DFC4F1082609144039C
:102E500070E0E0912203F091230384E293E009956E
:102E6000109244030ACF10928B0334CF1F920F921B
:102E70000FB60F9211242F933F938F939F93AF938D
:102E8000BF938091F5029091F602A091F702B09164
:102E9000F8023091F40223E0230F2D3758F5019604
:102EA000A11DB11D2093F4028093F5029093F602C8
:102EB000A093F702B093F8028091F9029091FA0280
:102EC000A091FB02B091FC020196A11DB11D80935F
:102ED000F9029093FA02A093FB02B093FC02BF9117
:102EE000AF919F918F913F912F910F900FBE0F90B7
:102EF0001F90189526E8230F0296A11DB11DD2CF71
:102F00001F920F920FB60F9211242F933F934F935E
:102F10005F936F937F938F939F93AF93BF93EF9341
:102F2000FF93E0910601F09107010995FF91EF9160
:102F3000BF91AF919F918F917F916F915F914F91D1
:102F40003F912F910F900FBE0F901F9018951F92D9
:102F50000F920FB60F9211242F933F934F935F93CD
:102F60006F937F938F939F93AF93BF93EF93FF9351
:102F7000E0910401F09105010995FF91EF91BF9156
:102F8000AF919F918F917F916F915F914F913F9101
:102F90002F910F900FBE0F901F9018951F920F92B8
:102FA0000FB60F9211242F933F934F935F936F931C
:102FB0007F938F939F93AF93BF93EF93FF9383EC94
:102FC00093E00E94D308FF91EF91BF91AF919F9141
:102FD0008F917F916F915F914F913F912F910F90C2
:102FE0000FBE0F901F9018951F920F920FB60F9261
:102FF00011242F938F939F93EF93FF93E091D3032B
:10300000F091D4038081E091D903F091DA0382FD3D
:103010001BC090818091DC038F5F8F732091DD0353
:10302000821741F0E091DC03F0E0ED53FC4F958F07
:103030008093DC03FF91EF919F918F912F910F90DF
:103040000FBE0F901F9018958081F4CF1F920F92A2
:103050000FB60F9211248F938091D0028F5F8093CF
:10306000D0028F910F900FBE0F901F901895EF9286
:10307000FF920F931F93CF93DF9300D0CDB7DEB7AE
:103080001092BA031092B90388EE93E0A0E0B0E08A
:103090008093BB039093BC03A093BD03B093BE0386
:1030A00022E131E03093B8032093B7031092C603B6
:1030B0001092C5038093C7039093C803A093C903DC
:1030C000B093CA0384E291E09093C4038093C30356
:1030D00085EC90E09093D0038093CF0384EC90E054
:1030E0009093D2038093D10380EC90E09093D4032B
:1030F0008093D30381EC90E09093D6038093D50323
:1031000082EC90E09093D8038093D70386EC90E014
:103110009093DA038093D9031092DC031092DD03BD
:103120001092DE031092DF038EEF90E0909367041D
:103130008093660485E190E0909363048093620439
:1031400084E290E090936104809360048BE091E0CE
:1031500090936904809368048FEF93E090936B04DD
:1031600080936A0410926504109264040BE011E0ED
:10317000C8010E94D725780195E1E90EF11C8F3F27
:1031800069F110936504009364048FEFE81683E0FF
:10319000F80654F5C7010E94D7258F3FD9F00BE000
:1031A00011E080916A0490916B0408171907E4F408
:1031B0001A8309836FEFCE0101960E94D5151092F4
:1031C0006504109264048091620490916304080F76
:1031D000191FE7CF95E1E90EF11CD7CF87018FEFDB
:1031E000E81683E0F80621F68BE28093A70482EDCF
:1031F0008093A80487E18093A90411E01093AA04A6
:1032000099E19093AB041093AC0422E330E0309347
:10321000AE042093AD041093AF048093A60486E31C
:1032200091E090939504809394041092A1041092DD
:10323000A00480E58093A4041092A50484E994E09E
:1032400090936E0480936D048AE08093960482E0EC
:103250008093970410936C0410929B048FE18093E9
:103260009C0410929D0410929F0410929E0460E0B2
:1032700081E10E94B705E8E3F8E0E491E093860479
:10328000E4E2F8E0E491F0E0EE0FFF1FE75FF74FB4
:10329000859194919093880480938704109291046F
:1032A00010929304109292041092900410928F0442
:1032B00010928E0410928D0410928C0410928B0444
:1032C00010928A041092890410928504109284044A
:1032D0001092700486E894E09093790480937804C7
:1032E000109276041092770410926F0489E0809314
:1032F00072041093730410937404109375040F9068
:103300000F90DF91CF911F910F91FF90EF90089553
:10331000CF93DF93CDB7DEB7E0970FB6F894DEBF5B
:103320000FBECDBF789484B5826084BD84B58160C2
:1033300084BD85B5826085BD85B5816085BD809180
:103340006E00816080936E001092810080918100F8
:1033500082608093810080918100816080938100F0
:10336000809180008160809380008091B1008460B2
:103370008093B1008091B00081608093B000809113
:103380007A00846080937A0080917A0082608093D2
:103390007A0080917A00816080937A0080917A002F
:1033A000806880937A001092C10061E089E00E94F9
:1033B000B70561E089E00E944A0562E086E00E946C
:1033C000B70562E080E10E94B70562E08EE00E94EE
:1033D000B70562E084E10E94B70562E085E10E94E2
:1033E000B70562E084E00E94B70562E087E00E94D2
:1033F000B70562E088E00E94B70587E00E942105DA
:1034000021E0892B09F420E02093DB0288E00E9470
:10341000210521E0892B09F420E02093DA02E091D4
:10342000D303F091D40382E08083E091CF03F09145
:10343000D0031082E091D103F091D20380E1808328
:103440001092DB03E091D703F091D80386E08083EC
:10345000E091D503F091D603808180618083E09173
:10346000D503F091D603808188608083E091D503F5
:10347000F091D603808180688083E091D503F0913C
:10348000D60380818F7D80838CE891E00E9472104A
:1034900082EA91E00E942C108FEA91E00E94721063
:1034A00064E670E080E090E00E942C0786E09FEFE9
:1034B0000E94DC0F882329F1CE0101960E94C00FE3
:1034C000E980FA80F7FC1DC0470123E0820E911CC1
:1034D00077EAC72E74E0D72E07E010E0C8010E94FB
:1034E000D725D6018D936D010F5F1F4F0815190564
:1034F000A8F3B4E0EB16F10421F085E191E00E941D
:1035000020108091AA048823C9F10E94AA1485EB97
:1035100091E00E9472104091A8040091A90410E06B
:103520008091A70490919704923009F49DC1933043
:1035300009F47DC08FEF8093980481EC91E00E94A4
:10354000960E6091AB0484E994E00E94E80C82ED51
:1035500091E00E9472100AE010E01093E0020093E4
:10356000DF0264E670E080E090E00E942C070150EA
:10357000110998F71092E0021092DF0261E085E0F5
:103580000E94B70560E081E00E94B70562E083E039
:103590000E94B7058EED91E00E94721082E10E94B8
:1035A0002105019709F0BAC1109246031092450314
:1035B000109294031092B6030E94780580E794E07D
:1035C00090931F0380931E0381E794E0909323035D
:1035D0008093220311E01093930380E48093B5035A
:1035E00081E00E941806882309F4A3C162E070E01C
:1035F00082E091E00E94080768E070E0CE01019649
:103600000E94011162E070E080E091E00E940807F2
:1036100066E070E0CE0101960E940111098110E080
:103620000115110509F088C11092DC027DC191E0FD
:1036300090939804FE0133969CE2DF011D929A95C7
:10364000E9F791E0998324E02A8332E03B8393E019
:103650009D833E832F8320E4288735E039879A872E
:1036600096E09B8793E39C8797E09D8738E03F87B0
:1036700039E0398B39E13B8B32E43C8B55E25D8B91
:103680002E8B26E22F8B988F98E2998F20E12A8F3C
:1036900099E29B8F9CED9C8F9EE29D8F98E89E8F78
:1036A0009FE29F8F9DE298A390E399A357E35BA3CA
:1036B00050E95CA358E35DA33EA33CE33FA33FE88E
:1036C00038A73DE339A72AA72FE62BA79CA79FEF92
:1036D0009DA79EE48F3139F09CE68B3221F099ED65
:1036E000863509F094EE9E878F3109F4C2C08B3283
:1036F00009F4BDC0863509F0BCC080E0888B4AA3C0
:1037000061E0809196040E944A0561E080919604F0
:103710000E94B70580919E0490919F04892B31F4FB
:1037200082ED92E090939F0480939E04FFB6F894FC
:103730008091D102811127C0EDE1F8E08491E1E3AD
:10374000F8E09491E82FF0E0EE0FFF1FED57FD4FEA
:10375000A591B491EC91E92321F461E08AE00E9403
:103760004A0561E08AE00E94B7058CB580618CBD96
:103770008CB580648CBD61E08DE00E94B70561E08E
:103780008BE00E94B7058091D1028F5F8093D102B8
:10379000FFBE80E58093A40481E08093A5040E948D
:1037A0005F076B017C014AEA6FE284E994E00E94C2
:1037B000950C6FE284E994E00E94210D8A3A59F059
:1037C0000E945F076C197D098E099F09623371059C
:1037D0008105910540F30E945F076C197D098E09F0
:1037E0009F09623371058105910508F0A6CE0E94FC
:1037F0005F076B017C0145E56FE284E994E00E947C
:10380000950C6FE284E994E00E94210D853559F012
:103810000E945F076C197D098E099F09623371054B
:103820008105910540F30E945F076C197D098E099F
:103830009F09623371058105910508F07ECEF12C58
:10384000EF2DF0E0EE0FFF1F21E030E02C0F3D1FC9
:10385000E20FF31F60816F3F71F0418184E994E0D2
:103860000E94950CF394ECCF10929804E3CE80E480
:1038700045CF80EC43CF90E080E00E94960E6091AF
:103880009D0484E994E00E94D30C61E084E994E013
:103890000E942D0E0E945F076B017C0167E284E9A4
:1038A00094E00E94210D87FD0BC00E945F076C19F8
:1038B0007D098E099F09623371058105910570F3B9
:1038C0000E945F076C197D098E099F09623371059B
:1038D0008105910508F031CE80919804823090F4F2
:1038E000E82FF0E0EE0FFF1FEC5FFE4F2CE637E015
:1038F00031832083813059F0809169008360809307
:103900006900E89A10939A040093990416CE809166
:1039100069008C6080936900E99AF4CF83E10E948A
:103920002105019709F440CE8BEE91E00E947210C0
:103930004BC01093D3025ACE81E08093DC020E94E8
:10394000E81129833A834B835C836D837E8388EF00
:1039500091E00E942C10C8010E94F51064E670E00E
:1039600080E090E00E942C078DE092E00E942C10F5
:1039700069817A81072E000C880B990B0E94BA246A
:1039800020E030E048EC52E40E94C42642E00E946D
:10399000D81283E192E00E942C106D817E8190E02C
:1039A00080E00E94B82420E030E048EC52E40E941D
:1039B000C42642E00E94D8120E941C1064E670E007
:1039C00080E090E00E942C0761E085E00E944A05BB
:1039D00062E370E080E090E00E942C07E0917804C0
:1039E000F091790413861586148612861186108646
:1039F0001782168215821482138210927604109216
:103A0000770411E0BE016F5F7F4F80917804909141
:103A100079040E945812882309F459C067E0CE0146
:103A200001960E94990998858913ECCF80917604BC
:103A30008F5F809376048981883231F008F041C02D
:103A4000803111F08232F1F6809177048F5F80939C
:103A5000770480916F04811128C08091780490913F
:103A600079040E94560ABE016F5F7F4F80917804EF
:103A7000909179040E94370A40E064EB80917804C9
:103A8000909179040E94030A8091780490917904BE
:103A90000E94B009082F80917804909179040E94C7
:103AA000560A011102C010936F04CE0101960E94C4
:103AB000000B90917204981708F0A4CF80937204C1
:103AC000A1CF8B3309F2823409F09CCFBDCF109285
:103AD00073042091B004E7EAF4E084E090E021115F
:103AE00028C08091760490E09093DE028093DD02FE
:103AF000059734F084E090E09093DE028093DD023D
:103B000010E0612F70E08091DD029091DE02681775
:103B10007907FCF433E0660F771F3A95E1F76055BB
:103B20007B4F86E894E00E945812882391F01F5F33
:103B3000E8CF482F392F009709F468C051A10197A9
:103B400038975832B1F74093DD023093DE022832C5
:103B5000B9F660E085E00E944A058EE192E00E949D
:103B600072100E945F076093D6027093D702809311
:103B7000D8029093D90211E00E945F07AB01BC010B
:103B80000091D5028091D6029091D702A091D802DF
:103B9000B091D9028053984FAF4FBF4F4817590784
:103BA0006A077B0708F03FC083EC93E00E94B308EC
:103BB000892B11F30111E0CF65E070E0CE01019691
:103BC0000E94CA07059769F589818B3251F58A8170
:103BD0008B3239F58C818D3021F58D818A3009F554
:103BE0008B818B32C1F41093D50282E08093D40292
:103BF000882311F289E692E00E9420108091D4027D
:103C0000823009F0B9CF0E946209B6CF1092DE026D
:103C10001092DD029CCF833721F41093D50281E00E
:103C2000E5CF80E0E3CF6090D502662009F4DCC2E6
:103C300083EC93E00E94B308892BA9F383EC93E013
:103C40000E94B6078E36E9F06CF5873609F47EC01F
:103C50008CF48F3309F4C3C2823609F452C083EC6A
:103C600093E00E94B308892BF1F283EC93E00E9469
:103C7000B607F5CF8C3609F47CC00CF07DC08936D0
:103C800071F70E945708662309F43AC1603408F0BE
:103C90006FE36093A9048AE492E00E944209609174
:103CA000A9045EC0843709F409C2CCF4823709F450
:103CB00029C10CF04FC1803791F60E9457086F71EF
:103CC0006093AB0480E592E00E942C108091AB04DD
:103CD0008251990B0E94C71085E592E00EC187378B
:103CE00009F44FC2883709F462C2863709F0B7CFAA
:103CF0008EE392E00E9442098FEA91E00E940F1049
:103D0000AECF0E9457086430D9F0683099F069301E
:103D100059F01092A70490E080E00E94C71084E65A
:103D200092E00E9420109BCF8BE58093A70483E94B
:103D300093E0F3CF86E58093A70484E693E0EDCF8C
:103D40008BE28093A70481EB91E0E7CF0E945708B4
:103D50006093A8048DE592E00E9442096091A80456
:103D600070E090E080E04AE00E942E100E941C105B
:103D700076CF0E94AA1473CF0E9457088B010E942D
:103D80002508FC0197FD87C08D32910559F0C09739
:103D90000A9740F0EE32F10529F083EC93E00E949F
:103DA000B607EDCF312C712C812C912C20E8A22E5E
:103DB0002FE3B22EC12CD12C7601E130F10549F16F
:103DC000ED32F105C9F1EE32F105C1F1CF01C09735
:103DD0000A97F8F4AAE0B0E0A70196010E94ED2549
:103DE0006F01FF0FEE08FF08C60ED71EE81EF91E72
:103DF00040E3C41AD108E108F108332051F02DEC5A
:103E00003CEC4CEC5DE3C501B4010E9419254B016B
:103E10005C0183EC93E00E94B6070E942508FC0138
:103E2000C0970A9750F2EE32F10551F4332029F28F
:103E30007720E1F0372C0AC0762CEBCF362CE9CF77
:103E4000E130F10509F4B9CF772041F0F094E09426
:103E5000D094C094C11CD11CE11CF11CC701B60157
:103E60000E94BA242B013C01332051F0C701B60156
:103E70000E94BA24A50194010E9419252B013C013E
:103E800083EC93E00E94B308892B49F083EC93E024
:103E90000E94B607F5CF412C512C3201F1CF01150C
:103EA000110589F001301105C1F084E592E00E940E
:103EB0004209012B01F142E0C301B2010E94D81274
:103EC00080E592E02ECF1092AC04E9988BE697E063
:103ED0009093070180930601E8CF81E08093AC04C2
:103EE000C301B2010E9436277093AE046093AD0403
:103EF0000E946F0FDACF8EE691E00E947210AFCE73
:103F000061E0C7CE81E591E00E94201086E09FEF3E
:103F10000E94DC0F882389F0CE0101960E94C00F19
:103F200089819A8197FD09C09195819591099A831C
:103F30008983CE0101960E94EE158AE291E00E94EB
:103F4000201068EC70E080E090E00E942C070C9458
:103F5000000085CE8AE592E00E94721086E09FEF15
:103F60000E94DC0F811128C01A8219826FE4CE01F1
:103F700001960E94D51581E090E09A83898365E4DB
:103F8000CE0101960E94D515A2E0B0E0BA83A983C4
:103F90006DE4CE0101960E94D51503E010E01A836E
:103FA00009836FEFCE0101960E94D5150F5F1F4F59
:103FB0000115B4E01B0799F7EDE2F0E0FA83E9831D
:103FC00086E09FEF9C838B83CE0101960E94EE15C5
:103FD00097EAE92E94E0F92E07E010E0D7016D9101
:103FE0007D0118AB0FA7CE018F960E94D5150F5FEC
:103FF0001F4F0033110591F790E080E00E94DC0F25
:1040000081111AC086E092E00E9442094AE060E015
:1040100074E080E090E00E942E1080EE91E00E941B
:10402000201060E074E090E080E00E9482108EED4D
:1040300091E00E9442090CC0CE0101960E94C00F7F
:104040008B819C81019649F48DE891E00E942010BB
:104050000E941C108DE092E064CE80E891E00E9406
:1040600042096B817C8190E080E04AE00E942E1042
:1040700009811A8117FF03C0119501951109045098
:10408000110982E791E00E944209C8010E94C7100D
:104090008BE691E00E94420989819A8197FF04C0D2
:1040A00080E691E00E9442090E941C10B80187E05E
:1040B00090E00E9482108EE591E0BBCF0E945708ED
:1040C0006B01CB01892B59F40E94570821E0672B23
:1040D000682B692B09F420E02093AF04C0CD653034
:1040E000710508F0BCCD61E070E0CE018F960E94B2
:1040F000CA0710E000E061E070E0CE018F960E94F8
:10410000CA07892B49F1083038F58FA5803221F094
:104110008D3011F08A3051F4E1E0F0E0EC0FFD1F3A
:10412000E00FF11D10830F5F10E0E5CF1295107FB7
:1041300090ED980F9A3030F09FEB980F963020F466
:1041400099EC980F190FD7CF9FE9980F963010F47C
:1041500099EAF7CF90E0F6CFDE01119683E0CC0C20
:10416000DD1C8A95E1F781E090E02D91F601E80FE2
:10417000F91FE955FB4F2083019689309105A9F776
:104180006ECD0E9457086093AA0485E691E060FD19
:1041900002C08BE691E00E9472108091AA0481FF18
:1041A00003C082E791E0A9CE8CE791E0A6CE80E340
:1041B00092E00E94201083EC93E00E94B308892BC8
:1041C00029F083EC93E00E94B607F5CF1092D50258
:1041D0006AE070E080E090E00E942C0740CD0E94F1
:1041E00062098EE292E09DCD0E946F0F80B78068D9
:1041F00080BF8091AA0481FD05C080916400826027
:104200008093640080916400806880936400809152
:10421000640084608093640080916400886080936F
:1042200064008091DC02882321F060E089E00E9434
:104230004A05B0E0EB2EB0E0FB2E1BE0712E0FE53F
:10424000602E8091F302882341F08091AD0490911B
:10425000AE040E94580B1092F30280E590E00E9499
:10426000580B813099F48091EF029091F002A09167
:10427000F102B091F2020196A11DB11D8093EF02EF
:104280009093F002A093F102B093F2028091EF02BA
:104290009091F002A091F102B091F202823B924023
:1042A000A105B10570F48091EB029091EC02A09110
:1042B000ED02B091EE0284369105A105B10508F436
:1042C000DAC28091AC04882331F1F8944091EB027A
:1042D0005091EC026091ED027091EE028091E70244
:1042E0009091E802A091E902B091EA02840F951F33
:1042F000A61FB71F8093E7029093E802A093E902FC
:10430000B093EA021092EB021092EC021092ED02CE
:104310001092EE0278948091DD029091DE02892B5A
:1043200009F4A9C18091AF04882309F4A4C161E014
:1043300085E00E944A0582E390E00E949A0F07EA16
:1043400014E0D12CC12C8091DD029091DE02C816C0
:10435000D9060CF0DAC04801F9E08F0E911CD801A3
:1043600019968C91803109F472C0BE016F5F7F4F46
:10437000C4010E948E0A882309F469C08D81F80166
:1043800091859B3311F487FD62C08F3509F45FC0BE
:104390006D8280917804909179040E94560AB4014C
:1043A00080917804909179040E94370A40E06EE48D
:1043B00080917804909179040E94030A40E06B8117
:1043C00080917804909179040E94030A40E06C8106
:1043D00080917804909179040E94030AD80119967B
:1043E0008C91803141F040E06D8180917804909112
:1043F00079040E94030A80917804909179042091B5
:104400007504222311F10E94560A882301F1B40198
:1044100080917804909179040E94370A40916F044A
:1044200068E480917804909179040E94030A809155
:104430006F0481114AC064E170E080E090E00E9466
:104440002C0780917804909179040E94560A70920A
:10445000720480917604823008F451C0E0917804AF
:10446000F0917904138615861486128611861086BB
:1044700017821682158214821382912C8091760401
:104480009816E8F5809172048C30C9F1BE016F5F17
:104490007F4F80917804909179040E94581288236C
:1044A00091F067E0CE0101960E94990998858913E1
:1044B0000AC0CE0101960E94000B909172049817D9
:1044C00010F4809372049394D9CF80917004882360
:1044D00029F060E0809171040E944A0564E170E077
:1044E00080E090E00E942C0780917004882309F4FA
:1044F000A8CF61E0809171040E944A05A2CFBFEF6E
:10450000CB1ADB0A085F1F4F1ECF80917804909171
:1045100079040E94560A40E06CEC809178049091F6
:1045200079040E94030A40916F0464E48091780446
:10453000909179040E94030A0E945F074B015C017D
:10454000809173048823E1F080917404882309F436
:104550009EC180916F0481119AC1809178049091DD
:1045600079040E94B009813059F00E945F076819F0
:1045700079098A099B096E3E72408105910568F3AD
:1045800087E791E00E949A0FBE016F5F7F4F80EB3B
:1045900094E00E948E0A882309F469C02A8160E0B1
:1045A00070E0CB0127FF04C060E070E088EF9FEF70
:1045B0004091B00429804B3309F092C13D8137FF0F
:1045C0008FC120FC54C0312C512C412CE3E0220C33
:1045D000331C441C551CEA95D1F7F0EE2F22F7E06E
:1045E0003F2244245524022F10E030E020E0FBE07D
:1045F000000F111F221F331FFA95D1F7022913292B
:1046000024293529602B712B822B932B613854EE92
:1046100075075FEF8507950754F10E94BA2420E0E3
:1046200030E040E05CE30E9419254B015C0120E092
:1046300030E04AEF52E40E94B32487FF18C020E024
:1046400030E040E252ECC501B4010E946C2718161C
:1046500074F420E030E040E251E4C501B4010E946E
:1046600019250E9436277093E2026093E10260E010
:1046700085E00E944A0581E480937C0080917A0065
:10468000806480937A0080917A0086FDFCCF8091CF
:10469000780060917900762F682F072E000C880B28
:1046A000990B0E94BA2426E234EE43E05DE30E94B7
:1046B00019250E9436277093E6026093E5028091E7
:1046C000DC028823C1F1809164008F7780936400BD
:1046D0000E94E81129833A834B835C836D837E8338
:1046E00069817A81072E000C880B990B0E94BA24ED
:1046F0002DEC3CEC4CEC5DE30E9419250E94362722
:104700007093E0026093DF026D817E8190E080E033
:104710000E94B8242DEC3CEC4CEC5DE30E94192582
:104720000E9436277093E4026093E3028091640054
:104730008068809364008091AA0480FF21C08091EA
:1047400064008B7F809364008EE190E00E949A0F5A
:1047500000E02CE04FED52E065E070E084E994E089
:104760000E94DA0D60E084E994E00E942D0E84E658
:1047700090E00E949A0F80916400846080936400AE
:104780008091AA0481FF6DC08DE092E00E942C1000
:104790008091DF029091E0020E94C71084E692E0CF
:1047A0000E942C108091DD029091DE02892BB1F0E5
:1047B00086E692E00E942C1090E080E00E94C710F4
:1047C00088E792E00E942C108091E1029091E20231
:1047D0000E94C71084E692E00E942C108091DC02B7
:1047E000882371F084E192E00E942C108091E30212
:1047F0009091E4020E94C71084E692E00E942C107F
:104800008DE692E00E942C108091E5029091E602E4
:104810000E94C7108091E7029091E802A091E902FE
:10482000B091EA02892B8A2B8B2B99F084E692E0D7
:104830000E942C1083E792E00E942C106091E70206
:104840007091E8028091E9029091EA024AE00E94A8
:104850002E100E941C1065E070E080E090E00E9445
:104860002C070E945F071092EF021092F002109244
:10487000F1021092F202E114F10409F4E2CC0E9478
:10488000BF08882309F4DDCC0E940000DACCE09157
:104890007204E9508EEE92E0E33038F4F0E0EE0F6F
:1048A000FF1FE85FFE4F808191814C01B12CA12C4C
:1048B00080917004882329F060E0809171040E9447
:1048C0004A05C501B4010E942C0780917004882319
:1048D00009F456CE61E0809171040E944A0550CEE1
:1048E000022F10E0102F0027110F110F110F28E0D9
:1048F000229E1001112402291329012E000C220BE3
:10490000330B602B712B822B932B403109F07ECE21
:104910004885442309F47ACE8B019C0183E0000F83
:10492000111F221F331F8A95D1F700782770332774
:104930000052110921093109642F70E08F81AB0108
:10494000481B5109CA019695982F882797958795F6
:104950000E940726072E000C880B990B600F711F11
:10496000821F931F53CE0E94F52408F481E008951E
:10497000E89409C097FB3EF49095809570956195F9
:104980007F4F8F4F9F4F9923A9F0F92F96E9BB27AF
:104990009395F695879577956795B795F111F8CF2B
:1049A000FAF4BB0F11F460FF1BC06F5F7F4F8F4F96
:1049B0009F4F16C0882311F096E911C0772321F08C
:1049C0009EE8872F762F05C0662371F096E8862F24
:1049D00070E060E02AF09A95660F771F881FDAF77B
:1049E000880F9695879597F90895990F0008550FA8
:1049F000AA0BE0E8FEEF16161706E807F907C0F065
:104A000012161306E407F50798F0621B730B840B6C
:104A1000950B39F40A2661F0232B242B252B21F446
:104A200008950A2609F4A140A6958FEF811D811DE6
:104A300008950E942C250C949D250E948F2538F006
:104A40000E94962520F0952311F00C9486250C9455
:104A50008C2511240C94D1250E94AE2570F3959FCE
:104A6000C1F3950F50E0551F629FF001729FBB2765
:104A7000F00DB11D639FAA27F00DB11DAA1F649F01
:104A80006627B00DA11D661F829F2227B00DA11DB4
:104A9000621F739FB00DA11D621F839FA00D611D3A
:104AA000221F749F3327A00D611D231F849F600D5B
:104AB000211D822F762F6A2F11249F5750409AF084
:104AC000F1F088234AF0EE0FFF1FBB1F661F771F10
:104AD000881F91505040A9F79E3F510580F00C94DB
:104AE00086250C94D1255F3FE4F3983ED4F3869558
:104AF00077956795B795F795E7959F5FC1F7FE2B7B
:104B0000880F911D9695879597F9089597F99F6756
:104B100080E870E060E008959FEF80EC0895002445
:104B20000A941616170618060906089500240A9412
:104B300012161306140605060895092E0394000C98
:104B400011F4882352F0BB0F40F4BF2B11F460FF27
:104B500004C06F5F7F4F8F4F9F4F089557FD905850
:104B6000440F551F59F05F3F71F04795880F97FB31
:104B7000991F61F09F3F79F08795089512161306EB
:104B80001406551FF2CF4695F1DF08C0161617061A
:104B90001806991FF1CF869571056105089408954F
:104BA000E894BB2766277727CB0197F90895F999F1
:104BB000FECF92BD81BDF89A992780B50895262F22
:104BC000F999FECF1FBA92BD81BD20BD0FB6F894F2
:104BD000FA9AF99A0FBE019608950E94F825A59FAA
:104BE000900DB49F900DA49F800D911D11240895E8
:104BF000A29FB001B39FC001A39F700D811D11241E
:104C0000911DB29F700D811D1124911D089597FB78
:104C1000072E16F4009407D077FD09D00E943D2698
:104C200007FC05D03EF4909581959F4F08957095AF
:104C300061957F4F0895A1E21A2EAA1BBB1BFD01AF
:104C40000DC0AA1FBB1FEE1FFF1FA217B307E4076B
:104C5000F50720F0A21BB30BE40BF50B661F771FC3
:104C6000881F991F1A9469F76095709580959095A3
:104C70009B01AC01BD01CF010895AA1BBB1B51E1F3
:104C800007C0AA1FBB1FA617B70710F0A61BB70BBC
:104C9000881F991F5A95A9F780959095BC01CD0161
:104CA0000895EE0FFF1F0590F491E02D09945058E0
:104CB000BB27AA270E946F260C949D250E948F2552
:104CC00038F00E94962520F039F49F3F19F426F41D
:104CD0000C948C250EF4E095E7FB0C948625E92FC7
:104CE0000E94AE2558F3BA17620773078407950729
:104CF00020F079F4A6F50C94D0250EF4E0950B2E57
:104D0000BA2FA02D0B01B90190010C01CA01A0011D
:104D10001124FF27591B99F0593F50F4503E68F178
:104D20001A16F040A22F232F342F4427585FF3CFB9
:104D3000469537952795A795F0405395C9F77EF48A
:104D40001F16BA0B620B730B840BBAF09150A1F0D3
:104D5000FF0FBB1F661F771F881FC2F70EC0BA0F59
:104D6000621F731F841F48F4879577956795B795E1
:104D7000F7959E3F08F0B0CF9395880F08F09927DC
:104D8000EE0F9795879508950E94D8260C949D253F
:104D90000E94962558F00E948F2540F029F45F3F2D
:104DA00029F00C94862551110C94D1250C948C2556
:104DB0000E94AE2568F39923B1F3552391F3951B17
:104DC000550BBB27AA2762177307840738F09F5F2C
:104DD0005F4F220F331F441FAA1FA9F335D00E2E99
:104DE0003AF0E0E832D091505040E695001CCAF706
:104DF0002BD0FE2F29D0660F771F881FBB1F2617C9
:104E000037074807AB07B0E809F0BB0B802DBF019F
:104E1000FF2793585F4F3AF09E3F510578F00C946E
:104E200086250C94D1255F3FE4F3983ED4F3869514
:104E300077956795B795F7959F5FC9F7880F911D8F
:104E40009695879597F90895E1E0660F771F881F7B
:104E5000BB1F621773078407BA0720F0621B730B2E
:104E6000840BBA0BEE1F88F7E09508950E943D274A
:104E70006894B1110C94D12508950E94B62588F04C
:104E80009F5798F0B92F9927B751B0F0E1F0660F0E
:104E9000771F881F991F1AF0BA95C9F714C0B1304F
:104EA00091F00E94D025B1E008950C94D025672F91
:104EB000782F8827B85F39F0B93FCCF3869577957E
:104EC0006795B395D9F73EF4909580957095619567
:104ED0007F4F8F4F9F4F08950E94F52408F48FEF66
:104EE00008950E94F524880B990B0895F894FFCF3C
:104EF000FCC9FA0F6B076B075E00BC00770100006E
:104F00000000C9049C04C80B720495048204730455
:104F100000000000F5087A07A7077909B308B6076B
:104F2000170800000000B013DA0DE60BD313720D62
:104F3000D30CE80C600C8A0C2D0ED90BCB0B8D0C0E
:104F4000CD0E3F0DB40C0D0A006E616E00696E66E9
:104F5000006F7666005246206F6E005246206F66E4
:104F6000660053657269616C206F6E0053657269EB
:104F7000616C206F666600206F6620004F70656E62
:104F8000456E657267794D6F6E69746F722E6F72C0
:104F90006700656D6F6E54482046573A20560034BE
:104FA0002E312E3300496E69742052464D2E2E2E1E
:104FB0000038397478626534703861696B356B74A8
:104FC000330052464D205374617274656400496E1B
:104FD00074205349373032312E2E00534937303246
:104FE00031204572726F720053493730323120538D
:104FF0007461727465642C2049443A200074656DB4
:10500000703A002C68756D69646974793A00272BD1
:105010002B2B27207468656E205B456E7465725D6E
:1050200020666F7220636F6E666967206D6F6465BE
:105030002C2077616974696E672032732E2E2E00E2
:1050400070203D20002064426D00536176696E67D8
:105050002E2E2E002C0074656D70657800626174D0
:0A506000743A0070756C73653A0035
:00000001FF
